{
  "_format": "hh-sol-artifact-1",
  "contractName": "ZuriPollToken",
  "sourceName": "contracts/ZuriPollToken.sol",
  "abi": [
    {
      "inputs": [
        {
          "internalType": "address",
          "name": "_owner",
          "type": "address"
        }
      ],
      "stateMutability": "nonpayable",
      "type": "constructor"
    },
    {
      "anonymous": false,
      "inputs": [
        {
          "indexed": true,
          "internalType": "address",
          "name": "owner",
          "type": "address"
        },
        {
          "indexed": true,
          "internalType": "address",
          "name": "spender",
          "type": "address"
        },
        {
          "indexed": false,
          "internalType": "uint256",
          "name": "value",
          "type": "uint256"
        }
      ],
      "name": "Approval",
      "type": "event"
    },
    {
      "anonymous": false,
      "inputs": [
        {
          "indexed": true,
          "internalType": "address",
          "name": "from",
          "type": "address"
        },
        {
          "indexed": true,
          "internalType": "address",
          "name": "to",
          "type": "address"
        },
        {
          "indexed": false,
          "internalType": "uint256",
          "name": "value",
          "type": "uint256"
        }
      ],
      "name": "Transfer",
      "type": "event"
    },
    {
      "inputs": [
        {
          "internalType": "address",
          "name": "owner",
          "type": "address"
        },
        {
          "internalType": "address",
          "name": "spender",
          "type": "address"
        }
      ],
      "name": "allowance",
      "outputs": [
        {
          "internalType": "uint256",
          "name": "",
          "type": "uint256"
        }
      ],
      "stateMutability": "view",
      "type": "function"
    },
    {
      "inputs": [
        {
          "internalType": "address",
          "name": "spender",
          "type": "address"
        },
        {
          "internalType": "uint256",
          "name": "amount",
          "type": "uint256"
        }
      ],
      "name": "approve",
      "outputs": [
        {
          "internalType": "bool",
          "name": "",
          "type": "bool"
        }
      ],
      "stateMutability": "nonpayable",
      "type": "function"
    },
    {
      "inputs": [
        {
          "internalType": "address",
          "name": "account",
          "type": "address"
        }
      ],
      "name": "balanceOf",
      "outputs": [
        {
          "internalType": "uint256",
          "name": "",
          "type": "uint256"
        }
      ],
      "stateMutability": "view",
      "type": "function"
    },
    {
      "inputs": [],
      "name": "buyToken",
      "outputs": [],
      "stateMutability": "payable",
      "type": "function"
    },
    {
      "inputs": [],
      "name": "decimals",
      "outputs": [
        {
          "internalType": "uint8",
          "name": "",
          "type": "uint8"
        }
      ],
      "stateMutability": "view",
      "type": "function"
    },
    {
      "inputs": [
        {
          "internalType": "address",
          "name": "spender",
          "type": "address"
        },
        {
          "internalType": "uint256",
          "name": "subtractedValue",
          "type": "uint256"
        }
      ],
      "name": "decreaseAllowance",
      "outputs": [
        {
          "internalType": "bool",
          "name": "",
          "type": "bool"
        }
      ],
      "stateMutability": "nonpayable",
      "type": "function"
    },
    {
      "inputs": [
        {
          "internalType": "address",
          "name": "spender",
          "type": "address"
        },
        {
          "internalType": "uint256",
          "name": "addedValue",
          "type": "uint256"
        }
      ],
      "name": "increaseAllowance",
      "outputs": [
        {
          "internalType": "bool",
          "name": "",
          "type": "bool"
        }
      ],
      "stateMutability": "nonpayable",
      "type": "function"
    },
    {
      "inputs": [],
      "name": "name",
      "outputs": [
        {
          "internalType": "string",
          "name": "",
          "type": "string"
        }
      ],
      "stateMutability": "view",
      "type": "function"
    },
    {
      "inputs": [],
      "name": "symbol",
      "outputs": [
        {
          "internalType": "string",
          "name": "",
          "type": "string"
        }
      ],
      "stateMutability": "view",
      "type": "function"
    },
    {
      "inputs": [],
      "name": "totalSupply",
      "outputs": [
        {
          "internalType": "uint256",
          "name": "",
          "type": "uint256"
        }
      ],
      "stateMutability": "view",
      "type": "function"
    },
    {
      "inputs": [
        {
          "internalType": "address",
          "name": "to",
          "type": "address"
        },
        {
          "internalType": "uint256",
          "name": "amount",
          "type": "uint256"
        }
      ],
      "name": "transfer",
      "outputs": [
        {
          "internalType": "bool",
          "name": "",
          "type": "bool"
        }
      ],
      "stateMutability": "nonpayable",
      "type": "function"
    },
    {
      "inputs": [
        {
          "internalType": "address",
          "name": "from",
          "type": "address"
        },
        {
          "internalType": "address",
          "name": "to",
          "type": "address"
        },
        {
          "internalType": "uint256",
          "name": "amount",
          "type": "uint256"
        }
      ],
      "name": "transferFrom",
      "outputs": [
        {
          "internalType": "bool",
          "name": "",
          "type": "bool"
        }
      ],
      "stateMutability": "nonpayable",
      "type": "function"
    }
  ],
  "bytecode": "0x60806040526103e86006553480156200001757600080fd5b5060405162001ca938038062001ca983398181016040528101906200003d9190620003f3565b6040518060400160405280600d81526020017f5a757269506f6c6c546f6b656e000000000000000000000000000000000000008152506040518060400160405280600381526020017f5a505400000000000000000000000000000000000000000000000000000000008152508160039080519060200190620000c19291906200032c565b508060049080519060200190620000da9291906200032c565b50505080600560006101000a81548173ffffffffffffffffffffffffffffffffffffffff021916908373ffffffffffffffffffffffffffffffffffffffff16021790555062000165600560009054906101000a900473ffffffffffffffffffffffffffffffffffffffff1662000159620f42406200016c60201b60201c565b620001a060201b60201c565b506200082c565b60006200017e6200031960201b60201c565b600a6200018c91906200055f565b826200019991906200069c565b9050919050565b600073ffffffffffffffffffffffffffffffffffffffff168273ffffffffffffffffffffffffffffffffffffffff16141562000213576040517f08c379a00000000000000000000000000000000000000000000000000000000081526004016200020a9062000457565b60405180910390fd5b62000227600083836200032260201b60201c565b80600260008282546200023b9190620004a7565b92505081905550806000808473ffffffffffffffffffffffffffffffffffffffff1673ffffffffffffffffffffffffffffffffffffffff1681526020019081526020016000206000828254620002929190620004a7565b925050819055508173ffffffffffffffffffffffffffffffffffffffff16600073ffffffffffffffffffffffffffffffffffffffff167fddf252ad1be2c89b69c2b068fc378daa952ba7f163c4a11628f55a4df523b3ef83604051620002f9919062000479565b60405180910390a362000315600083836200032760201b60201c565b5050565b60006012905090565b505050565b505050565b8280546200033a9062000748565b90600052602060002090601f0160209004810192826200035e5760008555620003aa565b82601f106200037957805160ff1916838001178555620003aa565b82800160010185558215620003aa579182015b82811115620003a95782518255916020019190600101906200038c565b5b509050620003b99190620003bd565b5090565b5b80821115620003d8576000816000905550600101620003be565b5090565b600081519050620003ed8162000812565b92915050565b6000602082840312156200040657600080fd5b60006200041684828501620003dc565b91505092915050565b60006200042e601f8362000496565b91506200043b82620007e9565b602082019050919050565b620004518162000731565b82525050565b6000602082019050818103600083015262000472816200041f565b9050919050565b600060208201905062000490600083018462000446565b92915050565b600082825260208201905092915050565b6000620004b48262000731565b9150620004c18362000731565b9250827fffffffffffffffffffffffffffffffffffffffffffffffffffffffffffffffff03821115620004f957620004f86200077e565b5b828201905092915050565b6000808291508390505b600185111562000556578086048111156200052e576200052d6200077e565b5b60018516156200053e5780820291505b80810290506200054e85620007dc565b94506200050e565b94509492505050565b60006200056c8262000731565b915062000579836200073b565b9250620005a87fffffffffffffffffffffffffffffffffffffffffffffffffffffffffffffffff8484620005b0565b905092915050565b600082620005c2576001905062000695565b81620005d2576000905062000695565b8160018114620005eb5760028114620005f6576200062c565b600191505062000695565b60ff8411156200060b576200060a6200077e565b5b8360020a9150848211156200062557620006246200077e565b5b5062000695565b5060208310610133831016604e8410600b8410161715620006665782820a90508381111562000660576200065f6200077e565b5b62000695565b62000675848484600162000504565b925090508184048111156200068f576200068e6200077e565b5b81810290505b9392505050565b6000620006a98262000731565b9150620006b68362000731565b9250817fffffffffffffffffffffffffffffffffffffffffffffffffffffffffffffffff0483118215151615620006f257620006f16200077e565b5b828202905092915050565b60006200070a8262000711565b9050919050565b600073ffffffffffffffffffffffffffffffffffffffff82169050919050565b6000819050919050565b600060ff82169050919050565b600060028204905060018216806200076157607f821691505b60208210811415620007785762000777620007ad565b5b50919050565b7f4e487b7100000000000000000000000000000000000000000000000000000000600052601160045260246000fd5b7f4e487b7100000000000000000000000000000000000000000000000000000000600052602260045260246000fd5b60008160011c9050919050565b7f45524332303a206d696e7420746f20746865207a65726f206164647265737300600082015250565b6200081d81620006fd565b81146200082957600080fd5b50565b61146d806200083c6000396000f3fe6080604052600436106100a75760003560e01c806370a082311161006457806370a08231146101e457806395d89b4114610221578063a457c2d71461024c578063a482171914610289578063a9059cbb14610293578063dd62ed3e146102d0576100a7565b806306fdde03146100ac578063095ea7b3146100d757806318160ddd1461011457806323b872dd1461013f578063313ce5671461017c57806339509351146101a7575b600080fd5b3480156100b857600080fd5b506100c161030d565b6040516100ce9190610ed9565b60405180910390f35b3480156100e357600080fd5b506100fe60048036038101906100f99190610d27565b61039f565b60405161010b9190610ebe565b60405180910390f35b34801561012057600080fd5b506101296103c2565b6040516101369190610fdb565b60405180910390f35b34801561014b57600080fd5b5061016660048036038101906101619190610cd8565b6103cc565b6040516101739190610ebe565b60405180910390f35b34801561018857600080fd5b506101916103fb565b60405161019e9190610ff6565b60405180910390f35b3480156101b357600080fd5b506101ce60048036038101906101c99190610d27565b610404565b6040516101db9190610ebe565b60405180910390f35b3480156101f057600080fd5b5061020b60048036038101906102069190610c73565b6104ae565b6040516102189190610fdb565b60405180910390f35b34801561022d57600080fd5b506102366104f6565b6040516102439190610ed9565b60405180910390f35b34801561025857600080fd5b50610273600480360381019061026e9190610d27565b610588565b6040516102809190610ebe565b60405180910390f35b610291610672565b005b34801561029f57600080fd5b506102ba60048036038101906102b59190610d27565b6106b5565b6040516102c79190610ebe565b60405180910390f35b3480156102dc57600080fd5b506102f760048036038101906102f29190610c9c565b6106d8565b6040516103049190610fdb565b60405180910390f35b60606003805461031c90611165565b80601f016020809104026020016040519081016040528092919081815260200182805461034890611165565b80156103955780601f1061036a57610100808354040283529160200191610395565b820191906000526020600020905b81548152906001019060200180831161037857829003601f168201915b5050505050905090565b6000806103aa61075f565b90506103b7818585610767565b600191505092915050565b6000600254905090565b6000806103d761075f565b90506103e4858285610932565b6103ef8585856109be565b60019150509392505050565b60006012905090565b60008061040f61075f565b90506104a3818585600160008673ffffffffffffffffffffffffffffffffffffffff1673ffffffffffffffffffffffffffffffffffffffff16815260200190815260200160002060008973ffffffffffffffffffffffffffffffffffffffff1673ffffffffffffffffffffffffffffffffffffffff1681526020019081526020016000205461049e919061102d565b610767565b600191505092915050565b60008060008373ffffffffffffffffffffffffffffffffffffffff1673ffffffffffffffffffffffffffffffffffffffff168152602001908152602001600020549050919050565b60606004805461050590611165565b80601f016020809104026020016040519081016040528092919081815260200182805461053190611165565b801561057e5780601f106105535761010080835404028352916020019161057e565b820191906000526020600020905b81548152906001019060200180831161056157829003601f168201915b5050505050905090565b60008061059361075f565b90506000600160008373ffffffffffffffffffffffffffffffffffffffff1673ffffffffffffffffffffffffffffffffffffffff16815260200190815260200160002060008673ffffffffffffffffffffffffffffffffffffffff1673ffffffffffffffffffffffffffffffffffffffff16815260200190815260200160002054905083811015610659576040517f08c379a000000000000000000000000000000000000000000000000000000000815260040161065090610fbb565b60405180910390fd5b6106668286868403610767565b60019250505092915050565b6000600654346106829190611083565b90506106b1600560009054906101000a900473ffffffffffffffffffffffffffffffffffffffff1633836103cc565b5050565b6000806106c061075f565b90506106cd8185856109be565b600191505092915050565b6000600160008473ffffffffffffffffffffffffffffffffffffffff1673ffffffffffffffffffffffffffffffffffffffff16815260200190815260200160002060008373ffffffffffffffffffffffffffffffffffffffff1673ffffffffffffffffffffffffffffffffffffffff16815260200190815260200160002054905092915050565b600033905090565b600073ffffffffffffffffffffffffffffffffffffffff168373ffffffffffffffffffffffffffffffffffffffff1614156107d7576040517f08c379a00000000000000000000000000000000000000000000000000000000081526004016107ce90610f9b565b60405180910390fd5b600073ffffffffffffffffffffffffffffffffffffffff168273ffffffffffffffffffffffffffffffffffffffff161415610847576040517f08c379a000000000000000000000000000000000000000000000000000000000815260040161083e90610f1b565b60405180910390fd5b80600160008573ffffffffffffffffffffffffffffffffffffffff1673ffffffffffffffffffffffffffffffffffffffff16815260200190815260200160002060008473ffffffffffffffffffffffffffffffffffffffff1673ffffffffffffffffffffffffffffffffffffffff168152602001908152602001600020819055508173ffffffffffffffffffffffffffffffffffffffff168373ffffffffffffffffffffffffffffffffffffffff167f8c5be1e5ebec7d5bd14f71427d1e84f3dd0314c0f7b2291e5b200ac8c7c3b925836040516109259190610fdb565b60405180910390a3505050565b600061093e84846106d8565b90507fffffffffffffffffffffffffffffffffffffffffffffffffffffffffffffffff81146109b857818110156109aa576040517f08c379a00000000000000000000000000000000000000000000000000000000081526004016109a190610f3b565b60405180910390fd5b6109b78484848403610767565b5b50505050565b600073ffffffffffffffffffffffffffffffffffffffff168373ffffffffffffffffffffffffffffffffffffffff161415610a2e576040517f08c379a0000000000000000000000000000000000000000000000000000000008152600401610a2590610f7b565b60405180910390fd5b600073ffffffffffffffffffffffffffffffffffffffff168273ffffffffffffffffffffffffffffffffffffffff161415610a9e576040517f08c379a0000000000000000000000000000000000000000000000000000000008152600401610a9590610efb565b60405180910390fd5b610aa9838383610c3f565b60008060008573ffffffffffffffffffffffffffffffffffffffff1673ffffffffffffffffffffffffffffffffffffffff16815260200190815260200160002054905081811015610b2f576040517f08c379a0000000000000000000000000000000000000000000000000000000008152600401610b2690610f5b565b60405180910390fd5b8181036000808673ffffffffffffffffffffffffffffffffffffffff1673ffffffffffffffffffffffffffffffffffffffff16815260200190815260200160002081905550816000808573ffffffffffffffffffffffffffffffffffffffff1673ffffffffffffffffffffffffffffffffffffffff1681526020019081526020016000206000828254610bc2919061102d565b925050819055508273ffffffffffffffffffffffffffffffffffffffff168473ffffffffffffffffffffffffffffffffffffffff167fddf252ad1be2c89b69c2b068fc378daa952ba7f163c4a11628f55a4df523b3ef84604051610c269190610fdb565b60405180910390a3610c39848484610c44565b50505050565b505050565b505050565b600081359050610c5881611409565b92915050565b600081359050610c6d81611420565b92915050565b600060208284031215610c8557600080fd5b6000610c9384828501610c49565b91505092915050565b60008060408385031215610caf57600080fd5b6000610cbd85828601610c49565b9250506020610cce85828601610c49565b9150509250929050565b600080600060608486031215610ced57600080fd5b6000610cfb86828701610c49565b9350506020610d0c86828701610c49565b9250506040610d1d86828701610c5e565b9150509250925092565b60008060408385031215610d3a57600080fd5b6000610d4885828601610c49565b9250506020610d5985828601610c5e565b9150509250929050565b610d6c816110ef565b82525050565b6000610d7d82611011565b610d87818561101c565b9350610d97818560208601611132565b610da0816111f5565b840191505092915050565b6000610db860238361101c565b9150610dc382611206565b604082019050919050565b6000610ddb60228361101c565b9150610de682611255565b604082019050919050565b6000610dfe601d8361101c565b9150610e09826112a4565b602082019050919050565b6000610e2160268361101c565b9150610e2c826112cd565b604082019050919050565b6000610e4460258361101c565b9150610e4f8261131c565b604082019050919050565b6000610e6760248361101c565b9150610e728261136b565b604082019050919050565b6000610e8a60258361101c565b9150610e95826113ba565b604082019050919050565b610ea98161111b565b82525050565b610eb881611125565b82525050565b6000602082019050610ed36000830184610d63565b92915050565b60006020820190508181036000830152610ef38184610d72565b905092915050565b60006020820190508181036000830152610f1481610dab565b9050919050565b60006020820190508181036000830152610f3481610dce565b9050919050565b60006020820190508181036000830152610f5481610df1565b9050919050565b60006020820190508181036000830152610f7481610e14565b9050919050565b60006020820190508181036000830152610f9481610e37565b9050919050565b60006020820190508181036000830152610fb481610e5a565b9050919050565b60006020820190508181036000830152610fd481610e7d565b9050919050565b6000602082019050610ff06000830184610ea0565b92915050565b600060208201905061100b6000830184610eaf565b92915050565b600081519050919050565b600082825260208201905092915050565b60006110388261111b565b91506110438361111b565b9250827fffffffffffffffffffffffffffffffffffffffffffffffffffffffffffffffff0382111561107857611077611197565b5b828201905092915050565b600061108e8261111b565b91506110998361111b565b9250817fffffffffffffffffffffffffffffffffffffffffffffffffffffffffffffffff04831182151516156110d2576110d1611197565b5b828202905092915050565b60006110e8826110fb565b9050919050565b60008115159050919050565b600073ffffffffffffffffffffffffffffffffffffffff82169050919050565b6000819050919050565b600060ff82169050919050565b60005b83811015611150578082015181840152602081019050611135565b8381111561115f576000848401525b50505050565b6000600282049050600182168061117d57607f821691505b60208210811415611191576111906111c6565b5b50919050565b7f4e487b7100000000000000000000000000000000000000000000000000000000600052601160045260246000fd5b7f4e487b7100000000000000000000000000000000000000000000000000000000600052602260045260246000fd5b6000601f19601f8301169050919050565b7f45524332303a207472616e7366657220746f20746865207a65726f206164647260008201527f6573730000000000000000000000000000000000000000000000000000000000602082015250565b7f45524332303a20617070726f766520746f20746865207a65726f20616464726560008201527f7373000000000000000000000000000000000000000000000000000000000000602082015250565b7f45524332303a20696e73756666696369656e7420616c6c6f77616e6365000000600082015250565b7f45524332303a207472616e7366657220616d6f756e742065786365656473206260008201527f616c616e63650000000000000000000000000000000000000000000000000000602082015250565b7f45524332303a207472616e736665722066726f6d20746865207a65726f20616460008201527f6472657373000000000000000000000000000000000000000000000000000000602082015250565b7f45524332303a20617070726f76652066726f6d20746865207a65726f2061646460008201527f7265737300000000000000000000000000000000000000000000000000000000602082015250565b7f45524332303a2064656372656173656420616c6c6f77616e63652062656c6f7760008201527f207a65726f000000000000000000000000000000000000000000000000000000602082015250565b611412816110dd565b811461141d57600080fd5b50565b6114298161111b565b811461143457600080fd5b5056fea26469706673582212208f00b8d4b0c25640a18ac5a941e2d8d96488cfc7064982aa12e1cbb6c5654cf964736f6c63430008040033",
  "linkReferences": {},
  "deployedLinkReferences": {}
}