{
  "_format": "hh-sol-artifact-1",
  "contractName": "ZuriPoll",
  "sourceName": "contracts/ZuriPoll.sol",
  "abi": [
    {
      "inputs": [],
      "stateMutability": "nonpayable",
      "type": "constructor"
    },
    {
      "anonymous": false,
      "inputs": [
        {
          "indexed": false,
          "internalType": "bool",
          "name": "isStakeholder",
          "type": "bool"
        },
        {
          "indexed": false,
          "internalType": "bool",
          "name": "chairmanExists",
          "type": "bool"
        },
        {
          "indexed": false,
          "internalType": "uint256",
          "name": "timeChanged",
          "type": "uint256"
        }
      ],
      "name": "ChairmanChanged",
      "type": "event"
    },
    {
      "anonymous": false,
      "inputs": [
        {
          "indexed": false,
          "internalType": "address",
          "name": "addedBy",
          "type": "address"
        },
        {
          "indexed": false,
          "internalType": "uint256",
          "name": "timeAdded",
          "type": "uint256"
        },
        {
          "indexed": false,
          "internalType": "bool",
          "name": "added",
          "type": "bool"
        }
      ],
      "name": "StakeHolderAdded",
      "type": "event"
    },
    {
      "anonymous": false,
      "inputs": [
        {
          "indexed": false,
          "internalType": "address",
          "name": "removedBy",
          "type": "address"
        },
        {
          "indexed": false,
          "internalType": "uint256",
          "name": "timeRemoved",
          "type": "uint256"
        },
        {
          "indexed": false,
          "internalType": "bool",
          "name": "removed",
          "type": "bool"
        }
      ],
      "name": "StakeHolderRemoved",
      "type": "event"
    },
    {
      "inputs": [
        {
          "internalType": "address",
          "name": "_chairman",
          "type": "address"
        },
        {
          "internalType": "string",
          "name": "_name",
          "type": "string"
        }
      ],
      "name": "addChairman",
      "outputs": [],
      "stateMutability": "nonpayable",
      "type": "function"
    },
    {
      "inputs": [
        {
          "internalType": "address",
          "name": "_stakeholder",
          "type": "address"
        },
        {
          "internalType": "uint256",
          "name": "_role",
          "type": "uint256"
        },
        {
          "internalType": "string",
          "name": "_name",
          "type": "string"
        }
      ],
      "name": "addStakeholder",
      "outputs": [],
      "stateMutability": "nonpayable",
      "type": "function"
    },
    {
      "inputs": [
        {
          "internalType": "string[]",
          "name": "_positions",
          "type": "string[]"
        },
        {
          "internalType": "string[]",
          "name": "_descriptions",
          "type": "string[]"
        },
        {
          "internalType": "uint256[]",
          "name": "_roleLimits",
          "type": "uint256[]"
        }
      ],
      "name": "createsElection",
      "outputs": [],
      "stateMutability": "nonpayable",
      "type": "function"
    },
    {
      "inputs": [
        {
          "internalType": "uint256",
          "name": "_electionId",
          "type": "uint256"
        },
        {
          "internalType": "uint256",
          "name": "_pollId",
          "type": "uint256"
        },
        {
          "internalType": "string",
          "name": "_manifesto",
          "type": "string"
        }
      ],
      "name": "declareInterest",
      "outputs": [],
      "stateMutability": "nonpayable",
      "type": "function"
    },
    {
      "inputs": [
        {
          "internalType": "uint256",
          "name": "_id",
          "type": "uint256"
        }
      ],
      "name": "disableVoting",
      "outputs": [],
      "stateMutability": "nonpayable",
      "type": "function"
    },
    {
      "inputs": [
        {
          "internalType": "uint256",
          "name": "_id",
          "type": "uint256"
        }
      ],
      "name": "enableVoting",
      "outputs": [],
      "stateMutability": "nonpayable",
      "type": "function"
    },
    {
      "inputs": [
        {
          "internalType": "uint256",
          "name": "_id",
          "type": "uint256"
        }
      ],
      "name": "getCandidates",
      "outputs": [
        {
          "components": [
            {
              "internalType": "address",
              "name": "id",
              "type": "address"
            },
            {
              "internalType": "string",
              "name": "manifesto",
              "type": "string"
            },
            {
              "internalType": "bool",
              "name": "disqualified",
              "type": "bool"
            }
          ],
          "internalType": "struct ZuriPoll.Candidate[]",
          "name": "",
          "type": "tuple[]"
        }
      ],
      "stateMutability": "view",
      "type": "function"
    },
    {
      "inputs": [],
      "name": "getChairman",
      "outputs": [
        {
          "internalType": "bool",
          "name": "",
          "type": "bool"
        },
        {
          "internalType": "uint256",
          "name": "",
          "type": "uint256"
        }
      ],
      "stateMutability": "view",
      "type": "function"
    },
    {
      "inputs": [],
      "name": "getElections",
      "outputs": [
        {
          "components": [
            {
              "internalType": "uint256",
              "name": "id",
              "type": "uint256"
            },
            {
              "internalType": "address",
              "name": "creator",
              "type": "address"
            },
            {
              "internalType": "bool",
              "name": "enabled",
              "type": "bool"
            },
            {
              "internalType": "bool",
              "name": "show",
              "type": "bool"
            }
          ],
          "internalType": "struct ZuriPoll.Election[]",
          "name": "",
          "type": "tuple[]"
        }
      ],
      "stateMutability": "view",
      "type": "function"
    },
    {
      "inputs": [
        {
          "internalType": "uint256",
          "name": "_id",
          "type": "uint256"
        }
      ],
      "name": "getPolls",
      "outputs": [
        {
          "components": [
            {
              "internalType": "uint256",
              "name": "id",
              "type": "uint256"
            },
            {
              "internalType": "string",
              "name": "position",
              "type": "string"
            },
            {
              "internalType": "string",
              "name": "description",
              "type": "string"
            },
            {
              "internalType": "enum ZuriPoll.Role",
              "name": "roleLimit",
              "type": "uint8"
            },
            {
              "internalType": "uint256",
              "name": "totalVotes",
              "type": "uint256"
            },
            {
              "internalType": "address",
              "name": "winner",
              "type": "address"
            }
          ],
          "internalType": "struct ZuriPoll.Poll[]",
          "name": "",
          "type": "tuple[]"
        }
      ],
      "stateMutability": "view",
      "type": "function"
    },
    {
      "inputs": [],
      "name": "getStakeholders",
      "outputs": [
        {
          "components": [
            {
              "internalType": "address",
              "name": "id",
              "type": "address"
            },
            {
              "internalType": "enum ZuriPoll.Role",
              "name": "role",
              "type": "uint8"
            },
            {
              "internalType": "string",
              "name": "name",
              "type": "string"
            }
          ],
          "internalType": "struct ZuriPoll.Stakeholder[]",
          "name": "",
          "type": "tuple[]"
        }
      ],
      "stateMutability": "view",
      "type": "function"
    },
    {
      "inputs": [
        {
          "internalType": "address",
          "name": "_id",
          "type": "address"
        }
      ],
      "name": "getVoters",
      "outputs": [
        {
          "internalType": "address[]",
          "name": "",
          "type": "address[]"
        }
      ],
      "stateMutability": "view",
      "type": "function"
    },
    {
      "inputs": [
        {
          "internalType": "address",
          "name": "_stakeholder",
          "type": "address"
        }
      ],
      "name": "isAdmin",
      "outputs": [
        {
          "internalType": "bool",
          "name": "",
          "type": "bool"
        }
      ],
      "stateMutability": "view",
      "type": "function"
    },
    {
      "inputs": [
        {
          "internalType": "address",
          "name": "_stakeholder",
          "type": "address"
        }
      ],
      "name": "isChairman",
      "outputs": [
        {
          "internalType": "bool",
          "name": "",
          "type": "bool"
        }
      ],
      "stateMutability": "view",
      "type": "function"
    },
    {
      "inputs": [
        {
          "internalType": "address",
          "name": "_stakeholder",
          "type": "address"
        }
      ],
      "name": "isStakeHolder",
      "outputs": [
        {
          "internalType": "bool",
          "name": "",
          "type": "bool"
        },
        {
          "internalType": "uint256",
          "name": "",
          "type": "uint256"
        }
      ],
      "stateMutability": "view",
      "type": "function"
    },
    {
      "inputs": [
        {
          "internalType": "address",
          "name": "_stakeholder",
          "type": "address"
        }
      ],
      "name": "isTeacher",
      "outputs": [
        {
          "internalType": "bool",
          "name": "",
          "type": "bool"
        }
      ],
      "stateMutability": "view",
      "type": "function"
    },
    {
      "inputs": [],
      "name": "owner",
      "outputs": [
        {
          "internalType": "address",
          "name": "",
          "type": "address"
        }
      ],
      "stateMutability": "view",
      "type": "function"
    },
    {
      "inputs": [
        {
          "internalType": "address",
          "name": "_stakeholder",
          "type": "address"
        }
      ],
      "name": "removeStakeHolder",
      "outputs": [
        {
          "internalType": "bool",
          "name": "",
          "type": "bool"
        }
      ],
      "stateMutability": "nonpayable",
      "type": "function"
    },
    {
      "inputs": [
        {
          "internalType": "address",
          "name": "_stakeholder",
          "type": "address"
        }
      ],
      "name": "removeStakeholder",
      "outputs": [],
      "stateMutability": "nonpayable",
      "type": "function"
    },
    {
      "inputs": [
        {
          "internalType": "uint256",
          "name": "_id",
          "type": "uint256"
        }
      ],
      "name": "showResult",
      "outputs": [],
      "stateMutability": "nonpayable",
      "type": "function"
    },
    {
      "inputs": [],
      "name": "totalStakeHolders",
      "outputs": [
        {
          "internalType": "uint256",
          "name": "",
          "type": "uint256"
        }
      ],
      "stateMutability": "view",
      "type": "function"
    },
    {
      "inputs": [
        {
          "internalType": "address",
          "name": "_chairman",
          "type": "address"
        }
      ],
      "name": "transferChairmanship",
      "outputs": [],
      "stateMutability": "nonpayable",
      "type": "function"
    },
    {
      "inputs": [
        {
          "internalType": "uint256",
          "name": "_electionId",
          "type": "uint256"
        },
        {
          "internalType": "uint256",
          "name": "_pollId",
          "type": "uint256"
        },
        {
          "internalType": "address",
          "name": "_candidate",
          "type": "address"
        }
      ],
      "name": "vote",
      "outputs": [],
      "stateMutability": "nonpayable",
      "type": "function"
    }
  ],
  "bytecode": "0x60806040526000600355600060045534801561001a57600080fd5b50336000806101000a81548173ffffffffffffffffffffffffffffffffffffffff021916908373ffffffffffffffffffffffffffffffffffffffff160217905550615bf1806200006b6000396000f3fe608060405234801561001057600080fd5b506004361061014d5760003560e01c80638da5cb5b116100c3578063bd46abba1161007c578063bd46abba146103c1578063ce2dee05146103dd578063ce947bd21461040d578063d645155714610429578063e4c9050114610448578063ed6ad2f8146104665761014d565b80638da5cb5b146102ff5780639f3a7f521461031d578063adf824c61461033b578063aec37eb314610357578063b699224714610387578063bcb0c2d7146103a55761014d565b806350d915831161011557806350d9158314610242578063635121591461025e578063690742ce1461028f5780636d882eaf146102ab578063792882aa146102c757806379fb8671146102e35761014d565b806324d7806c146101525780632d15cc041461018257806338287259146101b25780633e39a7a5146101e257806345f412b014610212575b600080fd5b61016c6004803603810190610167919061499a565b610482565b60405161017991906152eb565b60405180910390f35b61019c6004803603810190610197919061499a565b6105e4565b6040516101a99190615241565b60405180910390f35b6101cc60048036038101906101c7919061499a565b6106b1565b6040516101d991906152eb565b60405180910390f35b6101fc60048036038101906101f79190614b22565b6107e0565b6040516102099190615263565b60405180910390f35b61022c6004803603810190610227919061499a565b610955565b60405161023991906152eb565b60405180910390f35b61025c60048036038101906102579190614b4b565b610bac565b005b6102786004803603810190610273919061499a565b6112e1565b60405161028692919061533d565b60405180910390f35b6102a960048036038101906102a49190614b9a565b611433565b005b6102c560048036038101906102c0919061499a565b611a2e565b005b6102e160048036038101906102dc9190614a7e565b61210a565b005b6102fd60048036038101906102f89190614a17565b61276d565b005b6103076128f0565b60405161031491906151ef565b60405180910390f35b610325612914565b6040516103329190615285565b60405180910390f35b61035560048036038101906103509190614b22565b612a09565b005b610371600480360381019061036c919061499a565b612ad7565b60405161037e91906152eb565b60405180910390f35b61038f612c39565b60405161039c91906152c9565b60405180910390f35b6103bf60048036038101906103ba919061499a565b612e07565b005b6103db60048036038101906103d69190614b22565b612f14565b005b6103f760048036038101906103f29190614b22565b612fe2565b60405161040491906152a7565b60405180910390f35b610427600480360381019061042291906149c3565b613269565b005b6104316133c0565b60405161043f92919061533d565b60405180910390f35b6104506134d1565b60405161045d9190615486565b60405180910390f35b610480600480360381019061047b9190614b22565b6134de565b005b600081600073ffffffffffffffffffffffffffffffffffffffff168173ffffffffffffffffffffffffffffffffffffffff1614156104f5576040517f08c379a00000000000000000000000000000000000000000000000000000000081526004016104ec906153e6565b60405180910390fd5b600080610501856112e1565b915091508180156105da575060016003811115610547577f4e487b7100000000000000000000000000000000000000000000000000000000600052602160045260246000fd5b60018281548110610581577f4e487b7100000000000000000000000000000000000000000000000000000000600052603260045260246000fd5b906000526020600020906002020160000160149054906101000a900460ff1660038111156105d8577f4e487b7100000000000000000000000000000000000000000000000000000000600052602160045260246000fd5b145b9350505050919050565b6060600760008373ffffffffffffffffffffffffffffffffffffffff1673ffffffffffffffffffffffffffffffffffffffff1681526020019081526020016000208054806020026020016040519081016040528092919081815260200182805480156106a557602002820191906000526020600020905b8160009054906101000a900473ffffffffffffffffffffffffffffffffffffffff1673ffffffffffffffffffffffffffffffffffffffff168152602001906001019080831161065b575b50505050509050919050565b600081600073ffffffffffffffffffffffffffffffffffffffff168173ffffffffffffffffffffffffffffffffffffffff161415610724576040517f08c379a000000000000000000000000000000000000000000000000000000000815260040161071b906153e6565b60405180910390fd5b60008061072f6133c0565b915091508180156107d6575060018181548110610775577f4e487b7100000000000000000000000000000000000000000000000000000000600052603260045260246000fd5b906000526020600020906002020160000160009054906101000a900473ffffffffffffffffffffffffffffffffffffffff1673ffffffffffffffffffffffffffffffffffffffff168573ffffffffffffffffffffffffffffffffffffffff16145b9350505050919050565b606060066000838152602001908152602001600020805480602002602001604051908101604052809291908181526020016000905b8282101561094a57838290600052602060002090600302016040518060600160405290816000820160009054906101000a900473ffffffffffffffffffffffffffffffffffffffff1673ffffffffffffffffffffffffffffffffffffffff1673ffffffffffffffffffffffffffffffffffffffff16815260200160018201805461089e906157d1565b80601f01602080910402602001604051908101604052809291908181526020018280546108ca906157d1565b80156109175780601f106108ec57610100808354040283529160200191610917565b820191906000526020600020905b8154815290600101906020018083116108fa57829003601f168201915b505050505081526020016002820160009054906101000a900460ff16151515158152505081526020019060010190610815565b505050509050919050565b6000806000610963846112e1565b915091508115610ba057600180808054905061097f91906156ee565b815481106109b6577f4e487b7100000000000000000000000000000000000000000000000000000000600052603260045260246000fd5b9060005260206000209060020201600182815481106109fe577f4e487b7100000000000000000000000000000000000000000000000000000000600052603260045260246000fd5b90600052602060002090600202016000820160009054906101000a900473ffffffffffffffffffffffffffffffffffffffff168160000160006101000a81548173ffffffffffffffffffffffffffffffffffffffff021916908373ffffffffffffffffffffffffffffffffffffffff1602179055506000820160149054906101000a900460ff168160000160146101000a81548160ff02191690836003811115610ad1577f4e487b7100000000000000000000000000000000000000000000000000000000600052602160045260246000fd5b02179055506001820181600101908054610aea906157d1565b610af5929190614302565b509050506001805480610b31577f4e487b7100000000000000000000000000000000000000000000000000000000600052603160045260246000fd5b6001900381819060005260206000209060020201600080820160006101000a81549073ffffffffffffffffffffffffffffffffffffffff02191690556000820160146101000a81549060ff0219169055600182016000610b91919061438f565b50509055600192505050610ba7565b6000925050505b919050565b6000610bb784613e71565b50905080156112db57600080610e4a8560056000898152602001908152602001600020805480602002602001604051908101604052809291908181526020016000905b82821015610e4157838290600052602060002090600602016040518060c001604052908160008201548152602001600182018054610c37906157d1565b80601f0160208091040260200160405190810160405280929190818152602001828054610c63906157d1565b8015610cb05780601f10610c8557610100808354040283529160200191610cb0565b820191906000526020600020905b815481529060010190602001808311610c9357829003601f168201915b50505050508152602001600282018054610cc9906157d1565b80601f0160208091040260200160405190810160405280929190818152602001828054610cf5906157d1565b8015610d425780601f10610d1757610100808354040283529160200191610d42565b820191906000526020600020905b815481529060010190602001808311610d2557829003601f168201915b505050505081526020016003820160009054906101000a900460ff166003811115610d96577f4e487b7100000000000000000000000000000000000000000000000000000000600052602160045260246000fd5b6003811115610dce577f4e487b7100000000000000000000000000000000000000000000000000000000600052602160045260246000fd5b8152602001600482015481526020016005820160009054906101000a900473ffffffffffffffffffffffffffffffffffffffff1673ffffffffffffffffffffffffffffffffffffffff1673ffffffffffffffffffffffffffffffffffffffff168152505081526020019060010190610bfa565b50505050613f05565b9150915081156112d8576000600560008881526020019081526020016000208281548110610ea1577f4e487b7100000000000000000000000000000000000000000000000000000000600052603260045260246000fd5b9060005260206000209060060201905060008061102d876006600086600001548152602001908152602001600020805480602002602001604051908101604052809291908181526020016000905b8282101561102457838290600052602060002090600302016040518060600160405290816000820160009054906101000a900473ffffffffffffffffffffffffffffffffffffffff1673ffffffffffffffffffffffffffffffffffffffff1673ffffffffffffffffffffffffffffffffffffffff168152602001600182018054610f78906157d1565b80601f0160208091040260200160405190810160405280929190818152602001828054610fa4906157d1565b8015610ff15780601f10610fc657610100808354040283529160200191610ff1565b820191906000526020600020905b815481529060010190602001808311610fd457829003601f168201915b505050505081526020016002820160009054906101000a900460ff16151515158152505081526020019060010190610eef565b50505050613f90565b9150915081156112d457600060066000856000015481526020019081526020016000208281548110611088577f4e487b7100000000000000000000000000000000000000000000000000000000600052603260045260246000fd5b90600052602060002090600302019050600061118b33600760008560000160009054906101000a900473ffffffffffffffffffffffffffffffffffffffff1673ffffffffffffffffffffffffffffffffffffffff1673ffffffffffffffffffffffffffffffffffffffff16815260200190815260200160002080548060200260200160405190810160405280929190818152602001828054801561118157602002820191906000526020600020905b8160009054906101000a900473ffffffffffffffffffffffffffffffffffffffff1673ffffffffffffffffffffffffffffffffffffffff1681526020019060010190808311611137575b5050505050614095565b509050806112d1576000600760008460000160009054906101000a900473ffffffffffffffffffffffffffffffffffffffff1673ffffffffffffffffffffffffffffffffffffffff1673ffffffffffffffffffffffffffffffffffffffff168152602001908152602001600020905080339080600181540180825580915050600190039060005260206000200160009091909190916101000a81548173ffffffffffffffffffffffffffffffffffffffff021916908373ffffffffffffffffffffffffffffffffffffffff16021790555080600760008560000160009054906101000a900473ffffffffffffffffffffffffffffffffffffffff1673ffffffffffffffffffffffffffffffffffffffff1673ffffffffffffffffffffffffffffffffffffffff1681526020019081526020016000209080546112ce9291906143cf565b50505b50505b5050505b50505b50505050565b60008082600073ffffffffffffffffffffffffffffffffffffffff168173ffffffffffffffffffffffffffffffffffffffff161415611355576040517f08c379a000000000000000000000000000000000000000000000000000000000815260040161134c906153e6565b60405180910390fd5b60005b600180549050811015611424576001818154811061139f577f4e487b7100000000000000000000000000000000000000000000000000000000600052603260045260246000fd5b906000526020600020906002020160000160009054906101000a900473ffffffffffffffffffffffffffffffffffffffff1673ffffffffffffffffffffffffffffffffffffffff168573ffffffffffffffffffffffffffffffffffffffff16141561141157600181935093505061142d565b808061141c90615834565b915050611358565b50600080925092505b50915091565b600061143e85613e71565b5090508015611a275760006005600087815260200190815260200160002090506000806116d68784805480602002602001604051908101604052809291908181526020016000905b828210156116cd57838290600052602060002090600602016040518060c0016040529081600082015481526020016001820180546114c3906157d1565b80601f01602080910402602001604051908101604052809291908181526020018280546114ef906157d1565b801561153c5780601f106115115761010080835404028352916020019161153c565b820191906000526020600020905b81548152906001019060200180831161151f57829003601f168201915b50505050508152602001600282018054611555906157d1565b80601f0160208091040260200160405190810160405280929190818152602001828054611581906157d1565b80156115ce5780601f106115a3576101008083540402835291602001916115ce565b820191906000526020600020905b8154815290600101906020018083116115b157829003601f168201915b505050505081526020016003820160009054906101000a900460ff166003811115611622577f4e487b7100000000000000000000000000000000000000000000000000000000600052602160045260246000fd5b600381111561165a577f4e487b7100000000000000000000000000000000000000000000000000000000600052602160045260246000fd5b8152602001600482015481526020016005820160009054906101000a900473ffffffffffffffffffffffffffffffffffffffff1673ffffffffffffffffffffffffffffffffffffffff1673ffffffffffffffffffffffffffffffffffffffff168152505081526020019060010190611486565b50505050613f05565b915091508115611a2357600083828154811061171b577f4e487b7100000000000000000000000000000000000000000000000000000000600052603260045260246000fd5b9060005260206000209060060201905060006118a6336006600085600001548152602001908152602001600020805480602002602001604051908101604052809291908181526020016000905b8282101561189d57838290600052602060002090600302016040518060600160405290816000820160009054906101000a900473ffffffffffffffffffffffffffffffffffffffff1673ffffffffffffffffffffffffffffffffffffffff1673ffffffffffffffffffffffffffffffffffffffff1681526020016001820180546117f1906157d1565b80601f016020809104026020016040519081016040528092919081815260200182805461181d906157d1565b801561186a5780601f1061183f5761010080835404028352916020019161186a565b820191906000526020600020905b81548152906001019060200180831161184d57829003601f168201915b505050505081526020016002820160009054906101000a900460ff16151515158152505081526020019060010190611768565b50505050613f90565b50905080611a2057600060405180606001604052803373ffffffffffffffffffffffffffffffffffffffff1681526020018a8a8080601f016020809104026020016040519081016040528093929190818152602001838380828437600081840152601f19601f8201169050808301925050505050505081526020016000151581525090506000600660008560000154815260200190815260200160002090508082908060018154018082558091505060019003906000526020600020906003020160009091909190915060008201518160000160006101000a81548173ffffffffffffffffffffffffffffffffffffffff021916908373ffffffffffffffffffffffffffffffffffffffff16021790555060208201518160010190805190602001906119d3929190614421565b5060408201518160020160006101000a81548160ff0219169083151502179055505050806006600086600001548152602001908152602001600020908054611a1c9291906144a7565b5050505b50505b5050505b5050505050565b6000611a39336106b1565b905060008054906101000a900473ffffffffffffffffffffffffffffffffffffffff1673ffffffffffffffffffffffffffffffffffffffff163373ffffffffffffffffffffffffffffffffffffffff161480611a925750805b611ad1576040517f08c379a0000000000000000000000000000000000000000000000000000000008152600401611ac8906153a6565b60405180910390fd5b81600073ffffffffffffffffffffffffffffffffffffffff168173ffffffffffffffffffffffffffffffffffffffff161415611b42576040517f08c379a0000000000000000000000000000000000000000000000000000000008152600401611b39906153e6565b60405180910390fd5b600080611b4e856112e1565b91509150600080611b5d6133c0565b91509150838015611b6b5750815b8015611c40575060026003811115611bac577f4e487b7100000000000000000000000000000000000000000000000000000000600052602160045260246000fd5b60018281548110611be6577f4e487b7100000000000000000000000000000000000000000000000000000000600052603260045260246000fd5b906000526020600020906002020160000160149054906101000a900460ff166003811115611c3d577f4e487b7100000000000000000000000000000000000000000000000000000000600052602160045260246000fd5b14155b8015611d145750600380811115611c80577f4e487b7100000000000000000000000000000000000000000000000000000000600052602160045260246000fd5b60018281548110611cba577f4e487b7100000000000000000000000000000000000000000000000000000000600052603260045260246000fd5b906000526020600020906002020160000160149054906101000a900460ff166003811115611d11577f4e487b7100000000000000000000000000000000000000000000000000000000600052602160045260246000fd5b14155b1561210157600060018481548110611d55577f4e487b7100000000000000000000000000000000000000000000000000000000600052603260045260246000fd5b9060005260206000209060020201905060008160000160146101000a81548160ff02191690836003811115611db3577f4e487b7100000000000000000000000000000000000000000000000000000000600052602160045260246000fd5b0217905550600060018381548110611df4577f4e487b7100000000000000000000000000000000000000000000000000000000600052603260045260246000fd5b9060005260206000209060020201905060018160000160146101000a81548160ff02191690836003811115611e52577f4e487b7100000000000000000000000000000000000000000000000000000000600052602160045260246000fd5b02179055508160018681548110611e92577f4e487b7100000000000000000000000000000000000000000000000000000000600052603260045260246000fd5b90600052602060002090600202016000820160009054906101000a900473ffffffffffffffffffffffffffffffffffffffff168160000160006101000a81548173ffffffffffffffffffffffffffffffffffffffff021916908373ffffffffffffffffffffffffffffffffffffffff1602179055506000820160149054906101000a900460ff168160000160146101000a81548160ff02191690836003811115611f65577f4e487b7100000000000000000000000000000000000000000000000000000000600052602160045260246000fd5b02179055506001820181600101908054611f7e906157d1565b611f89929190614302565b509050508060018481548110611fc8577f4e487b7100000000000000000000000000000000000000000000000000000000600052603260045260246000fd5b90600052602060002090600202016000820160009054906101000a900473ffffffffffffffffffffffffffffffffffffffff168160000160006101000a81548173ffffffffffffffffffffffffffffffffffffffff021916908373ffffffffffffffffffffffffffffffffffffffff1602179055506000820160149054906101000a900460ff168160000160146101000a81548160ff0219169083600381111561209b577f4e487b7100000000000000000000000000000000000000000000000000000000600052602160045260246000fd5b021790555060018201816001019080546120b4906157d1565b6120bf929190614302565b509050507f9bb673a781cc5554a0a36cf22e9e98dd655f503a053eac18d7f89c047f17800f8685426040516120f693929190615306565b60405180910390a150505b50505050505050565b6000612115336106b1565b9050600061212233610482565b9050600061212f33612ad7565b9050828061213a5750815b806121425750805b612181576040517f08c379a000000000000000000000000000000000000000000000000000000000815260040161217890615426565b60405180910390fd5b8686905089899050146121c9576040517f08c379a00000000000000000000000000000000000000000000000000000000081526004016121c090615446565b60405180910390fd5b848490508989905014612211576040517f08c379a000000000000000000000000000000000000000000000000000000000815260040161220890615446565b60405180910390fd5b6014898990501115612258576040517f08c379a000000000000000000000000000000000000000000000000000000000815260040161224f90615466565b60405180910390fd5b6000600560006003548152602001908152602001600020905060005b8a8a905081101561260d57600060018888848181106122bc577f4e487b7100000000000000000000000000000000000000000000000000000000600052603260045260246000fd5b9050602002013514156122d25760019050612329565b600288888481811061230d577f4e487b7100000000000000000000000000000000000000000000000000000000600052603260045260246000fd5b9050602002013514156123235760029050612328565b600390505b5b60006040518060c0016040528060045481526020018e8e86818110612377577f4e487b7100000000000000000000000000000000000000000000000000000000600052603260045260246000fd5b905060200281019061238991906154a1565b8080601f016020809104026020016040519081016040528093929190818152602001838380828437600081840152601f19601f8201169050808301925050505050505081526020018c8c8681811061240a577f4e487b7100000000000000000000000000000000000000000000000000000000600052603260045260246000fd5b905060200281019061241c91906154a1565b8080601f016020809104026020016040519081016040528093929190818152602001838380828437600081840152601f19601f82011690508083019250505050505050815260200183600381111561249d577f4e487b7100000000000000000000000000000000000000000000000000000000600052602160045260246000fd5b815260200160008152602001600073ffffffffffffffffffffffffffffffffffffffff16815250905083819080600181540180825580915050600190039060005260206000209060060201600090919091909150600082015181600001556020820151816001019080519060200190612517929190614421565b506040820151816002019080519060200190612534929190614421565b5060608201518160030160006101000a81548160ff02191690836003811115612586577f4e487b7100000000000000000000000000000000000000000000000000000000600052602160045260246000fd5b02179055506080820151816004015560a08201518160050160006101000a81548173ffffffffffffffffffffffffffffffffffffffff021916908373ffffffffffffffffffffffffffffffffffffffff16021790555050506001600460008282546125f19190615698565b925050819055505050808061260590615834565b915050612274565b50600061261b600354613e71565b50905080612760576002604051806080016040528060035481526020013373ffffffffffffffffffffffffffffffffffffffff1681526020016000151581526020016000151581525090806001815401808255809150506001900390600052602060002090600202016000909190919091506000820151816000015560208201518160010160006101000a81548173ffffffffffffffffffffffffffffffffffffffff021916908373ffffffffffffffffffffffffffffffffffffffff16021790555060408201518160010160146101000a81548160ff02191690831515021790555060608201518160010160156101000a81548160ff0219169083151502179055505050816005600060035481526020019081526020016000209080546127449291906145b3565b506001600360008282546127589190615698565b925050819055505b5050505050505050505050565b6000612778336106b1565b9050600061278533610482565b905060008054906101000a900473ffffffffffffffffffffffffffffffffffffffff1673ffffffffffffffffffffffffffffffffffffffff163373ffffffffffffffffffffffffffffffffffffffff1614806127de5750815b806127e65750805b612825576040517f08c379a000000000000000000000000000000000000000000000000000000000815260040161281c906153c6565b60405180910390fd5b84600073ffffffffffffffffffffffffffffffffffffffff168173ffffffffffffffffffffffffffffffffffffffff161415612896576040517f08c379a000000000000000000000000000000000000000000000000000000000815260040161288d906153e6565b60405180910390fd5b60006128a3878787614148565b905080156128e7577f1f366cb51d6c322ee8b739141a2ec9faf2d9da5aa6b97d6584d9144655b0aaef3342836040516128de9392919061520a565b60405180910390a15b50505050505050565b60008054906101000a900473ffffffffffffffffffffffffffffffffffffffff1681565b60606002805480602002602001604051908101604052809291908181526020016000905b82821015612a005783829060005260206000209060020201604051806080016040529081600082015481526020016001820160009054906101000a900473ffffffffffffffffffffffffffffffffffffffff1673ffffffffffffffffffffffffffffffffffffffff1673ffffffffffffffffffffffffffffffffffffffff1681526020016001820160149054906101000a900460ff161515151581526020016001820160159054906101000a900460ff16151515158152505081526020019060010190612938565b50505050905090565b6000612a14336106b1565b905080612a56576040517f08c379a0000000000000000000000000000000000000000000000000000000008152600401612a4d90615366565b60405180910390fd5b600080612a6284613e71565b915091508115612ad157600160028281548110612aa8577f4e487b7100000000000000000000000000000000000000000000000000000000600052603260045260246000fd5b906000526020600020906002020160010160146101000a81548160ff0219169083151502179055505b50505050565b600081600073ffffffffffffffffffffffffffffffffffffffff168173ffffffffffffffffffffffffffffffffffffffff161415612b4a576040517f08c379a0000000000000000000000000000000000000000000000000000000008152600401612b41906153e6565b60405180910390fd5b600080612b56856112e1565b91509150818015612c2f575060026003811115612b9c577f4e487b7100000000000000000000000000000000000000000000000000000000600052602160045260246000fd5b60018281548110612bd6577f4e487b7100000000000000000000000000000000000000000000000000000000600052603260045260246000fd5b906000526020600020906002020160000160149054906101000a900460ff166003811115612c2d577f4e487b7100000000000000000000000000000000000000000000000000000000600052602160045260246000fd5b145b9350505050919050565b60606001805480602002602001604051908101604052809291908181526020016000905b82821015612dfe57838290600052602060002090600202016040518060600160405290816000820160009054906101000a900473ffffffffffffffffffffffffffffffffffffffff1673ffffffffffffffffffffffffffffffffffffffff1673ffffffffffffffffffffffffffffffffffffffff1681526020016000820160149054906101000a900460ff166003811115612d21577f4e487b7100000000000000000000000000000000000000000000000000000000600052602160045260246000fd5b6003811115612d59577f4e487b7100000000000000000000000000000000000000000000000000000000600052602160045260246000fd5b8152602001600182018054612d6d906157d1565b80601f0160208091040260200160405190810160405280929190818152602001828054612d99906157d1565b8015612de65780601f10612dbb57610100808354040283529160200191612de6565b820191906000526020600020905b815481529060010190602001808311612dc957829003601f168201915b50505050508152505081526020019060010190612c5d565b50505050905090565b6000612e12336106b1565b90506000612e1f33610482565b905060008054906101000a900473ffffffffffffffffffffffffffffffffffffffff1673ffffffffffffffffffffffffffffffffffffffff163373ffffffffffffffffffffffffffffffffffffffff161480612e785750815b80612e805750805b612ebf576040517f08c379a0000000000000000000000000000000000000000000000000000000008152600401612eb6906153c6565b60405180910390fd5b6000612eca84610955565b90508015612f0e577fc2584311840f96f00503c7cd32c4c54dbec1eaa507d4179fd5b74a3c09a798b3334283604051612f059392919061520a565b60405180910390a15b50505050565b6000612f1f336106b1565b905080612f61576040517f08c379a0000000000000000000000000000000000000000000000000000000008152600401612f5890615366565b60405180910390fd5b600080612f6d84613e71565b915091508115612fdc57600060028281548110612fb3577f4e487b7100000000000000000000000000000000000000000000000000000000600052603260045260246000fd5b906000526020600020906002020160010160146101000a81548160ff0219169083151502179055505b50505050565b606060056000838152602001908152602001600020805480602002602001604051908101604052809291908181526020016000905b8282101561325e57838290600052602060002090600602016040518060c001604052908160008201548152602001600182018054613054906157d1565b80601f0160208091040260200160405190810160405280929190818152602001828054613080906157d1565b80156130cd5780601f106130a2576101008083540402835291602001916130cd565b820191906000526020600020905b8154815290600101906020018083116130b057829003601f168201915b505050505081526020016002820180546130e6906157d1565b80601f0160208091040260200160405190810160405280929190818152602001828054613112906157d1565b801561315f5780601f106131345761010080835404028352916020019161315f565b820191906000526020600020905b81548152906001019060200180831161314257829003601f168201915b505050505081526020016003820160009054906101000a900460ff1660038111156131b3577f4e487b7100000000000000000000000000000000000000000000000000000000600052602160045260246000fd5b60038111156131eb577f4e487b7100000000000000000000000000000000000000000000000000000000600052602160045260246000fd5b8152602001600482015481526020016005820160009054906101000a900473ffffffffffffffffffffffffffffffffffffffff1673ffffffffffffffffffffffffffffffffffffffff1673ffffffffffffffffffffffffffffffffffffffff168152505081526020019060010190613017565b505050509050919050565b60008054906101000a900473ffffffffffffffffffffffffffffffffffffffff1673ffffffffffffffffffffffffffffffffffffffff163373ffffffffffffffffffffffffffffffffffffffff16146132f7576040517f08c379a00000000000000000000000000000000000000000000000000000000081526004016132ee90615386565b60405180910390fd5b81600073ffffffffffffffffffffffffffffffffffffffff168173ffffffffffffffffffffffffffffffffffffffff161415613368576040517f08c379a000000000000000000000000000000000000000000000000000000000815260040161335f906153e6565b60405180910390fd5b600061337684600085614148565b905080156133ba577f1f366cb51d6c322ee8b739141a2ec9faf2d9da5aa6b97d6584d9144655b0aaef3342836040516133b19392919061520a565b60405180910390a15b50505050565b60008060005b6001805490508110156134c4576000600381111561340d577f4e487b7100000000000000000000000000000000000000000000000000000000600052602160045260246000fd5b60018281548110613447577f4e487b7100000000000000000000000000000000000000000000000000000000600052603260045260246000fd5b906000526020600020906002020160000160149054906101000a900460ff16600381111561349e577f4e487b7100000000000000000000000000000000000000000000000000000000600052602160045260246000fd5b14156134b15760018192509250506134cd565b80806134bc90615834565b9150506133c6565b50600080915091505b9091565b6000600180549050905090565b60006134e9336106b1565b905060006134f633610482565b905060008054906101000a900473ffffffffffffffffffffffffffffffffffffffff1673ffffffffffffffffffffffffffffffffffffffff163373ffffffffffffffffffffffffffffffffffffffff16148061354f5750815b806135575750805b613596576040517f08c379a000000000000000000000000000000000000000000000000000000000815260040161358d906153c6565b60405180910390fd5b6000806135a285613e71565b915091508115613e6a576000600282815481106135e8577f4e487b7100000000000000000000000000000000000000000000000000000000600052603260045260246000fd5b9060005260206000209060020201604051806080016040529081600082015481526020016001820160009054906101000a900473ffffffffffffffffffffffffffffffffffffffff1673ffffffffffffffffffffffffffffffffffffffff1673ffffffffffffffffffffffffffffffffffffffff1681526020016001820160149054906101000a900460ff161515151581526020016001820160159054906101000a900460ff16151515158152505090508060400151156136de576040517f08c379a00000000000000000000000000000000000000000000000000000000081526004016136d590615406565b60405180910390fd5b600060056000888152602001908152602001600020805480602002602001604051908101604052809291908181526020016000905b8282101561395a57838290600052602060002090600602016040518060c001604052908160008201548152602001600182018054613750906157d1565b80601f016020809104026020016040519081016040528092919081815260200182805461377c906157d1565b80156137c95780601f1061379e576101008083540402835291602001916137c9565b820191906000526020600020905b8154815290600101906020018083116137ac57829003601f168201915b505050505081526020016002820180546137e2906157d1565b80601f016020809104026020016040519081016040528092919081815260200182805461380e906157d1565b801561385b5780601f106138305761010080835404028352916020019161385b565b820191906000526020600020905b81548152906001019060200180831161383e57829003601f168201915b505050505081526020016003820160009054906101000a900460ff1660038111156138af577f4e487b7100000000000000000000000000000000000000000000000000000000600052602160045260246000fd5b60038111156138e7577f4e487b7100000000000000000000000000000000000000000000000000000000600052602160045260246000fd5b8152602001600482015481526020016005820160009054906101000a900473ffffffffffffffffffffffffffffffffffffffff1673ffffffffffffffffffffffffffffffffffffffff1673ffffffffffffffffffffffffffffffffffffffff168152505081526020019060010190613713565b50505050905060005b8151811015613e025760008282815181106139a7577f4e487b7100000000000000000000000000000000000000000000000000000000600052603260045260246000fd5b6020026020010151905060006006600083600001518152602001908152602001600020805480602002602001604051908101604052809291908181526020016000905b82821015613b1f57838290600052602060002090600302016040518060600160405290816000820160009054906101000a900473ffffffffffffffffffffffffffffffffffffffff1673ffffffffffffffffffffffffffffffffffffffff1673ffffffffffffffffffffffffffffffffffffffff168152602001600182018054613a73906157d1565b80601f0160208091040260200160405190810160405280929190818152602001828054613a9f906157d1565b8015613aec5780601f10613ac157610100808354040283529160200191613aec565b820191906000526020600020905b815481529060010190602001808311613acf57829003601f168201915b505050505081526020016002820160009054906101000a900460ff161515151581525050815260200190600101906139ea565b5050505090506000805b8251811015613da6578160076000858481518110613b70577f4e487b7100000000000000000000000000000000000000000000000000000000600052603260045260246000fd5b60200260200101516000015173ffffffffffffffffffffffffffffffffffffffff1673ffffffffffffffffffffffffffffffffffffffff168152602001908152602001600020805490501115613cca5760076000848381518110613bfd577f4e487b7100000000000000000000000000000000000000000000000000000000600052603260045260246000fd5b60200260200101516000015173ffffffffffffffffffffffffffffffffffffffff1673ffffffffffffffffffffffffffffffffffffffff168152602001908152602001600020805490509150828181518110613c82577f4e487b7100000000000000000000000000000000000000000000000000000000600052603260045260246000fd5b6020026020010151600001518460a0019073ffffffffffffffffffffffffffffffffffffffff16908173ffffffffffffffffffffffffffffffffffffffff1681525050613d93565b8160076000858481518110613d08577f4e487b7100000000000000000000000000000000000000000000000000000000600052603260045260246000fd5b60200260200101516000015173ffffffffffffffffffffffffffffffffffffffff1673ffffffffffffffffffffffffffffffffffffffff168152602001908152602001600020805490501415613d925760008460a0019073ffffffffffffffffffffffffffffffffffffffff16908173ffffffffffffffffffffffffffffffffffffffff16815250505b5b8080613d9e90615834565b915050613b29565b5082858581518110613de1577f4e487b7100000000000000000000000000000000000000000000000000000000600052603260045260246000fd5b60200260200101819052505050508080613dfa90615834565b915050613963565b50600160028481548110613e3f577f4e487b7100000000000000000000000000000000000000000000000000000000600052603260045260246000fd5b906000526020600020906002020160010160156101000a81548160ff02191690831515021790555050505b5050505050565b60008060005b600280549050811015613ef75760028181548110613ebe577f4e487b7100000000000000000000000000000000000000000000000000000000600052603260045260246000fd5b906000526020600020906002020160000154841415613ee4576001819250925050613f00565b8080613eef90615834565b915050613e77565b50600080915091505b915091565b60008060005b8351811015613f8057838181518110613f4d577f4e487b7100000000000000000000000000000000000000000000000000000000600052603260045260246000fd5b602002602001015160000151851415613f6d576001819250925050613f89565b8080613f7890615834565b915050613f0b565b50600080915091505b9250929050565b60008060005b835181101561408557838181518110613fd8577f4e487b7100000000000000000000000000000000000000000000000000000000600052603260045260246000fd5b60200260200101516000015173ffffffffffffffffffffffffffffffffffffffff168573ffffffffffffffffffffffffffffffffffffffff161480156140605750838181518110614052577f4e487b7100000000000000000000000000000000000000000000000000000000600052603260045260246000fd5b602002602001015160400151155b1561407257600181925092505061408e565b808061407d90615834565b915050613f96565b50600080915091505b9250929050565b60008060005b8351811015614138578381815181106140dd577f4e487b7100000000000000000000000000000000000000000000000000000000600052603260045260246000fd5b602002602001015173ffffffffffffffffffffffffffffffffffffffff168573ffffffffffffffffffffffffffffffffffffffff161415614125576001819250925050614141565b808061413090615834565b91505061409b565b50600080915091505b9250929050565b600080614154856112e1565b509050806142f55760008085141561416f576000905061419a565b60018514156141815760019050614199565b60028514156141935760029050614198565b600390505b5b5b600160405180606001604052808873ffffffffffffffffffffffffffffffffffffffff1681526020018360038111156141fc577f4e487b7100000000000000000000000000000000000000000000000000000000600052602160045260246000fd5b815260200186815250908060018154018082558091505060019003906000526020600020906002020160009091909190915060008201518160000160006101000a81548173ffffffffffffffffffffffffffffffffffffffff021916908373ffffffffffffffffffffffffffffffffffffffff16021790555060208201518160000160146101000a81548160ff021916908360038111156142c6577f4e487b7100000000000000000000000000000000000000000000000000000000600052602160045260246000fd5b021790555060408201518160010190805190602001906142e7929190614421565b5050506001925050506142fb565b60009150505b9392505050565b82805461430e906157d1565b90600052602060002090601f016020900481019282614330576000855561437e565b82601f10614341578054855561437e565b8280016001018555821561437e57600052602060002091601f016020900482015b8281111561437d578254825591600101919060010190614362565b5b50905061438b9190614729565b5090565b50805461439b906157d1565b6000825580601f106143ad57506143cc565b601f0160209004906000526020600020908101906143cb9190614729565b5b50565b8280548282559060005260206000209081019282156144105760005260206000209182015b8281111561440f5782548255916001019190600101906143f4565b5b50905061441d9190614729565b5090565b82805461442d906157d1565b90600052602060002090601f01602090048101928261444f5760008555614496565b82601f1061446857805160ff1916838001178555614496565b82800160010185558215614496579182015b8281111561449557825182559160200191906001019061447a565b5b5090506144a39190614729565b5090565b8280548282559060005260206000209060030281019282156145a25760005260206000209160030282015b828111156145a15782826000820160009054906101000a900473ffffffffffffffffffffffffffffffffffffffff168160000160006101000a81548173ffffffffffffffffffffffffffffffffffffffff021916908373ffffffffffffffffffffffffffffffffffffffff1602179055506001820181600101908054614557906157d1565b614562929190614302565b506002820160009054906101000a900460ff168160020160006101000a81548160ff0219169083151502179055505050916003019190600301906144d2565b5b5090506145af9190614746565b5090565b8280548282559060005260206000209060060281019282156147185760005260206000209160060282015b82811115614717578282600082015481600001556001820181600101908054614606906157d1565b614611929190614302565b506002820181600201908054614626906157d1565b614631929190614302565b506003820160009054906101000a900460ff168160030160006101000a81548160ff02191690836003811115614690577f4e487b7100000000000000000000000000000000000000000000000000000000600052602160045260246000fd5b0217905550600482015481600401556005820160009054906101000a900473ffffffffffffffffffffffffffffffffffffffff168160050160006101000a81548173ffffffffffffffffffffffffffffffffffffffff021916908373ffffffffffffffffffffffffffffffffffffffff1602179055505050916006019190600601906145de565b5b50905061472591906147a8565b5090565b5b8082111561474257600081600090555060010161472a565b5090565b5b808211156147a457600080820160006101000a81549073ffffffffffffffffffffffffffffffffffffffff0219169055600182016000614787919061438f565b6002820160006101000a81549060ff021916905550600301614747565b5090565b5b80821115614826576000808201600090556001820160006147ca919061438f565b6002820160006147da919061438f565b6003820160006101000a81549060ff021916905560048201600090556005820160006101000a81549073ffffffffffffffffffffffffffffffffffffffff0219169055506006016147a9565b5090565b600061483d6148388461551d565b6154f8565b90508281526020810184848401111561485557600080fd5b61486084828561578f565b509392505050565b60008135905061487781615b8d565b92915050565b60008083601f84011261488f57600080fd5b8235905067ffffffffffffffff8111156148a857600080fd5b6020830191508360208202830111156148c057600080fd5b9250929050565b60008083601f8401126148d957600080fd5b8235905067ffffffffffffffff8111156148f257600080fd5b60208301915083602082028301111561490a57600080fd5b9250929050565b60008083601f84011261492357600080fd5b8235905067ffffffffffffffff81111561493c57600080fd5b60208301915083600182028301111561495457600080fd5b9250929050565b600082601f83011261496c57600080fd5b813561497c84826020860161482a565b91505092915050565b60008135905061499481615ba4565b92915050565b6000602082840312156149ac57600080fd5b60006149ba84828501614868565b91505092915050565b600080604083850312156149d657600080fd5b60006149e485828601614868565b925050602083013567ffffffffffffffff811115614a0157600080fd5b614a0d8582860161495b565b9150509250929050565b600080600060608486031215614a2c57600080fd5b6000614a3a86828701614868565b9350506020614a4b86828701614985565b925050604084013567ffffffffffffffff811115614a6857600080fd5b614a748682870161495b565b9150509250925092565b60008060008060008060608789031215614a9757600080fd5b600087013567ffffffffffffffff811115614ab157600080fd5b614abd89828a0161487d565b9650965050602087013567ffffffffffffffff811115614adc57600080fd5b614ae889828a0161487d565b9450945050604087013567ffffffffffffffff811115614b0757600080fd5b614b1389828a016148c7565b92509250509295509295509295565b600060208284031215614b3457600080fd5b6000614b4284828501614985565b91505092915050565b600080600060608486031215614b6057600080fd5b6000614b6e86828701614985565b9350506020614b7f86828701614985565b9250506040614b9086828701614868565b9150509250925092565b60008060008060608587031215614bb057600080fd5b6000614bbe87828801614985565b9450506020614bcf87828801614985565b935050604085013567ffffffffffffffff811115614bec57600080fd5b614bf887828801614911565b925092505092959194509250565b6000614c128383614c72565b60208301905092915050565b6000614c2a838361504c565b905092915050565b6000614c3e838361509c565b60808301905092915050565b6000614c5683836150f1565b905092915050565b6000614c6a8383615181565b905092915050565b614c7b81615722565b82525050565b614c8a81615722565b82525050565b6000614c9b8261559e565b614ca58185615621565b9350614cb08361554e565b8060005b83811015614ce1578151614cc88882614c06565b9750614cd3836155e0565b925050600181019050614cb4565b5085935050505092915050565b6000614cf9826155a9565b614d038185615632565b935083602082028501614d158561555e565b8060005b85811015614d515784840389528151614d328582614c1e565b9450614d3d836155ed565b925060208a01995050600181019050614d19565b50829750879550505050505092915050565b6000614d6e826155b4565b614d788185615643565b9350614d838361556e565b8060005b83811015614db4578151614d9b8882614c32565b9750614da6836155fa565b925050600181019050614d87565b5085935050505092915050565b6000614dcc826155bf565b614dd68185615654565b935083602082028501614de88561557e565b8060005b85811015614e245784840389528151614e058582614c4a565b9450614e1083615607565b925060208a01995050600181019050614dec565b50829750879550505050505092915050565b6000614e41826155ca565b614e4b8185615665565b935083602082028501614e5d8561558e565b8060005b85811015614e995784840389528151614e7a8582614c5e565b9450614e8583615614565b925060208a01995050600181019050614e61565b50829750879550505050505092915050565b614eb481615734565b82525050565b614ec381615734565b82525050565b614ed28161577d565b82525050565b6000614ee3826155d5565b614eed8185615676565b9350614efd81856020860161579e565b614f0681615939565b840191505092915050565b6000614f1e602483615687565b9150614f298261594a565b604082019050919050565b6000614f41602183615687565b9150614f4c82615999565b604082019050919050565b6000614f64602e83615687565b9150614f6f826159e8565b604082019050919050565b6000614f87603683615687565b9150614f9282615a37565b604082019050919050565b6000614faa600f83615687565b9150614fb582615a86565b602082019050919050565b6000614fcd601483615687565b9150614fd882615aaf565b602082019050919050565b6000614ff0603983615687565b9150614ffb82615ad8565b604082019050919050565b6000615013601883615687565b915061501e82615b27565b602082019050919050565b6000615036602083615687565b915061504182615b50565b602082019050919050565b60006060830160008301516150646000860182614c72565b506020830151848203602086015261507c8282614ed8565b91505060408301516150916040860182614eab565b508091505092915050565b6080820160008201516150b260008501826151d1565b5060208201516150c56020850182614c72565b5060408201516150d86040850182614eab565b5060608201516150eb6060850182614eab565b50505050565b600060c08301600083015161510960008601826151d1565b50602083015184820360208601526151218282614ed8565b9150506040830151848203604086015261513b8282614ed8565b91505060608301516151506060860182614ec9565b50608083015161516360808601826151d1565b5060a083015161517660a0860182614c72565b508091505092915050565b60006060830160008301516151996000860182614c72565b5060208301516151ac6020860182614ec9565b50604083015184820360408601526151c48282614ed8565b9150508091505092915050565b6151da81615773565b82525050565b6151e981615773565b82525050565b60006020820190506152046000830184614c81565b92915050565b600060608201905061521f6000830186614c81565b61522c60208301856151e0565b6152396040830184614eba565b949350505050565b6000602082019050818103600083015261525b8184614c90565b905092915050565b6000602082019050818103600083015261527d8184614cee565b905092915050565b6000602082019050818103600083015261529f8184614d63565b905092915050565b600060208201905081810360008301526152c18184614dc1565b905092915050565b600060208201905081810360008301526152e38184614e36565b905092915050565b60006020820190506153006000830184614eba565b92915050565b600060608201905061531b6000830186614eba565b6153286020830185614eba565b61533560408301846151e0565b949350505050565b60006040820190506153526000830185614eba565b61535f60208301846151e0565b9392505050565b6000602082019050818103600083015261537f81614f11565b9050919050565b6000602082019050818103600083015261539f81614f34565b9050919050565b600060208201905081810360008301526153bf81614f57565b9050919050565b600060208201905081810360008301526153df81614f7a565b9050919050565b600060208201905081810360008301526153ff81614f9d565b9050919050565b6000602082019050818103600083015261541f81614fc0565b9050919050565b6000602082019050818103600083015261543f81614fe3565b9050919050565b6000602082019050818103600083015261545f81615006565b9050919050565b6000602082019050818103600083015261547f81615029565b9050919050565b600060208201905061549b60008301846151e0565b92915050565b600080833560016020038436030381126154ba57600080fd5b80840192508235915067ffffffffffffffff8211156154d857600080fd5b6020830192506001820236038313156154f057600080fd5b509250929050565b6000615502615513565b905061550e8282615803565b919050565b6000604051905090565b600067ffffffffffffffff8211156155385761553761590a565b5b61554182615939565b9050602081019050919050565b6000819050602082019050919050565b6000819050602082019050919050565b6000819050602082019050919050565b6000819050602082019050919050565b6000819050602082019050919050565b600081519050919050565b600081519050919050565b600081519050919050565b600081519050919050565b600081519050919050565b600081519050919050565b6000602082019050919050565b6000602082019050919050565b6000602082019050919050565b6000602082019050919050565b6000602082019050919050565b600082825260208201905092915050565b600082825260208201905092915050565b600082825260208201905092915050565b600082825260208201905092915050565b600082825260208201905092915050565b600082825260208201905092915050565b600082825260208201905092915050565b60006156a382615773565b91506156ae83615773565b9250827fffffffffffffffffffffffffffffffffffffffffffffffffffffffffffffffff038211156156e3576156e261587d565b5b828201905092915050565b60006156f982615773565b915061570483615773565b9250828210156157175761571661587d565b5b828203905092915050565b600061572d82615753565b9050919050565b60008115159050919050565b600081905061574e82615b79565b919050565b600073ffffffffffffffffffffffffffffffffffffffff82169050919050565b6000819050919050565b600061578882615740565b9050919050565b82818337600083830152505050565b60005b838110156157bc5780820151818401526020810190506157a1565b838111156157cb576000848401525b50505050565b600060028204905060018216806157e957607f821691505b602082108114156157fd576157fc6158db565b5b50919050565b61580c82615939565b810181811067ffffffffffffffff8211171561582b5761582a61590a565b5b80604052505050565b600061583f82615773565b91507fffffffffffffffffffffffffffffffffffffffffffffffffffffffffffffffff8214156158725761587161587d565b5b600182019050919050565b7f4e487b7100000000000000000000000000000000000000000000000000000000600052601160045260246000fd5b7f4e487b7100000000000000000000000000000000000000000000000000000000600052602160045260246000fd5b7f4e487b7100000000000000000000000000000000000000000000000000000000600052602260045260246000fd5b7f4e487b7100000000000000000000000000000000000000000000000000000000600052604160045260246000fd5b6000601f19601f8301169050919050565b7f4f6e6c792063686169726d616e2063616e2063616c6c20746869732066756e6360008201527f74696f6e00000000000000000000000000000000000000000000000000000000602082015250565b7f4f6e6c79206f776e65722063616e2063616c6c20746869732066756e6374696f60008201527f6e00000000000000000000000000000000000000000000000000000000000000602082015250565b7f4f6e6c79206f776e657220616e642063686169726d616e2063616e2063616c6c60008201527f20746869732066756e6374696f6e000000000000000000000000000000000000602082015250565b7f4f6e6c79206f776e65722c2063686169726d616e20616e642061646d696e732060008201527f63616e2063616c6c20746869732066756e6374696f6e00000000000000000000602082015250565b7f496e76616c696420416464726573730000000000000000000000000000000000600082015250565b7f566f74696e6720686173206e6f7420656e646564000000000000000000000000600082015250565b7f4f6e6c792063686169726d616e2c2061646d696e7320616e642074656163686560008201527f72732063616e2063616c6c20746869732066756e6374696f6e00000000000000602082015250565b7f496e76616c696420696e70757420706172616d65746572730000000000000000600082015250565b7f65786365656473206e756d626572206f6620616c6c6f77656420696e70757473600082015250565b60048110615b8a57615b896158ac565b5b50565b615b9681615722565b8114615ba157600080fd5b50565b615bad81615773565b8114615bb857600080fd5b5056fea26469706673582212206bf5fa60db2b9ca3b40d4b50fd32ddd71ec90029f6680e7a3b0337202616d59864736f6c63430008040033",
  "linkReferences": {},
  "deployedLinkReferences": {}
}