{
  "_format": "hh-sol-artifact-1",
  "contractName": "ZuriPollToken",
  "sourceName": "contracts/ZuriPollToken.sol",
  "abi": [
    {
      "inputs": [
        {
          "internalType": "address",
          "name": "_owner",
          "type": "address"
        }
      ],
      "stateMutability": "nonpayable",
      "type": "constructor"
    },
    {
      "anonymous": false,
      "inputs": [
        {
          "indexed": true,
          "internalType": "address",
          "name": "owner",
          "type": "address"
        },
        {
          "indexed": true,
          "internalType": "address",
          "name": "spender",
          "type": "address"
        },
        {
          "indexed": false,
          "internalType": "uint256",
          "name": "value",
          "type": "uint256"
        }
      ],
      "name": "Approval",
      "type": "event"
    },
    {
      "anonymous": false,
      "inputs": [
        {
          "indexed": true,
          "internalType": "address",
          "name": "from",
          "type": "address"
        },
        {
          "indexed": true,
          "internalType": "address",
          "name": "to",
          "type": "address"
        },
        {
          "indexed": false,
          "internalType": "uint256",
          "name": "value",
          "type": "uint256"
        }
      ],
      "name": "Transfer",
      "type": "event"
    },
    {
      "inputs": [
        {
          "internalType": "address",
          "name": "owner",
          "type": "address"
        },
        {
          "internalType": "address",
          "name": "spender",
          "type": "address"
        }
      ],
      "name": "allowance",
      "outputs": [
        {
          "internalType": "uint256",
          "name": "",
          "type": "uint256"
        }
      ],
      "stateMutability": "view",
      "type": "function"
    },
    {
      "inputs": [
        {
          "internalType": "address",
          "name": "spender",
          "type": "address"
        },
        {
          "internalType": "uint256",
          "name": "amount",
          "type": "uint256"
        }
      ],
      "name": "approve",
      "outputs": [
        {
          "internalType": "bool",
          "name": "",
          "type": "bool"
        }
      ],
      "stateMutability": "nonpayable",
      "type": "function"
    },
    {
      "inputs": [
        {
          "internalType": "address",
          "name": "account",
          "type": "address"
        }
      ],
      "name": "balanceOf",
      "outputs": [
        {
          "internalType": "uint256",
          "name": "",
          "type": "uint256"
        }
      ],
      "stateMutability": "view",
      "type": "function"
    },
    {
      "inputs": [],
      "name": "buyToken",
      "outputs": [],
      "stateMutability": "payable",
      "type": "function"
    },
    {
      "inputs": [
        {
          "internalType": "uint256",
          "name": "rate",
          "type": "uint256"
        }
      ],
      "name": "changeTokensPerEther",
      "outputs": [],
      "stateMutability": "nonpayable",
      "type": "function"
    },
    {
      "inputs": [],
      "name": "decimals",
      "outputs": [
        {
          "internalType": "uint8",
          "name": "",
          "type": "uint8"
        }
      ],
      "stateMutability": "view",
      "type": "function"
    },
    {
      "inputs": [
        {
          "internalType": "address",
          "name": "spender",
          "type": "address"
        },
        {
          "internalType": "uint256",
          "name": "subtractedValue",
          "type": "uint256"
        }
      ],
      "name": "decreaseAllowance",
      "outputs": [
        {
          "internalType": "bool",
          "name": "",
          "type": "bool"
        }
      ],
      "stateMutability": "nonpayable",
      "type": "function"
    },
    {
      "inputs": [
        {
          "internalType": "address",
          "name": "spender",
          "type": "address"
        },
        {
          "internalType": "uint256",
          "name": "addedValue",
          "type": "uint256"
        }
      ],
      "name": "increaseAllowance",
      "outputs": [
        {
          "internalType": "bool",
          "name": "",
          "type": "bool"
        }
      ],
      "stateMutability": "nonpayable",
      "type": "function"
    },
    {
      "inputs": [],
      "name": "name",
      "outputs": [
        {
          "internalType": "string",
          "name": "",
          "type": "string"
        }
      ],
      "stateMutability": "view",
      "type": "function"
    },
    {
      "inputs": [],
      "name": "owner",
      "outputs": [
        {
          "internalType": "address",
          "name": "",
          "type": "address"
        }
      ],
      "stateMutability": "view",
      "type": "function"
    },
    {
      "inputs": [],
      "name": "symbol",
      "outputs": [
        {
          "internalType": "string",
          "name": "",
          "type": "string"
        }
      ],
      "stateMutability": "view",
      "type": "function"
    },
    {
      "inputs": [],
      "name": "tokensPerEther",
      "outputs": [
        {
          "internalType": "uint256",
          "name": "",
          "type": "uint256"
        }
      ],
      "stateMutability": "view",
      "type": "function"
    },
    {
      "inputs": [],
      "name": "totalSupply",
      "outputs": [
        {
          "internalType": "uint256",
          "name": "",
          "type": "uint256"
        }
      ],
      "stateMutability": "view",
      "type": "function"
    },
    {
      "inputs": [
        {
          "internalType": "address",
          "name": "to",
          "type": "address"
        },
        {
          "internalType": "uint256",
          "name": "amount",
          "type": "uint256"
        }
      ],
      "name": "transfer",
      "outputs": [
        {
          "internalType": "bool",
          "name": "",
          "type": "bool"
        }
      ],
      "stateMutability": "nonpayable",
      "type": "function"
    },
    {
      "inputs": [
        {
          "internalType": "address",
          "name": "from",
          "type": "address"
        },
        {
          "internalType": "address",
          "name": "to",
          "type": "address"
        },
        {
          "internalType": "uint256",
          "name": "amount",
          "type": "uint256"
        }
      ],
      "name": "transferFrom",
      "outputs": [
        {
          "internalType": "bool",
          "name": "",
          "type": "bool"
        }
      ],
      "stateMutability": "nonpayable",
      "type": "function"
    }
  ],
  "bytecode": "0x60806040526103e86006553480156200001757600080fd5b5060405162000f0538038062000f058339810160408190526200003a916200029b565b6040518060400160405280600d81526020016c2d3ab934a837b6362a37b5b2b760991b8152506040518060400160405280600381526020016216941560ea1b815250816003908051906020019062000094929190620001f5565b508051620000aa906004906020840190620001f5565b5050600580546001600160a01b0319166001600160a01b038416908117909155620000e49150620000de620f4240620000eb565b6200010d565b5062000463565b6000620000fb6012600a6200032f565b620001079083620003ee565b92915050565b6001600160a01b038216620001685760405162461bcd60e51b815260206004820152601f60248201527f45524332303a206d696e7420746f20746865207a65726f206164647265737300604482015260640160405180910390fd5b80600260008282546200017c9190620002cb565b90915550506001600160a01b03821660009081526020819052604081208054839290620001ab908490620002cb565b90915550506040518181526001600160a01b038316906000907fddf252ad1be2c89b69c2b068fc378daa952ba7f163c4a11628f55a4df523b3ef9060200160405180910390a35050565b828054620002039062000410565b90600052602060002090601f01602090048101928262000227576000855562000272565b82601f106200024257805160ff191683800117855562000272565b8280016001018555821562000272579182015b828111156200027257825182559160200191906001019062000255565b506200028092915062000284565b5090565b5b8082111562000280576000815560010162000285565b600060208284031215620002ad578081fd5b81516001600160a01b0381168114620002c4578182fd5b9392505050565b60008219821115620002e157620002e16200044d565b500190565b600181815b80851115620003275781600019048211156200030b576200030b6200044d565b808516156200031957918102915b93841c9390800290620002eb565b509250929050565b6000620002c460ff8416836000826200034b5750600162000107565b816200035a5750600062000107565b81600181146200037357600281146200037e576200039e565b600191505062000107565b60ff8411156200039257620003926200044d565b50506001821b62000107565b5060208310610133831016604e8410600b8410161715620003c3575081810a62000107565b620003cf8383620002e6565b8060001904821115620003e657620003e66200044d565b029392505050565b60008160001904831182151516156200040b576200040b6200044d565b500290565b600181811c908216806200042557607f821691505b602082108114156200044757634e487b7160e01b600052602260045260246000fd5b50919050565b634e487b7160e01b600052601160045260246000fd5b610a9280620004736000396000f3fe6080604052600436106100e85760003560e01c806370a082311161008a578063a482171911610059578063a482171914610288578063a9059cbb14610290578063dd62ed3e146102b0578063f856d605146102f657600080fd5b806370a08231146101e55780638da5cb5b1461021b57806395d89b4114610253578063a457c2d71461026857600080fd5b806323b872dd116100c657806323b872dd146101675780632c08eb0b14610187578063313ce567146101a957806339509351146101c557600080fd5b806306fdde03146100ed578063095ea7b31461011857806318160ddd14610148575b600080fd5b3480156100f957600080fd5b5061010261030c565b60405161010f9190610981565b60405180910390f35b34801561012457600080fd5b50610138610133366004610940565b61039e565b604051901515815260200161010f565b34801561015457600080fd5b506002545b60405190815260200161010f565b34801561017357600080fd5b50610138610182366004610905565b6103b6565b34801561019357600080fd5b506101a76101a2366004610969565b600655565b005b3480156101b557600080fd5b506040516012815260200161010f565b3480156101d157600080fd5b506101386101e0366004610940565b6103da565b3480156101f157600080fd5b506101596102003660046108b2565b6001600160a01b031660009081526020819052604090205490565b34801561022757600080fd5b5060055461023b906001600160a01b031681565b6040516001600160a01b03909116815260200161010f565b34801561025f57600080fd5b50610102610419565b34801561027457600080fd5b50610138610283366004610940565b610428565b6101a76104bf565b34801561029c57600080fd5b506101386102ab366004610940565b610504565b3480156102bc57600080fd5b506101596102cb3660046108d3565b6001600160a01b03918216600090815260016020908152604080832093909416825291909152205490565b34801561030257600080fd5b5061015960065481565b60606003805461031b90610a0b565b80601f016020809104026020016040519081016040528092919081815260200182805461034790610a0b565b80156103945780601f1061036957610100808354040283529160200191610394565b820191906000526020600020905b81548152906001019060200180831161037757829003601f168201915b5050505050905090565b6000336103ac818585610512565b5060019392505050565b6000336103c4858285610636565b6103cf8585856106c8565b506001949350505050565b3360008181526001602090815260408083206001600160a01b03871684529091528120549091906103ac90829086906104149087906109d4565b610512565b60606004805461031b90610a0b565b3360008181526001602090815260408083206001600160a01b0387168452909152812054909190838110156104b25760405162461bcd60e51b815260206004820152602560248201527f45524332303a2064656372656173656420616c6c6f77616e63652062656c6f77604482015264207a65726f60d81b60648201526084015b60405180910390fd5b6103cf8286868403610512565b6000600654346104cf91906109ec565b6005549091506104e9906001600160a01b03163383610512565b600554610500906001600160a01b031633836103b6565b5050565b6000336103ac8185856106c8565b6001600160a01b0383166105745760405162461bcd60e51b8152602060048201526024808201527f45524332303a20617070726f76652066726f6d20746865207a65726f206164646044820152637265737360e01b60648201526084016104a9565b6001600160a01b0382166105d55760405162461bcd60e51b815260206004820152602260248201527f45524332303a20617070726f766520746f20746865207a65726f206164647265604482015261737360f01b60648201526084016104a9565b6001600160a01b0383811660008181526001602090815260408083209487168084529482529182902085905590518481527f8c5be1e5ebec7d5bd14f71427d1e84f3dd0314c0f7b2291e5b200ac8c7c3b925910160405180910390a3505050565b6001600160a01b0383811660009081526001602090815260408083209386168352929052205460001981146106c257818110156106b55760405162461bcd60e51b815260206004820152601d60248201527f45524332303a20696e73756666696369656e7420616c6c6f77616e636500000060448201526064016104a9565b6106c28484848403610512565b50505050565b6001600160a01b03831661072c5760405162461bcd60e51b815260206004820152602560248201527f45524332303a207472616e736665722066726f6d20746865207a65726f206164604482015264647265737360d81b60648201526084016104a9565b6001600160a01b03821661078e5760405162461bcd60e51b815260206004820152602360248201527f45524332303a207472616e7366657220746f20746865207a65726f206164647260448201526265737360e81b60648201526084016104a9565b6001600160a01b038316600090815260208190526040902054818110156108065760405162461bcd60e51b815260206004820152602660248201527f45524332303a207472616e7366657220616d6f756e7420657863656564732062604482015265616c616e636560d01b60648201526084016104a9565b6001600160a01b0380851660009081526020819052604080822085850390559185168152908120805484929061083d9084906109d4565b92505081905550826001600160a01b0316846001600160a01b03167fddf252ad1be2c89b69c2b068fc378daa952ba7f163c4a11628f55a4df523b3ef8460405161088991815260200190565b60405180910390a36106c2565b80356001600160a01b03811681146108ad57600080fd5b919050565b6000602082840312156108c3578081fd5b6108cc82610896565b9392505050565b600080604083850312156108e5578081fd5b6108ee83610896565b91506108fc60208401610896565b90509250929050565b600080600060608486031215610919578081fd5b61092284610896565b925061093060208501610896565b9150604084013590509250925092565b60008060408385031215610952578182fd5b61095b83610896565b946020939093013593505050565b60006020828403121561097a578081fd5b5035919050565b6000602080835283518082850152825b818110156109ad57858101830151858201604001528201610991565b818111156109be5783604083870101525b50601f01601f1916929092016040019392505050565b600082198211156109e7576109e7610a46565b500190565b6000816000190483118215151615610a0657610a06610a46565b500290565b600181811c90821680610a1f57607f821691505b60208210811415610a4057634e487b7160e01b600052602260045260246000fd5b50919050565b634e487b7160e01b600052601160045260246000fdfea2646970667358221220db73cb223e4f54cb9f47551e604c997d087620039057a3547acf55b39433b27f64736f6c63430008040033",
  "linkReferences": {},
  "deployedLinkReferences": {}
}