{
  "_format": "hh-sol-artifact-1",
  "contractName": "ZuriPoll",
  "sourceName": "contracts/ZuriPoll.sol",
  "abi": [
    {
      "inputs": [],
      "stateMutability": "nonpayable",
      "type": "constructor"
    },
    {
      "anonymous": false,
      "inputs": [
        {
          "indexed": false,
          "internalType": "bool",
          "name": "isStakeholder",
          "type": "bool"
        },
        {
          "indexed": false,
          "internalType": "bool",
          "name": "chairmanExists",
          "type": "bool"
        },
        {
          "indexed": false,
          "internalType": "uint256",
          "name": "timeChanged",
          "type": "uint256"
        }
      ],
      "name": "ChairmanChanged",
      "type": "event"
    },
    {
      "anonymous": false,
      "inputs": [
        {
          "indexed": false,
          "internalType": "address",
          "name": "addedBy",
          "type": "address"
        },
        {
          "indexed": false,
          "internalType": "uint256",
          "name": "timeAdded",
          "type": "uint256"
        },
        {
          "indexed": false,
          "internalType": "bool",
          "name": "added",
          "type": "bool"
        }
      ],
      "name": "StakeHolderAdded",
      "type": "event"
    },
    {
      "anonymous": false,
      "inputs": [
        {
          "indexed": false,
          "internalType": "address",
          "name": "removedBy",
          "type": "address"
        },
        {
          "indexed": false,
          "internalType": "uint256",
          "name": "timeRemoved",
          "type": "uint256"
        },
        {
          "indexed": false,
          "internalType": "bool",
          "name": "removed",
          "type": "bool"
        }
      ],
      "name": "StakeHolderRemoved",
      "type": "event"
    },
    {
      "inputs": [
        {
          "internalType": "address",
          "name": "_chairman",
          "type": "address"
        },
        {
          "internalType": "string",
          "name": "_name",
          "type": "string"
        }
      ],
      "name": "addChairman",
      "outputs": [],
      "stateMutability": "nonpayable",
      "type": "function"
    },
    {
      "inputs": [
        {
          "internalType": "address",
          "name": "_stakeholder",
          "type": "address"
        },
        {
          "internalType": "uint256",
          "name": "_role",
          "type": "uint256"
        },
        {
          "internalType": "string",
          "name": "_name",
          "type": "string"
        }
      ],
      "name": "addStakeholder",
      "outputs": [],
      "stateMutability": "nonpayable",
      "type": "function"
    },
    {
      "inputs": [
        {
          "internalType": "string[]",
          "name": "_positions",
          "type": "string[]"
        },
        {
          "internalType": "string[]",
          "name": "_descriptions",
          "type": "string[]"
        },
        {
          "internalType": "uint256[]",
          "name": "_roleLimits",
          "type": "uint256[]"
        }
      ],
      "name": "createsElection",
      "outputs": [],
      "stateMutability": "nonpayable",
      "type": "function"
    },
    {
      "inputs": [
        {
          "internalType": "uint256",
          "name": "_electionId",
          "type": "uint256"
        },
        {
          "internalType": "uint256",
          "name": "_pollId",
          "type": "uint256"
        },
        {
          "internalType": "string",
          "name": "_manifesto",
          "type": "string"
        }
      ],
      "name": "declareInterest",
      "outputs": [],
      "stateMutability": "nonpayable",
      "type": "function"
    },
    {
      "inputs": [
        {
          "internalType": "uint256",
          "name": "_id",
          "type": "uint256"
        }
      ],
      "name": "disableVoting",
      "outputs": [],
      "stateMutability": "nonpayable",
      "type": "function"
    },
    {
      "inputs": [
        {
          "internalType": "uint256",
          "name": "_id",
          "type": "uint256"
        }
      ],
      "name": "enableVoting",
      "outputs": [],
      "stateMutability": "nonpayable",
      "type": "function"
    },
    {
      "inputs": [
        {
          "internalType": "uint256",
          "name": "_id",
          "type": "uint256"
        }
      ],
      "name": "getCandidates",
      "outputs": [
        {
          "components": [
            {
              "internalType": "address",
              "name": "id",
              "type": "address"
            },
            {
              "internalType": "string",
              "name": "manifesto",
              "type": "string"
            },
            {
              "internalType": "bool",
              "name": "disqualified",
              "type": "bool"
            }
          ],
          "internalType": "struct ZuriPoll.Candidate[]",
          "name": "",
          "type": "tuple[]"
        }
      ],
      "stateMutability": "view",
      "type": "function"
    },
    {
      "inputs": [],
      "name": "getChairman",
      "outputs": [
        {
          "internalType": "bool",
          "name": "",
          "type": "bool"
        },
        {
          "internalType": "uint256",
          "name": "",
          "type": "uint256"
        }
      ],
      "stateMutability": "view",
      "type": "function"
    },
    {
      "inputs": [],
      "name": "getElections",
      "outputs": [
        {
          "components": [
            {
              "internalType": "uint256",
              "name": "id",
              "type": "uint256"
            },
            {
              "internalType": "address",
              "name": "creator",
              "type": "address"
            },
            {
              "internalType": "bool",
              "name": "enabled",
              "type": "bool"
            },
            {
              "internalType": "bool",
              "name": "show",
              "type": "bool"
            },
            {
              "internalType": "uint256",
              "name": "timeCreated",
              "type": "uint256"
            }
          ],
          "internalType": "struct ZuriPoll.Election[]",
          "name": "",
          "type": "tuple[]"
        }
      ],
      "stateMutability": "view",
      "type": "function"
    },
    {
      "inputs": [
        {
          "internalType": "uint256",
          "name": "_id",
          "type": "uint256"
        }
      ],
      "name": "getPolls",
      "outputs": [
        {
          "components": [
            {
              "internalType": "uint256",
              "name": "id",
              "type": "uint256"
            },
            {
              "internalType": "string",
              "name": "position",
              "type": "string"
            },
            {
              "internalType": "string",
              "name": "description",
              "type": "string"
            },
            {
              "internalType": "enum ZuriPoll.Role",
              "name": "roleLimit",
              "type": "uint8"
            },
            {
              "internalType": "uint256",
              "name": "totalVotes",
              "type": "uint256"
            },
            {
              "internalType": "address",
              "name": "winner",
              "type": "address"
            }
          ],
          "internalType": "struct ZuriPoll.Poll[]",
          "name": "",
          "type": "tuple[]"
        }
      ],
      "stateMutability": "view",
      "type": "function"
    },
    {
      "inputs": [],
      "name": "getStakeholders",
      "outputs": [
        {
          "components": [
            {
              "internalType": "address",
              "name": "id",
              "type": "address"
            },
            {
              "internalType": "enum ZuriPoll.Role",
              "name": "role",
              "type": "uint8"
            },
            {
              "internalType": "string",
              "name": "name",
              "type": "string"
            }
          ],
          "internalType": "struct ZuriPoll.Stakeholder[]",
          "name": "",
          "type": "tuple[]"
        }
      ],
      "stateMutability": "view",
      "type": "function"
    },
    {
      "inputs": [
        {
          "internalType": "address",
          "name": "_id",
          "type": "address"
        }
      ],
      "name": "getVoters",
      "outputs": [
        {
          "internalType": "address[]",
          "name": "",
          "type": "address[]"
        }
      ],
      "stateMutability": "view",
      "type": "function"
    },
    {
      "inputs": [
        {
          "internalType": "address",
          "name": "_stakeholder",
          "type": "address"
        }
      ],
      "name": "isAdmin",
      "outputs": [
        {
          "internalType": "bool",
          "name": "",
          "type": "bool"
        }
      ],
      "stateMutability": "view",
      "type": "function"
    },
    {
      "inputs": [
        {
          "internalType": "address",
          "name": "_stakeholder",
          "type": "address"
        }
      ],
      "name": "isChairman",
      "outputs": [
        {
          "internalType": "bool",
          "name": "",
          "type": "bool"
        }
      ],
      "stateMutability": "view",
      "type": "function"
    },
    {
      "inputs": [
        {
          "internalType": "address",
          "name": "_stakeholder",
          "type": "address"
        }
      ],
      "name": "isStakeHolder",
      "outputs": [
        {
          "internalType": "bool",
          "name": "",
          "type": "bool"
        },
        {
          "internalType": "uint256",
          "name": "",
          "type": "uint256"
        }
      ],
      "stateMutability": "view",
      "type": "function"
    },
    {
      "inputs": [
        {
          "internalType": "address",
          "name": "_stakeholder",
          "type": "address"
        }
      ],
      "name": "isTeacher",
      "outputs": [
        {
          "internalType": "bool",
          "name": "",
          "type": "bool"
        }
      ],
      "stateMutability": "view",
      "type": "function"
    },
    {
      "inputs": [],
      "name": "owner",
      "outputs": [
        {
          "internalType": "address",
          "name": "",
          "type": "address"
        }
      ],
      "stateMutability": "view",
      "type": "function"
    },
    {
      "inputs": [
        {
          "internalType": "address",
          "name": "_stakeholder",
          "type": "address"
        }
      ],
      "name": "removeStakeHolder",
      "outputs": [
        {
          "internalType": "bool",
          "name": "",
          "type": "bool"
        }
      ],
      "stateMutability": "nonpayable",
      "type": "function"
    },
    {
      "inputs": [
        {
          "internalType": "address",
          "name": "_stakeholder",
          "type": "address"
        }
      ],
      "name": "removeStakeholder",
      "outputs": [],
      "stateMutability": "nonpayable",
      "type": "function"
    },
    {
      "inputs": [
        {
          "internalType": "uint256",
          "name": "_id",
          "type": "uint256"
        }
      ],
      "name": "showResult",
      "outputs": [],
      "stateMutability": "nonpayable",
      "type": "function"
    },
    {
      "inputs": [],
      "name": "totalStakeHolders",
      "outputs": [
        {
          "internalType": "uint256",
          "name": "",
          "type": "uint256"
        }
      ],
      "stateMutability": "view",
      "type": "function"
    },
    {
      "inputs": [
        {
          "internalType": "address",
          "name": "_chairman",
          "type": "address"
        }
      ],
      "name": "transferChairmanship",
      "outputs": [],
      "stateMutability": "nonpayable",
      "type": "function"
    },
    {
      "inputs": [
        {
          "internalType": "uint256",
          "name": "_electionId",
          "type": "uint256"
        },
        {
          "internalType": "uint256",
          "name": "_pollId",
          "type": "uint256"
        },
        {
          "internalType": "address",
          "name": "_candidate",
          "type": "address"
        }
      ],
      "name": "vote",
      "outputs": [],
      "stateMutability": "nonpayable",
      "type": "function"
    }
  ],
  "bytecode": "0x60806040526000600355600060045534801561001a57600080fd5b50600080546001600160a01b031916331790556138d08061003c6000396000f3fe608060405234801561001057600080fd5b506004361061014d5760003560e01c80638da5cb5b116100c3578063bd46abba1161007c578063bd46abba146102f9578063ce2dee051461030c578063ce947bd21461032c578063d64515571461033f578063e4c9050114610347578063ed6ad2f81461035857600080fd5b80638da5cb5b1461026b5780639f3a7f5214610296578063adf824c6146102ab578063aec37eb3146102be578063b6992247146102d1578063bcb0c2d7146102e657600080fd5b806350d915831161011557806350d91583146101e057806363512159146101f5578063690742ce1461021f5780636d882eaf14610232578063792882aa1461024557806379fb86711461025857600080fd5b806324d7806c146101525780632d15cc041461017a578063382872591461019a5780633e39a7a5146101ad57806345f412b0146101cd575b600080fd5b6101656101603660046131d7565b61036b565b60405190151581526020015b60405180910390f35b61018d6101883660046131d7565b610420565b604051610171919061345c565b6101656101a83660046131d7565b610496565b6101c06101bb366004613328565b610520565b60405161017191906134a9565b6101656101db3660046131d7565b61064c565b6101f36101ee366004613340565b6107c0565b005b6102086102033660046131d7565b610c87565b604080519215158352602083019190915201610171565b6101f361022d366004613374565b610d2f565b6101f36102403660046131d7565b6111a4565b6101f3610253366004613292565b61159a565b6101f361026636600461323d565b611b22565b60005461027e906001600160a01b031681565b6040516001600160a01b039091168152602001610171565b61029e611bfc565b6040516101719190613536565b6101f36102b9366004613328565b611ca0565b6101656102cc3660046131d7565b611d31565b6102d9611d79565b6040516101719190613662565b6101f36102f43660046131d7565b611ec5565b6101f3610307366004613328565b611f78565b61031f61031a366004613328565b611fdb565b60405161017191906135b1565b6101f361033a3660046131f1565b6121e1565b6102086122c3565b600154604051908152602001610171565b6101f3610366366004613328565b61235d565b6000816001600160a01b03811661039d5760405162461bcd60e51b815260040161039490613781565b60405180910390fd5b6000806103a985610c87565b91509150818015610415575060015b600182815481106103d957634e487b7160e01b600052603260045260246000fd5b6000918252602090912060029091020154600160a01b900460ff16600381111561041357634e487b7160e01b600052602160045260246000fd5b145b935050505b50919050565b6001600160a01b03811660009081526007602090815260409182902080548351818402810184019094528084526060939283018282801561048a57602002820191906000526020600020905b81546001600160a01b0316815260019091019060200180831161046c575b50505050509050919050565b6000816001600160a01b0381166104bf5760405162461bcd60e51b815260040161039490613781565b6000806104ca6122c3565b915091508180156104155750600181815481106104f757634e487b7160e01b600052603260045260246000fd5b60009182526020909120600290910201546001600160a01b038681169116149350505050919050565b606060066000838152602001908152602001600020805480602002602001604051908101604052809291908181526020016000905b8282101561064157600084815260209081902060408051606081019091526003850290910180546001600160a01b03168252600181018054929391929184019161059e9061381e565b80601f01602080910402602001604051908101604052809291908181526020018280546105ca9061381e565b80156106175780601f106105ec57610100808354040283529160200191610617565b820191906000526020600020905b8154815290600101906020018083116105fa57829003601f168201915b50505091835250506002919091015460ff1615156020918201529082526001929092019101610555565b505050509050919050565b600080600061065a84610c87565b9150915081156107b65760018054610673908290613807565b8154811061069157634e487b7160e01b600052603260045260246000fd5b9060005260206000209060020201600182815481106106c057634e487b7160e01b600052603260045260246000fd5b60009182526020909120825460029092020180546001600160a01b031981166001600160a01b0390931692831782558354919260ff600160a01b93849004169284926001600160a81b0319169091179083600381111561073057634e487b7160e01b600052602160045260246000fd5b021790555060018201816001019080546107499061381e565b610754929190612d22565b50905050600180548061077757634e487b7160e01b600052603160045260246000fd5b60008281526020812060026000199093019283020180546001600160a81b0319168155906107a86001830182612dad565b505090555060019392505050565b5060009392505050565b60006107cb846129f3565b5090508015610c81576000806109e88560056000898152602001908152602001600020805480602002602001604051908101604052809291908181526020016000905b828210156109df57838290600052602060002090600602016040518060c00160405290816000820154815260200160018201805461084b9061381e565b80601f01602080910402602001604051908101604052809291908181526020018280546108779061381e565b80156108c45780601f10610899576101008083540402835291602001916108c4565b820191906000526020600020905b8154815290600101906020018083116108a757829003601f168201915b505050505081526020016002820180546108dd9061381e565b80601f01602080910402602001604051908101604052809291908181526020018280546109099061381e565b80156109565780601f1061092b57610100808354040283529160200191610956565b820191906000526020600020905b81548152906001019060200180831161093957829003601f168201915b505050918352505060038281015460209092019160ff169081111561098b57634e487b7160e01b600052602160045260246000fd5b60038111156109aa57634e487b7160e01b600052602160045260246000fd5b815260048201546020808301919091526005909201546001600160a01b0316604090910152908252600192909201910161080e565b50505050612a66565b915091508115610c7e576000868152600560205260408120805483908110610a2057634e487b7160e01b600052603260045260246000fd5b6000918252602080832060069283020180548452918152604080842080548251818502810185019093528083529395508493610b55938b93929190869084015b82821015610b4c57600084815260209081902060408051606081019091526003850290910180546001600160a01b031682526001810180549293919291840191610aa99061381e565b80601f0160208091040260200160405190810160405280929190818152602001828054610ad59061381e565b8015610b225780601f10610af757610100808354040283529160200191610b22565b820191906000526020600020905b815481529060010190602001808311610b0557829003601f168201915b50505091835250506002919091015460ff1615156020918201529082526001929092019101610a60565b50505050612ad5565b915091508115610c7a5782546000908152600660205260408120805483908110610b8f57634e487b7160e01b600052603260045260246000fd5b60009182526020808320600390920290910180546001600160a01b031683526007825260408084208054825181860281018601909352808352929550610c1593339390830182828015610c0b57602002820191906000526020600020905b81546001600160a01b03168152600190910190602001808311610bed575b5050505050612b7b565b50905080610c775781546001600160a01b039081166000908152600760209081526040808320805460018101825581855292842090920180546001600160a01b03191633179055855490931682529190208154610c7491908390612dea565b50505b50505b5050505b50505b50505050565b600080826001600160a01b038116610cb15760405162461bcd60e51b815260040161039490613781565b60005b600154811015610d205760018181548110610cdf57634e487b7160e01b600052603260045260246000fd5b60009182526020909120600290910201546001600160a01b0386811691161415610d0e57600193509150610d29565b80610d1881613853565b915050610cb4565b50600080925092505b50915091565b6000610d3a856129f3565b509050801561119d57600085815260056020908152604080832080548251818502810185019093528083529093928392610f49928a92879190869084015b828210156109df57838290600052602060002090600602016040518060c001604052908160008201548152602001600182018054610db59061381e565b80601f0160208091040260200160405190810160405280929190818152602001828054610de19061381e565b8015610e2e5780601f10610e0357610100808354040283529160200191610e2e565b820191906000526020600020905b815481529060010190602001808311610e1157829003601f168201915b50505050508152602001600282018054610e479061381e565b80601f0160208091040260200160405190810160405280929190818152602001828054610e739061381e565b8015610ec05780601f10610e9557610100808354040283529160200191610ec0565b820191906000526020600020905b815481529060010190602001808311610ea357829003601f168201915b505050918352505060038281015460209092019160ff1690811115610ef557634e487b7160e01b600052602160045260246000fd5b6003811115610f1457634e487b7160e01b600052602160045260246000fd5b815260048201546020808301919091526005909201546001600160a01b03166040909101529082526001929092019101610d78565b915091508115611199576000838281548110610f7557634e487b7160e01b600052603260045260246000fd5b60009182526020808320600692830201805484529181526040808420805482518185028101850190935280835293955061109c933393869084015b82821015610b4c57600084815260209081902060408051606081019091526003850290910180546001600160a01b031682526001810180549293919291840191610ff99061381e565b80601f01602080910402602001604051908101604052809291908181526020018280546110259061381e565b80156110725780601f1061104757610100808354040283529160200191611072565b820191906000526020600020905b81548152906001019060200180831161105557829003601f168201915b50505091835250506002919091015460ff1615156020918201529082526001929092019101610fb0565b509050806111965760006040518060600160405280336001600160a01b031681526020018a8a8080601f0160208091040260200160405190810160405280939291908181526020018383808284376000920182905250938552505050602091820181905285548152600682526040812080546001808201835582845292849020855160039092020180546001600160a01b0319166001600160a01b0390921691909117815584840151805195965091948694919361115f93908501920190612e29565b50604091820151600291909101805460ff1916911515919091179055845460009081526006602052208154610c7491908390612e9d565b50505b5050505b5050505050565b60006111af33610496565b6000549091506001600160a01b03163314806111c85750805b61122b5760405162461bcd60e51b815260206004820152602e60248201527f4f6e6c79206f776e657220616e642063686169726d616e2063616e2063616c6c60448201526d103a3434b990333ab731ba34b7b760911b6064820152608401610394565b816001600160a01b0381166112525760405162461bcd60e51b815260040161039490613781565b60008061125e85610c87565b9150915060008061126d6122c3565b9150915083801561127b5750815b80156112e257506002600182815481106112a557634e487b7160e01b600052603260045260246000fd5b6000918252602090912060029091020154600160a01b900460ff1660038111156112df57634e487b7160e01b600052602160045260246000fd5b14155b8015611349575060036001828154811061130c57634e487b7160e01b600052603260045260246000fd5b6000918252602090912060029091020154600160a01b900460ff16600381111561134657634e487b7160e01b600052602160045260246000fd5b14155b156115915760006001848154811061137157634e487b7160e01b600052603260045260246000fd5b60009182526020822060029190910201805460ff60a01b191681556001805491935090849081106113b257634e487b7160e01b600052603260045260246000fd5b60009182526020909120600290910201805460ff60a01b1916600160a01b178155600180549192508391879081106113fa57634e487b7160e01b600052603260045260246000fd5b60009182526020909120825460029092020180546001600160a01b031981166001600160a01b0390931692831782558354919260ff600160a01b93849004169284926001600160a81b0319169091179083600381111561146a57634e487b7160e01b600052602160045260246000fd5b021790555060018201816001019080546114839061381e565b61148e929190612d22565b5090505080600184815481106114b457634e487b7160e01b600052603260045260246000fd5b60009182526020909120825460029092020180546001600160a01b031981166001600160a01b0390931692831782558354919260ff600160a01b93849004169284926001600160a81b0319169091179083600381111561152457634e487b7160e01b600052602160045260246000fd5b0217905550600182018160010190805461153d9061381e565b611548929190612d22565b50506040805188151581528615156020820152428183015290517f9bb673a781cc5554a0a36cf22e9e98dd655f503a053eac18d7f89c047f17800f92509081900360600190a150505b50505050505050565b60006115a533610496565b905060006115b23361036b565b905060006115bf33611d31565b905082806115ca5750815b806115d25750805b6116445760405162461bcd60e51b815260206004820152603960248201527f4f6e6c792063686169726d616e2c2061646d696e7320616e642074656163686560448201527f72732063616e2063616c6c20746869732066756e6374696f6e000000000000006064820152608401610394565b87861461168e5760405162461bcd60e51b8152602060048201526018602482015277496e76616c696420696e70757420706172616d657465727360401b6044820152606401610394565b8784146116d85760405162461bcd60e51b8152602060048201526018602482015277496e76616c696420696e70757420706172616d657465727360401b6044820152606401610394565b60148811156117295760405162461bcd60e51b815260206004820181905260248201527f65786365656473206e756d626572206f6620616c6c6f77656420696e707574736044820152606401610394565b6003546000908152600560205260408120905b898110156119d257600087878381811061176657634e487b7160e01b600052603260045260246000fd5b905060200201356001141561177d575060016117b8565b87878381811061179d57634e487b7160e01b600052603260045260246000fd5b90506020020135600214156117b4575060026117b8565b5060035b60006040518060c0016040528060045481526020018e8e868181106117ed57634e487b7160e01b600052603260045260246000fd5b90506020028101906117ff91906137aa565b8080601f0160208091040260200160405190810160405280939291908181526020018383808284376000920191909152505050908252506020018c8c8681811061185957634e487b7160e01b600052603260045260246000fd5b905060200281019061186b91906137aa565b8080601f0160208091040260200160405190810160405280939291908181526020018383808284376000920191909152505050908252506020018360038111156118c557634e487b7160e01b600052602160045260246000fd5b81526000602080830182905260409092018190528654600181810189558883529183902084516006909202019081558383015180519495508594919361191093850192910190612e29565b506040820151805161192c916002840191602090910190612e29565b5060608201518160030160006101000a81548160ff0219169083600381111561196557634e487b7160e01b600052602160045260246000fd5b02179055506080820151816004015560a08201518160050160006101000a8154816001600160a01b0302191690836001600160a01b0316021790555050506001600460008282546119b691906137ef565b92505081905550505080806119ca90613853565b91505061173c565b5060006119e06003546129f3565b50905080610c77576040805160a08101825260038054825233602080840191825260008486018181526060860182815242608088019081526002805460018101825590855297519787027f405787fa12a823e0f2b7631cc41b3ba8828b3321ca811111fa75cd3aa3bb5ace81019890985594517f405787fa12a823e0f2b7631cc41b3ba8828b3321ca811111fa75cd3aa3bb5acf88018054935192511515600160a81b0260ff60a81b19931515600160a01b026001600160a81b03199095166001600160a01b039390931692909217939093179190911617905591517f405787fa12a823e0f2b7631cc41b3ba8828b3321ca811111fa75cd3aa3bb5ad090940193909355905481526005909152208254611afc91908490612f47565b50600160036000828254611b1091906137ef565b90915550505050505050505050505050565b6000611b2d33610496565b90506000611b3a3361036b565b6000549091506001600160a01b0316331480611b535750815b80611b5b5750805b611b775760405162461bcd60e51b81526004016103949061372b565b846001600160a01b038116611b9e5760405162461bcd60e51b815260040161039490613781565b6000611bab878787612be8565b9050801561159157604080513381524260208201528215158183015290517f1f366cb51d6c322ee8b739141a2ec9faf2d9da5aa6b97d6584d9144655b0aaef9181900360600190a150505050505050565b60606002805480602002602001604051908101604052809291908181526020016000905b82821015611c975760008481526020908190206040805160a08101825260038602909201805483526001808201546001600160a01b0381168587015260ff600160a01b82048116151594860194909452600160a81b9004909216151560608401526002015460808301529083529092019101611c20565b50505050905090565b6000611cab33610496565b905080611cca5760405162461bcd60e51b8152600401610394906136e7565b600080611cd6846129f3565b915091508115610c8157600160028281548110611d0357634e487b7160e01b600052603260045260246000fd5b906000526020600020906003020160010160146101000a81548160ff02191690831515021790555050505050565b6000816001600160a01b038116611d5a5760405162461bcd60e51b815260040161039490613781565b600080611d6685610c87565b91509150818015610415575060026103b8565b60606001805480602002602001604051908101604052809291908181526020016000905b82821015611c9757600084815260209081902060408051606081019091526002850290910180546001600160a01b03811683529192909190830190600160a01b900460ff166003811115611e0157634e487b7160e01b600052602160045260246000fd5b6003811115611e2057634e487b7160e01b600052602160045260246000fd5b8152602001600182018054611e349061381e565b80601f0160208091040260200160405190810160405280929190818152602001828054611e609061381e565b8015611ead5780601f10611e8257610100808354040283529160200191611ead565b820191906000526020600020905b815481529060010190602001808311611e9057829003601f168201915b50505050508152505081526020019060010190611d9d565b6000611ed033610496565b90506000611edd3361036b565b6000549091506001600160a01b0316331480611ef65750815b80611efe5750805b611f1a5760405162461bcd60e51b81526004016103949061372b565b6000611f258461064c565b90508015610c815760408051338152426020820152821515918101919091527fc2584311840f96f00503c7cd32c4c54dbec1eaa507d4179fd5b74a3c09a798b3906060015b60405180910390a150505050565b6000611f8333610496565b905080611fa25760405162461bcd60e51b8152600401610394906136e7565b600080611fae846129f3565b915091508115610c8157600060028281548110611d0357634e487b7160e01b600052603260045260246000fd5b606060056000838152602001908152602001600020805480602002602001604051908101604052809291908181526020016000905b8282101561064157838290600052602060002090600602016040518060c00160405290816000820154815260200160018201805461204d9061381e565b80601f01602080910402602001604051908101604052809291908181526020018280546120799061381e565b80156120c65780601f1061209b576101008083540402835291602001916120c6565b820191906000526020600020905b8154815290600101906020018083116120a957829003601f168201915b505050505081526020016002820180546120df9061381e565b80601f016020809104026020016040519081016040528092919081815260200182805461210b9061381e565b80156121585780601f1061212d57610100808354040283529160200191612158565b820191906000526020600020905b81548152906001019060200180831161213b57829003601f168201915b505050918352505060038281015460209092019160ff169081111561218d57634e487b7160e01b600052602160045260246000fd5b60038111156121ac57634e487b7160e01b600052602160045260246000fd5b815260048201546020808301919091526005909201546001600160a01b03166040909101529082526001929092019101612010565b6000546001600160a01b031633146122455760405162461bcd60e51b815260206004820152602160248201527f4f6e6c79206f776e65722063616e2063616c6c20746869732066756e6374696f6044820152603760f91b6064820152608401610394565b816001600160a01b03811661226c5760405162461bcd60e51b815260040161039490613781565b600061227a84600085612be8565b90508015610c815760408051338152426020820152821515918101919091527f1f366cb51d6c322ee8b739141a2ec9faf2d9da5aa6b97d6584d9144655b0aaef90606001611f6a565b60008060005b600154811015612352576000600182815481106122f657634e487b7160e01b600052603260045260246000fd5b6000918252602090912060029091020154600160a01b900460ff16600381111561233057634e487b7160e01b600052602160045260246000fd5b1415612340576001939092509050565b8061234a81613853565b9150506122c9565b506000928392509050565b600061236833610496565b905060006123753361036b565b6000549091506001600160a01b031633148061238e5750815b806123965750805b6123b25760405162461bcd60e51b81526004016103949061372b565b6000806123be856129f3565b91509150811561119d576000600282815481106123eb57634e487b7160e01b600052603260045260246000fd5b60009182526020918290206040805160a08101825260039093029091018054835260018101546001600160a01b0381169484019490945260ff600160a01b8504811615801593850193909352600160a81b90940490931615156060830152600290920154608082015291506124995760405162461bcd60e51b8152602060048201526014602482015273159bdd1a5b99c81a185cc81b9bdd08195b99195960621b6044820152606401610394565b600086815260056020908152604080832080548251818502810185019093528083529192909190849084015b8282101561269657838290600052602060002090600602016040518060c0016040529081600082015481526020016001820180546125029061381e565b80601f016020809104026020016040519081016040528092919081815260200182805461252e9061381e565b801561257b5780601f106125505761010080835404028352916020019161257b565b820191906000526020600020905b81548152906001019060200180831161255e57829003601f168201915b505050505081526020016002820180546125949061381e565b80601f01602080910402602001604051908101604052809291908181526020018280546125c09061381e565b801561260d5780601f106125e25761010080835404028352916020019161260d565b820191906000526020600020905b8154815290600101906020018083116125f057829003601f168201915b505050918352505060038281015460209092019160ff169081111561264257634e487b7160e01b600052602160045260246000fd5b600381111561266157634e487b7160e01b600052602160045260246000fd5b815260048201546020808301919091526005909201546001600160a01b031660409091015290825260019290920191016124c5565b50505050905060005b815181101561299e5760008282815181106126ca57634e487b7160e01b600052603260045260246000fd5b6020026020010151905060006006600083600001518152602001908152602001600020805480602002602001604051908101604052809291908181526020016000905b828210156127f957600084815260209081902060408051606081019091526003850290910180546001600160a01b0316825260018101805492939192918401916127569061381e565b80601f01602080910402602001604051908101604052809291908181526020018280546127829061381e565b80156127cf5780601f106127a4576101008083540402835291602001916127cf565b820191906000526020600020905b8154815290600101906020018083116127b257829003601f168201915b50505091835250506002919091015460ff161515602091820152908252600192909201910161270d565b5050505090506000805b825181101561295b57816007600085848151811061283157634e487b7160e01b600052603260045260246000fd5b602090810291909101810151516001600160a01b031682528101919091526040016000205411156128f1576007600084838151811061288057634e487b7160e01b600052603260045260246000fd5b6020026020010151600001516001600160a01b03166001600160a01b031681526020019081526020016000208054905091508281815181106128d257634e487b7160e01b600052603260045260246000fd5b6020908102919091010151516001600160a01b031660a0850152612949565b816007600085848151811061291657634e487b7160e01b600052603260045260246000fd5b602090810291909101810151516001600160a01b0316825281019190915260400160002054141561294957600060a08501525b8061295381613853565b915050612803565b508285858151811061297d57634e487b7160e01b600052603260045260246000fd5b6020026020010181905250505050808061299690613853565b91505061269f565b506001600284815481106129c257634e487b7160e01b600052603260045260246000fd5b906000526020600020906003020160010160156101000a81548160ff02191690831515021790555050505050505050565b60008060005b600254811015612a5a5760028181548110612a2457634e487b7160e01b600052603260045260246000fd5b906000526020600020906003020160000154841415612a4857600194909350915050565b80612a5281613853565b9150506129f9565b50600093849350915050565b60008060005b8351811015612ac557838181518110612a9557634e487b7160e01b600052603260045260246000fd5b602002602001015160000151851415612ab357600192509050612ace565b80612abd81613853565b915050612a6c565b50600080915091505b9250929050565b60008060005b8351811015612ac557838181518110612b0457634e487b7160e01b600052603260045260246000fd5b6020026020010151600001516001600160a01b0316856001600160a01b0316148015612b595750838181518110612b4b57634e487b7160e01b600052603260045260246000fd5b602002602001015160400151155b15612b6957600192509050612ace565b80612b7381613853565b915050612adb565b60008060005b8351811015612ac557838181518110612baa57634e487b7160e01b600052603260045260246000fd5b60200260200101516001600160a01b0316856001600160a01b03161415612bd657600192509050612ace565b80612be081613853565b915050612b81565b600080612bf485610c87565b50905080612d1557600084612c0b57506000612c31565b8460011415612c1c57506001612c31565b8460021415612c2d57506002612c31565b5060035b60016040518060600160405280886001600160a01b03168152602001836003811115612c6d57634e487b7160e01b600052602160045260246000fd5b815260209081018790528254600181018455600093845292819020825160029094020180546001600160a01b039094166001600160a01b031985168117825591830151929390929183916001600160a81b03191617600160a01b836003811115612ce757634e487b7160e01b600052602160045260246000fd5b021790555060408201518051612d07916001840191602090910190612e29565b505050600192505050612d1b565b60009150505b9392505050565b828054612d2e9061381e565b90600052602060002090601f016020900481019282612d505760008555612d9d565b82601f10612d615780548555612d9d565b82800160010185558215612d9d57600052602060002091601f016020900482015b82811115612d9d578254825591600101919060010190612d82565b50612da992915061304c565b5090565b508054612db99061381e565b6000825580601f10612dc9575050565b601f016020900490600052602060002090810190612de7919061304c565b50565b828054828255906000526020600020908101928215612d9d57600052602060002091820182811115612d9d578254825591600101919060010190612d82565b828054612e359061381e565b90600052602060002090601f016020900481019282612e575760008555612d9d565b82601f10612e7057805160ff1916838001178555612d9d565b82800160010185558215612d9d579182015b82811115612d9d578251825591602001919060010190612e82565b828054828255906000526020600020906003028101928215612f3b5760005260206000209160030282015b82811115612f3b57825482546001600160a01b0319166001600160a01b03909116178255600180840180548592859290830191612f049061381e565b612f0f929190612d22565b506002918201549101805460ff191660ff90921615159190911790556003928301929190910190612ec8565b50612da9929150613061565b8280548282559060005260206000209060060281019282156130405760005260206000209160060282015b828111156130405782548255600180840180548592859290830191612f969061381e565b612fa1929190612d22565b506002820181600201908054612fb69061381e565b612fc1929190612d22565b50600382810154828201805460ff90921692909160ff1916906001908490811115612ffc57634e487b7160e01b600052602160045260246000fd5b021790555060048281015490820155600591820154910180546001600160a01b0319166001600160a01b039092169190911790556006928301929190910190612f72565b50612da992915061309b565b5b80821115612da9576000815560010161304d565b80821115612da95780546001600160a01b031916815560006130866001830182612dad565b5060028101805460ff19169055600301613061565b80821115612da95760008082556130b56001830182612dad565b6130c3600283016000612dad565b5060038101805460ff19169055600060048201556005810180546001600160a01b031916905560060161309b565b80356001600160a01b038116811461310857600080fd5b919050565b60008083601f84011261311e578081fd5b50813567ffffffffffffffff811115613135578182fd5b6020830191508360208260051b8501011115612ace57600080fd5b600082601f830112613160578081fd5b813567ffffffffffffffff8082111561317b5761317b613884565b604051601f8301601f19908116603f011681019082821181831017156131a3576131a3613884565b816040528381528660208588010111156131bb578485fd5b8360208701602083013792830160200193909352509392505050565b6000602082840312156131e8578081fd5b612d1b826130f1565b60008060408385031215613203578081fd5b61320c836130f1565b9150602083013567ffffffffffffffff811115613227578182fd5b61323385828601613150565b9150509250929050565b600080600060608486031215613251578081fd5b61325a846130f1565b925060208401359150604084013567ffffffffffffffff81111561327c578182fd5b61328886828701613150565b9150509250925092565b600080600080600080606087890312156132aa578182fd5b863567ffffffffffffffff808211156132c1578384fd5b6132cd8a838b0161310d565b909850965060208901359150808211156132e5578384fd5b6132f18a838b0161310d565b90965094506040890135915080821115613309578384fd5b5061331689828a0161310d565b979a9699509497509295939492505050565b600060208284031215613339578081fd5b5035919050565b600080600060608486031215613354578283fd5b833592506020840135915061336b604085016130f1565b90509250925092565b60008060008060608587031215613389578384fd5b8435935060208501359250604085013567ffffffffffffffff808211156133ae578384fd5b818701915087601f8301126133c1578384fd5b8135818111156133cf578485fd5b8860208285010111156133e0578485fd5b95989497505060200194505050565b6004811061340d57634e487b7160e01b600052602160045260246000fd5b9052565b60008151808452815b818110156134365760208185018101518683018201520161341a565b818111156134475782602083870101525b50601f01601f19169290920160200192915050565b6020808252825182820181905260009190848201906040850190845b8181101561349d5783516001600160a01b031683529284019291840191600101613478565b50909695505050505050565b60006020808301818452808551808352604092508286019150828160051b870101848801865b8381101561352857888303603f19018552815180516001600160a01b031684528781015160608986018190529061350882870182613411565b9289015115159589019590955250948701949250908601906001016134cf565b509098975050505050505050565b602080825282518282018190526000919060409081850190868401855b828110156135a457815180518552868101516001600160a01b031687860152858101511515868601526060808201511515908601526080908101519085015260a09093019290850190600101613553565b5091979650505050505050565b60006020808301818452808551808352604092508286019150828160051b870101848801865b8381101561352857603f19898403018552815160c08151855288820151818a87015261360582870182613411565b915050878201518582038987015261361d8282613411565b915050606080830151613632828801826133ef565b50506080828101519086015260a0918201516001600160a01b0316919094015293860193908601906001016135d7565b60006020808301818452808551808352604092508286019150828160051b870101848801865b8381101561352857888303603f19018552815180516001600160a01b03168452878101516060906136bb8a8701826133ef565b5087820151915080888601526136d381860183613411565b968901969450505090860190600101613688565b60208082526024908201527f4f6e6c792063686169726d616e2063616e2063616c6c20746869732066756e636040820152633a34b7b760e11b606082015260800190565b60208082526036908201527f4f6e6c79206f776e65722c2063686169726d616e20616e642061646d696e732060408201527531b0b71031b0b636103a3434b990333ab731ba34b7b760511b606082015260800190565b6020808252600f908201526e496e76616c6964204164647265737360881b604082015260600190565b6000808335601e198436030181126137c0578283fd5b83018035915067ffffffffffffffff8211156137da578283fd5b602001915036819003821315612ace57600080fd5b600082198211156138025761380261386e565b500190565b6000828210156138195761381961386e565b500390565b600181811c9082168061383257607f821691505b6020821081141561041a57634e487b7160e01b600052602260045260246000fd5b60006000198214156138675761386761386e565b5060010190565b634e487b7160e01b600052601160045260246000fd5b634e487b7160e01b600052604160045260246000fdfea26469706673582212200ec4c3aece4a5015cf1b5da7962c27e4f0ebca910d20034cb21abb2d1bbda5a564736f6c63430008040033",
  "linkReferences": {},
  "deployedLinkReferences": {}
}