{
  "_format": "hh-sol-artifact-1",
  "contractName": "ZuriPoll",
  "sourceName": "contracts/ZuriPoll.sol",
  "abi": [
    {
      "inputs": [],
      "stateMutability": "nonpayable",
      "type": "constructor"
    },
    {
      "anonymous": false,
      "inputs": [
        {
          "indexed": false,
          "internalType": "bool",
          "name": "isStakeholder",
          "type": "bool"
        },
        {
          "indexed": false,
          "internalType": "bool",
          "name": "chairmanExists",
          "type": "bool"
        },
        {
          "indexed": false,
          "internalType": "uint256",
          "name": "timeChanged",
          "type": "uint256"
        }
      ],
      "name": "ChairmanChanged",
      "type": "event"
    },
    {
      "anonymous": false,
      "inputs": [
        {
          "indexed": false,
          "internalType": "address",
          "name": "candidate",
          "type": "address"
        },
        {
          "indexed": false,
          "internalType": "uint256",
          "name": "timeDeclared",
          "type": "uint256"
        }
      ],
      "name": "DeclaredInterest",
      "type": "event"
    },
    {
      "anonymous": false,
      "inputs": [
        {
          "indexed": false,
          "internalType": "address",
          "name": "createdBy",
          "type": "address"
        },
        {
          "indexed": false,
          "internalType": "uint256",
          "name": "electionId",
          "type": "uint256"
        },
        {
          "indexed": false,
          "internalType": "uint256",
          "name": "timeCreated",
          "type": "uint256"
        }
      ],
      "name": "ElectionCreated",
      "type": "event"
    },
    {
      "anonymous": false,
      "inputs": [
        {
          "indexed": false,
          "internalType": "uint256",
          "name": "electionId",
          "type": "uint256"
        },
        {
          "indexed": false,
          "internalType": "uint256",
          "name": "timeEnded",
          "type": "uint256"
        }
      ],
      "name": "EndElection",
      "type": "event"
    },
    {
      "anonymous": false,
      "inputs": [
        {
          "indexed": false,
          "internalType": "uint256",
          "name": "electionId",
          "type": "uint256"
        },
        {
          "indexed": false,
          "internalType": "uint256",
          "name": "timeEnded",
          "type": "uint256"
        }
      ],
      "name": "ShowResult",
      "type": "event"
    },
    {
      "anonymous": false,
      "inputs": [
        {
          "indexed": false,
          "internalType": "address",
          "name": "addedBy",
          "type": "address"
        },
        {
          "indexed": false,
          "internalType": "uint256",
          "name": "timeAdded",
          "type": "uint256"
        },
        {
          "indexed": false,
          "internalType": "bool",
          "name": "added",
          "type": "bool"
        }
      ],
      "name": "StakeHolderAdded",
      "type": "event"
    },
    {
      "anonymous": false,
      "inputs": [
        {
          "indexed": false,
          "internalType": "address",
          "name": "removedBy",
          "type": "address"
        },
        {
          "indexed": false,
          "internalType": "uint256",
          "name": "timeRemoved",
          "type": "uint256"
        },
        {
          "indexed": false,
          "internalType": "bool",
          "name": "removed",
          "type": "bool"
        }
      ],
      "name": "StakeHolderRemoved",
      "type": "event"
    },
    {
      "anonymous": false,
      "inputs": [
        {
          "indexed": false,
          "internalType": "address",
          "name": "addedBy",
          "type": "address"
        },
        {
          "indexed": false,
          "internalType": "uint256",
          "name": "timeAdded",
          "type": "uint256"
        },
        {
          "indexed": false,
          "internalType": "uint256",
          "name": "length",
          "type": "uint256"
        }
      ],
      "name": "StakeHoldersAdded",
      "type": "event"
    },
    {
      "anonymous": false,
      "inputs": [
        {
          "indexed": false,
          "internalType": "address",
          "name": "removedBy",
          "type": "address"
        },
        {
          "indexed": false,
          "internalType": "uint256",
          "name": "timeRemoved",
          "type": "uint256"
        },
        {
          "indexed": false,
          "internalType": "uint256",
          "name": "length",
          "type": "uint256"
        }
      ],
      "name": "StakeHoldersRemoved",
      "type": "event"
    },
    {
      "anonymous": false,
      "inputs": [
        {
          "indexed": false,
          "internalType": "uint256",
          "name": "electionId",
          "type": "uint256"
        },
        {
          "indexed": false,
          "internalType": "uint256",
          "name": "timeStarted",
          "type": "uint256"
        }
      ],
      "name": "StartElection",
      "type": "event"
    },
    {
      "anonymous": false,
      "inputs": [
        {
          "indexed": false,
          "internalType": "address",
          "name": "voter",
          "type": "address"
        },
        {
          "indexed": false,
          "internalType": "uint256",
          "name": "timeVoted",
          "type": "uint256"
        }
      ],
      "name": "Voted",
      "type": "event"
    },
    {
      "inputs": [
        {
          "internalType": "address",
          "name": "_chairman",
          "type": "address"
        },
        {
          "internalType": "string",
          "name": "_name",
          "type": "string"
        }
      ],
      "name": "addChairman",
      "outputs": [],
      "stateMutability": "nonpayable",
      "type": "function"
    },
    {
      "inputs": [
        {
          "internalType": "address",
          "name": "_stakeholder",
          "type": "address"
        },
        {
          "internalType": "uint256",
          "name": "_role",
          "type": "uint256"
        },
        {
          "internalType": "string",
          "name": "_name",
          "type": "string"
        }
      ],
      "name": "addStakeholder",
      "outputs": [],
      "stateMutability": "nonpayable",
      "type": "function"
    },
    {
      "inputs": [
        {
          "internalType": "address[]",
          "name": "_stakeholders",
          "type": "address[]"
        },
        {
          "internalType": "uint256[]",
          "name": "_roles",
          "type": "uint256[]"
        },
        {
          "internalType": "string[]",
          "name": "_names",
          "type": "string[]"
        }
      ],
      "name": "addStakeholders",
      "outputs": [],
      "stateMutability": "nonpayable",
      "type": "function"
    },
    {
      "inputs": [
        {
          "internalType": "uint256",
          "name": "_id",
          "type": "uint256"
        }
      ],
      "name": "compileResult",
      "outputs": [],
      "stateMutability": "view",
      "type": "function"
    },
    {
      "inputs": [
        {
          "internalType": "string[]",
          "name": "_positions",
          "type": "string[]"
        },
        {
          "internalType": "string[]",
          "name": "_descriptions",
          "type": "string[]"
        },
        {
          "internalType": "uint256[]",
          "name": "_roleLimits",
          "type": "uint256[]"
        }
      ],
      "name": "createsElection",
      "outputs": [],
      "stateMutability": "nonpayable",
      "type": "function"
    },
    {
      "inputs": [
        {
          "internalType": "uint256",
          "name": "_electionId",
          "type": "uint256"
        },
        {
          "internalType": "uint256",
          "name": "_pollId",
          "type": "uint256"
        },
        {
          "internalType": "string",
          "name": "_manifesto",
          "type": "string"
        }
      ],
      "name": "declareInterest",
      "outputs": [],
      "stateMutability": "nonpayable",
      "type": "function"
    },
    {
      "inputs": [
        {
          "internalType": "uint256",
          "name": "_id",
          "type": "uint256"
        }
      ],
      "name": "disableVoting",
      "outputs": [],
      "stateMutability": "nonpayable",
      "type": "function"
    },
    {
      "inputs": [
        {
          "internalType": "uint256",
          "name": "_id",
          "type": "uint256"
        }
      ],
      "name": "enableVoting",
      "outputs": [],
      "stateMutability": "nonpayable",
      "type": "function"
    },
    {
      "inputs": [],
      "name": "getChairman",
      "outputs": [
        {
          "internalType": "bool",
          "name": "",
          "type": "bool"
        },
        {
          "internalType": "uint256",
          "name": "",
          "type": "uint256"
        }
      ],
      "stateMutability": "view",
      "type": "function"
    },
    {
      "inputs": [],
      "name": "getStakeholders",
      "outputs": [
        {
          "components": [
            {
              "internalType": "address",
              "name": "id",
              "type": "address"
            },
            {
              "internalType": "enum ZuriPoll.Role",
              "name": "role",
              "type": "uint8"
            },
            {
              "internalType": "string",
              "name": "name",
              "type": "string"
            }
          ],
          "internalType": "struct ZuriPoll.Stakeholder[]",
          "name": "",
          "type": "tuple[]"
        }
      ],
      "stateMutability": "view",
      "type": "function"
    },
    {
      "inputs": [
        {
          "internalType": "address",
          "name": "_stakeholder",
          "type": "address"
        }
      ],
      "name": "isAdmin",
      "outputs": [
        {
          "internalType": "bool",
          "name": "",
          "type": "bool"
        }
      ],
      "stateMutability": "view",
      "type": "function"
    },
    {
      "inputs": [
        {
          "internalType": "address",
          "name": "_stakeholder",
          "type": "address"
        }
      ],
      "name": "isChairman",
      "outputs": [
        {
          "internalType": "bool",
          "name": "",
          "type": "bool"
        }
      ],
      "stateMutability": "view",
      "type": "function"
    },
    {
      "inputs": [
        {
          "internalType": "address",
          "name": "_stakeholder",
          "type": "address"
        }
      ],
      "name": "isStakeHolder",
      "outputs": [
        {
          "internalType": "bool",
          "name": "",
          "type": "bool"
        },
        {
          "internalType": "uint256",
          "name": "",
          "type": "uint256"
        }
      ],
      "stateMutability": "view",
      "type": "function"
    },
    {
      "inputs": [
        {
          "internalType": "address",
          "name": "_stakeholder",
          "type": "address"
        }
      ],
      "name": "isTeacher",
      "outputs": [
        {
          "internalType": "bool",
          "name": "",
          "type": "bool"
        }
      ],
      "stateMutability": "view",
      "type": "function"
    },
    {
      "inputs": [],
      "name": "owner",
      "outputs": [
        {
          "internalType": "address",
          "name": "",
          "type": "address"
        }
      ],
      "stateMutability": "view",
      "type": "function"
    },
    {
      "inputs": [
        {
          "internalType": "address",
          "name": "_stakeholder",
          "type": "address"
        }
      ],
      "name": "removeStakeHolder",
      "outputs": [
        {
          "internalType": "bool",
          "name": "",
          "type": "bool"
        }
      ],
      "stateMutability": "nonpayable",
      "type": "function"
    },
    {
      "inputs": [
        {
          "internalType": "address",
          "name": "_stakeholder",
          "type": "address"
        }
      ],
      "name": "removeStakeholder",
      "outputs": [],
      "stateMutability": "nonpayable",
      "type": "function"
    },
    {
      "inputs": [
        {
          "internalType": "address[]",
          "name": "_stakeholders",
          "type": "address[]"
        }
      ],
      "name": "removeStakeholders",
      "outputs": [],
      "stateMutability": "nonpayable",
      "type": "function"
    },
    {
      "inputs": [
        {
          "internalType": "uint256",
          "name": "_id",
          "type": "uint256"
        }
      ],
      "name": "showResult",
      "outputs": [],
      "stateMutability": "nonpayable",
      "type": "function"
    },
    {
      "inputs": [],
      "name": "totalStakeHolders",
      "outputs": [
        {
          "internalType": "uint256",
          "name": "",
          "type": "uint256"
        }
      ],
      "stateMutability": "view",
      "type": "function"
    },
    {
      "inputs": [
        {
          "internalType": "address",
          "name": "_chairman",
          "type": "address"
        }
      ],
      "name": "transferChairmanship",
      "outputs": [],
      "stateMutability": "nonpayable",
      "type": "function"
    },
    {
      "inputs": [
        {
          "internalType": "uint256",
          "name": "_electionId",
          "type": "uint256"
        },
        {
          "internalType": "uint256",
          "name": "_pollId",
          "type": "uint256"
        },
        {
          "internalType": "address",
          "name": "_candidate",
          "type": "address"
        }
      ],
      "name": "vote",
      "outputs": [],
      "stateMutability": "nonpayable",
      "type": "function"
    }
  ],
  "bytecode": "0x60806040526000600355600060045534801561001a57600080fd5b50336000806101000a81548173ffffffffffffffffffffffffffffffffffffffff021916908373ffffffffffffffffffffffffffffffffffffffff160217905550615aa3806200006b6000396000f3fe608060405234801561001057600080fd5b50600436106101425760003560e01c8063adf824c6116100b8578063ce947bd21161007c578063ce947bd214610370578063d64515571461038c578063ddea01eb146103ab578063e4c90501146103c7578063e631513b146103e5578063ed6ad2f81461040157610142565b8063adf824c6146102ce578063aec37eb3146102ea578063b69922471461031a578063bcb0c2d714610338578063bd46abba1461035457610142565b8063635121591161010a578063635121591461020f578063690742ce146102405780636d882eaf1461025c578063792882aa1461027857806379fb8671146102945780638da5cb5b146102b057610142565b806324d7806c1461014757806330ba628d14610177578063382872591461019357806345f412b0146101c357806350d91583146101f3575b600080fd5b610161600480360381019061015c9190614b97565b61041d565b60405161016e9190615258565b60405180910390f35b610191600480360381019061018c9190614cc0565b61057f565b005b6101ad60048036038101906101a89190614b97565b61087e565b6040516101ba9190615258565b60405180910390f35b6101dd60048036038101906101d89190614b97565b6109ad565b6040516101ea9190615258565b60405180910390f35b61020d60048036038101906102089190614e31565b610c04565b005b61022960048036038101906102249190614b97565b611372565b6040516102379291906152aa565b60405180910390f35b61025a60048036038101906102559190614e80565b6114c4565b005b61027660048036038101906102719190614b97565b611b19565b005b610292600480360381019061028d9190614d64565b6121f5565b005b6102ae60048036038101906102a99190614c14565b612896565b005b6102b8612a19565b6040516102c59190615184565b60405180910390f35b6102e860048036038101906102e39190614e08565b612a3d565b005b61030460048036038101906102ff9190614b97565b612b44565b6040516103119190615258565b60405180910390f35b610322612ca6565b60405161032f9190615236565b60405180910390f35b610352600480360381019061034d9190614b97565b612e74565b005b61036e60048036038101906103699190614e08565b612f81565b005b61038a60048036038101906103859190614bc0565b613088565b005b6103946131df565b6040516103a29291906152aa565b60405180910390f35b6103c560048036038101906103c09190614c7b565b6132f0565b005b6103cf6134c5565b6040516103dc91906153f3565b60405180910390f35b6103ff60048036038101906103fa9190614e08565b6134d2565b005b61041b60048036038101906104169190614e08565b613e00565b005b600081600073ffffffffffffffffffffffffffffffffffffffff168173ffffffffffffffffffffffffffffffffffffffff161415610490576040517f08c379a000000000000000000000000000000000000000000000000000000000815260040161048790615353565b60405180910390fd5b60008061049c85611372565b915091508180156105755750600160038111156104e2577f4e487b7100000000000000000000000000000000000000000000000000000000600052602160045260246000fd5b6001828154811061051c577f4e487b7100000000000000000000000000000000000000000000000000000000600052603260045260246000fd5b906000526020600020906002020160000160149054906101000a900460ff166003811115610573577f4e487b7100000000000000000000000000000000000000000000000000000000600052602160045260246000fd5b145b9350505050919050565b600061058a3361087e565b905060006105973361041d565b905060008054906101000a900473ffffffffffffffffffffffffffffffffffffffff1673ffffffffffffffffffffffffffffffffffffffff163373ffffffffffffffffffffffffffffffffffffffff1614806105f05750815b806105f85750805b610637576040517f08c379a000000000000000000000000000000000000000000000000000000000815260040161062e90615333565b60405180910390fd5b85859050888890501461067f576040517f08c379a0000000000000000000000000000000000000000000000000000000008152600401610676906153b3565b60405180910390fd5b60c88888905011158015610697575060c88686905011155b6106d6576040517f08c379a00000000000000000000000000000000000000000000000000000000081526004016106cd906153d3565b60405180910390fd5b6000805b8989905081101561083757600061080b8b8b84818110610723577f4e487b7100000000000000000000000000000000000000000000000000000000600052603260045260246000fd5b90506020020160208101906107389190614b97565b8a8a85818110610771577f4e487b7100000000000000000000000000000000000000000000000000000000600052603260045260246000fd5b905060200201358989868181106107b1577f4e487b7100000000000000000000000000000000000000000000000000000000600052603260045260246000fd5b90506020028101906107c39190615437565b8080601f016020809104026020016040519081016040528093929190818152602001838380828437600081840152601f19601f82011690508083019250505050505050613f33565b9050801561082357600183610820919061554a565b92505b50808061082f906156e6565b9150506106da565b507fbac83c528e1cae4c9e8cbfb61e2eb3d3ebc426f6702dc0c6ac32191af52cab9f33428360405161086b939291906151ff565b60405180910390a1505050505050505050565b600081600073ffffffffffffffffffffffffffffffffffffffff168173ffffffffffffffffffffffffffffffffffffffff1614156108f1576040517f08c379a00000000000000000000000000000000000000000000000000000000081526004016108e890615353565b60405180910390fd5b6000806108fc6131df565b915091508180156109a3575060018181548110610942577f4e487b7100000000000000000000000000000000000000000000000000000000600052603260045260246000fd5b906000526020600020906002020160000160009054906101000a900473ffffffffffffffffffffffffffffffffffffffff1673ffffffffffffffffffffffffffffffffffffffff168573ffffffffffffffffffffffffffffffffffffffff16145b9350505050919050565b60008060006109bb84611372565b915091508115610bf85760018080805490506109d791906155a0565b81548110610a0e577f4e487b7100000000000000000000000000000000000000000000000000000000600052603260045260246000fd5b906000526020600020906002020160018281548110610a56577f4e487b7100000000000000000000000000000000000000000000000000000000600052603260045260246000fd5b90600052602060002090600202016000820160009054906101000a900473ffffffffffffffffffffffffffffffffffffffff168160000160006101000a81548173ffffffffffffffffffffffffffffffffffffffff021916908373ffffffffffffffffffffffffffffffffffffffff1602179055506000820160149054906101000a900460ff168160000160146101000a81548160ff02191690836003811115610b29577f4e487b7100000000000000000000000000000000000000000000000000000000600052602160045260246000fd5b02179055506001820181600101908054610b4290615683565b610b4d9291906144b5565b509050506001805480610b89577f4e487b7100000000000000000000000000000000000000000000000000000000600052603160045260246000fd5b6001900381819060005260206000209060020201600080820160006101000a81549073ffffffffffffffffffffffffffffffffffffffff02191690556000820160146101000a81549060ff0219169055600182016000610be99190614542565b50509055600192505050610bff565b6000925050505b919050565b6000610c0f846140ed565b509050801561136c57600080610ea28560056000898152602001908152602001600020805480602002602001604051908101604052809291908181526020016000905b82821015610e9957838290600052602060002090600602016040518060c001604052908160008201548152602001600182018054610c8f90615683565b80601f0160208091040260200160405190810160405280929190818152602001828054610cbb90615683565b8015610d085780601f10610cdd57610100808354040283529160200191610d08565b820191906000526020600020905b815481529060010190602001808311610ceb57829003601f168201915b50505050508152602001600282018054610d2190615683565b80601f0160208091040260200160405190810160405280929190818152602001828054610d4d90615683565b8015610d9a5780601f10610d6f57610100808354040283529160200191610d9a565b820191906000526020600020905b815481529060010190602001808311610d7d57829003601f168201915b505050505081526020016003820160009054906101000a900460ff166003811115610dee577f4e487b7100000000000000000000000000000000000000000000000000000000600052602160045260246000fd5b6003811115610e26577f4e487b7100000000000000000000000000000000000000000000000000000000600052602160045260246000fd5b8152602001600482015481526020016005820160009054906101000a900473ffffffffffffffffffffffffffffffffffffffff1673ffffffffffffffffffffffffffffffffffffffff1673ffffffffffffffffffffffffffffffffffffffff168152505081526020019060010190610c52565b50505050614181565b915091508115611369576000600560008881526020019081526020016000208281548110610ef9577f4e487b7100000000000000000000000000000000000000000000000000000000600052603260045260246000fd5b90600052602060002090600602019050600080611085876006600086600001548152602001908152602001600020805480602002602001604051908101604052809291908181526020016000905b8282101561107c57838290600052602060002090600302016040518060600160405290816000820160009054906101000a900473ffffffffffffffffffffffffffffffffffffffff1673ffffffffffffffffffffffffffffffffffffffff1673ffffffffffffffffffffffffffffffffffffffff168152602001600182018054610fd090615683565b80601f0160208091040260200160405190810160405280929190818152602001828054610ffc90615683565b80156110495780601f1061101e57610100808354040283529160200191611049565b820191906000526020600020905b81548152906001019060200180831161102c57829003601f168201915b505050505081526020016002820160009054906101000a900460ff16151515158152505081526020019060010190610f47565b5050505061420c565b915091508115611365576000600660008560000154815260200190815260200160002082815481106110e0577f4e487b7100000000000000000000000000000000000000000000000000000000600052603260045260246000fd5b9060005260206000209060030201905060006111e333600760008560000160009054906101000a900473ffffffffffffffffffffffffffffffffffffffff1673ffffffffffffffffffffffffffffffffffffffff1673ffffffffffffffffffffffffffffffffffffffff1681526020019081526020016000208054806020026020016040519081016040528092919081815260200182805480156111d957602002820191906000526020600020905b8160009054906101000a900473ffffffffffffffffffffffffffffffffffffffff1673ffffffffffffffffffffffffffffffffffffffff168152602001906001019080831161118f575b5050505050614311565b50905080611362576000600760008460000160009054906101000a900473ffffffffffffffffffffffffffffffffffffffff1673ffffffffffffffffffffffffffffffffffffffff1673ffffffffffffffffffffffffffffffffffffffff168152602001908152602001600020905080339080600181540180825580915050600190039060005260206000200160009091909190916101000a81548173ffffffffffffffffffffffffffffffffffffffff021916908373ffffffffffffffffffffffffffffffffffffffff16021790555080600760008560000160009054906101000a900473ffffffffffffffffffffffffffffffffffffffff1673ffffffffffffffffffffffffffffffffffffffff1673ffffffffffffffffffffffffffffffffffffffff168152602001908152602001600020908054611326929190614582565b507f4d99b957a2bc29a30ebd96a7be8e68fe50a3c701db28a91436490b7d53870ca4334260405161135892919061519f565b60405180910390a1505b50505b5050505b50505b50505050565b60008082600073ffffffffffffffffffffffffffffffffffffffff168173ffffffffffffffffffffffffffffffffffffffff1614156113e6576040517f08c379a00000000000000000000000000000000000000000000000000000000081526004016113dd90615353565b60405180910390fd5b60005b6001805490508110156114b55760018181548110611430577f4e487b7100000000000000000000000000000000000000000000000000000000600052603260045260246000fd5b906000526020600020906002020160000160009054906101000a900473ffffffffffffffffffffffffffffffffffffffff1673ffffffffffffffffffffffffffffffffffffffff168573ffffffffffffffffffffffffffffffffffffffff1614156114a25760018193509350506114be565b80806114ad906156e6565b9150506113e9565b50600080925092505b50915091565b60006114cf856140ed565b5090508015611b125760006005600087815260200190815260200160002090506000806117678784805480602002602001604051908101604052809291908181526020016000905b8282101561175e57838290600052602060002090600602016040518060c00160405290816000820154815260200160018201805461155490615683565b80601f016020809104026020016040519081016040528092919081815260200182805461158090615683565b80156115cd5780601f106115a2576101008083540402835291602001916115cd565b820191906000526020600020905b8154815290600101906020018083116115b057829003601f168201915b505050505081526020016002820180546115e690615683565b80601f016020809104026020016040519081016040528092919081815260200182805461161290615683565b801561165f5780601f106116345761010080835404028352916020019161165f565b820191906000526020600020905b81548152906001019060200180831161164257829003601f168201915b505050505081526020016003820160009054906101000a900460ff1660038111156116b3577f4e487b7100000000000000000000000000000000000000000000000000000000600052602160045260246000fd5b60038111156116eb577f4e487b7100000000000000000000000000000000000000000000000000000000600052602160045260246000fd5b8152602001600482015481526020016005820160009054906101000a900473ffffffffffffffffffffffffffffffffffffffff1673ffffffffffffffffffffffffffffffffffffffff1673ffffffffffffffffffffffffffffffffffffffff168152505081526020019060010190611517565b50505050614181565b915091508115611b0e5760008382815481106117ac577f4e487b7100000000000000000000000000000000000000000000000000000000600052603260045260246000fd5b906000526020600020906006020190506117d7338260030160009054906101000a900460ff166143c4565b15611b0c576000611957336006600085600001548152602001908152602001600020805480602002602001604051908101604052809291908181526020016000905b8282101561194e57838290600052602060002090600302016040518060600160405290816000820160009054906101000a900473ffffffffffffffffffffffffffffffffffffffff1673ffffffffffffffffffffffffffffffffffffffff1673ffffffffffffffffffffffffffffffffffffffff1681526020016001820180546118a290615683565b80601f01602080910402602001604051908101604052809291908181526020018280546118ce90615683565b801561191b5780601f106118f05761010080835404028352916020019161191b565b820191906000526020600020905b8154815290600101906020018083116118fe57829003601f168201915b505050505081526020016002820160009054906101000a900460ff16151515158152505081526020019060010190611819565b5050505061420c565b50905080611b0a57600060405180606001604052803373ffffffffffffffffffffffffffffffffffffffff1681526020018a8a8080601f016020809104026020016040519081016040528093929190818152602001838380828437600081840152601f19601f8201169050808301925050505050505081526020016000151581525090506000600660008560000154815260200190815260200160002090508082908060018154018082558091505060019003906000526020600020906003020160009091909190915060008201518160000160006101000a81548173ffffffffffffffffffffffffffffffffffffffff021916908373ffffffffffffffffffffffffffffffffffffffff1602179055506020820151816001019080519060200190611a849291906145d4565b5060408201518160020160006101000a81548160ff0219169083151502179055505050806006600086600001548152602001908152602001600020908054611acd92919061465a565b507fffe51d05398626348be882c4048db654c2889ec253bcf44f0d2dcfffcbde6f473342604051611aff92919061519f565b60405180910390a150505b505b505b5050505b5050505050565b6000611b243361087e565b905060008054906101000a900473ffffffffffffffffffffffffffffffffffffffff1673ffffffffffffffffffffffffffffffffffffffff163373ffffffffffffffffffffffffffffffffffffffff161480611b7d5750805b611bbc576040517f08c379a0000000000000000000000000000000000000000000000000000000008152600401611bb390615313565b60405180910390fd5b81600073ffffffffffffffffffffffffffffffffffffffff168173ffffffffffffffffffffffffffffffffffffffff161415611c2d576040517f08c379a0000000000000000000000000000000000000000000000000000000008152600401611c2490615353565b60405180910390fd5b600080611c3985611372565b91509150600080611c486131df565b91509150838015611c565750815b8015611d2b575060026003811115611c97577f4e487b7100000000000000000000000000000000000000000000000000000000600052602160045260246000fd5b60018281548110611cd1577f4e487b7100000000000000000000000000000000000000000000000000000000600052603260045260246000fd5b906000526020600020906002020160000160149054906101000a900460ff166003811115611d28577f4e487b7100000000000000000000000000000000000000000000000000000000600052602160045260246000fd5b14155b8015611dff5750600380811115611d6b577f4e487b7100000000000000000000000000000000000000000000000000000000600052602160045260246000fd5b60018281548110611da5577f4e487b7100000000000000000000000000000000000000000000000000000000600052603260045260246000fd5b906000526020600020906002020160000160149054906101000a900460ff166003811115611dfc577f4e487b7100000000000000000000000000000000000000000000000000000000600052602160045260246000fd5b14155b156121ec57600060018481548110611e40577f4e487b7100000000000000000000000000000000000000000000000000000000600052603260045260246000fd5b9060005260206000209060020201905060008160000160146101000a81548160ff02191690836003811115611e9e577f4e487b7100000000000000000000000000000000000000000000000000000000600052602160045260246000fd5b0217905550600060018381548110611edf577f4e487b7100000000000000000000000000000000000000000000000000000000600052603260045260246000fd5b9060005260206000209060020201905060018160000160146101000a81548160ff02191690836003811115611f3d577f4e487b7100000000000000000000000000000000000000000000000000000000600052602160045260246000fd5b02179055508160018681548110611f7d577f4e487b7100000000000000000000000000000000000000000000000000000000600052603260045260246000fd5b90600052602060002090600202016000820160009054906101000a900473ffffffffffffffffffffffffffffffffffffffff168160000160006101000a81548173ffffffffffffffffffffffffffffffffffffffff021916908373ffffffffffffffffffffffffffffffffffffffff1602179055506000820160149054906101000a900460ff168160000160146101000a81548160ff02191690836003811115612050577f4e487b7100000000000000000000000000000000000000000000000000000000600052602160045260246000fd5b0217905550600182018160010190805461206990615683565b6120749291906144b5565b5090505080600184815481106120b3577f4e487b7100000000000000000000000000000000000000000000000000000000600052603260045260246000fd5b90600052602060002090600202016000820160009054906101000a900473ffffffffffffffffffffffffffffffffffffffff168160000160006101000a81548173ffffffffffffffffffffffffffffffffffffffff021916908373ffffffffffffffffffffffffffffffffffffffff1602179055506000820160149054906101000a900460ff168160000160146101000a81548160ff02191690836003811115612186577f4e487b7100000000000000000000000000000000000000000000000000000000600052602160045260246000fd5b0217905550600182018160010190805461219f90615683565b6121aa9291906144b5565b509050507f9bb673a781cc5554a0a36cf22e9e98dd655f503a053eac18d7f89c047f17800f8685426040516121e193929190615273565b60405180910390a150505b50505050505050565b60006122003361087e565b9050600061220d3361041d565b9050600061221a33612b44565b905082806122255750815b8061222d5750805b61226c576040517f08c379a000000000000000000000000000000000000000000000000000000000815260040161226390615393565b60405180910390fd5b8686905089899050146122b4576040517f08c379a00000000000000000000000000000000000000000000000000000000081526004016122ab906153b3565b60405180910390fd5b8484905089899050146122fc576040517f08c379a00000000000000000000000000000000000000000000000000000000081526004016122f3906153b3565b60405180910390fd5b6014898990501115612343576040517f08c379a000000000000000000000000000000000000000000000000000000000815260040161233a906153d3565b60405180910390fd5b6000600560006003548152602001908152602001600020905060005b8a8a90508110156126f957600060018888848181106123a7577f4e487b7100000000000000000000000000000000000000000000000000000000600052603260045260246000fd5b9050602002013514156123bd5760019050612414565b60028888848181106123f8577f4e487b7100000000000000000000000000000000000000000000000000000000600052603260045260246000fd5b90506020020135141561240e5760029050612413565b600390505b5b60006040518060c0016040528060045481526020018e8e86818110612462577f4e487b7100000000000000000000000000000000000000000000000000000000600052603260045260246000fd5b90506020028101906124749190615437565b8080601f016020809104026020016040519081016040528093929190818152602001838380828437600081840152601f19601f8201169050808301925050505050505081526020018c8c868181106124f5577f4e487b7100000000000000000000000000000000000000000000000000000000600052603260045260246000fd5b90506020028101906125079190615437565b8080601f016020809104026020016040519081016040528093929190818152602001838380828437600081840152601f19601f82011690508083019250505050505050815260200160016003811115612589577f4e487b7100000000000000000000000000000000000000000000000000000000600052602160045260246000fd5b815260200160008152602001600073ffffffffffffffffffffffffffffffffffffffff168152509050838190806001815401808255809150506001900390600052602060002090600602016000909190919091506000820151816000015560208201518160010190805190602001906126039291906145d4565b5060408201518160020190805190602001906126209291906145d4565b5060608201518160030160006101000a81548160ff02191690836003811115612672577f4e487b7100000000000000000000000000000000000000000000000000000000600052602160045260246000fd5b02179055506080820151816004015560a08201518160050160006101000a81548173ffffffffffffffffffffffffffffffffffffffff021916908373ffffffffffffffffffffffffffffffffffffffff16021790555050506001600460008282546126dd919061554a565b92505081905550505080806126f1906156e6565b91505061235f565b5060006127076003546140ed565b50905080612889576002604051806080016040528060035481526020013373ffffffffffffffffffffffffffffffffffffffff1681526020016000151581526020016000151581525090806001815401808255809150506001900390600052602060002090600202016000909190919091506000820151816000015560208201518160010160006101000a81548173ffffffffffffffffffffffffffffffffffffffff021916908373ffffffffffffffffffffffffffffffffffffffff16021790555060408201518160010160146101000a81548160ff02191690831515021790555060608201518160010160156101000a81548160ff021916908315150217905550505081600560006003548152602001908152602001600020908054612830929190614766565b507fe4a4773a04354f567f797c204cf2b998204ac2658f9c3ce4b935888217046f6e3360035442604051612866939291906151ff565b60405180910390a1600160036000828254612881919061554a565b925050819055505b5050505050505050505050565b60006128a13361087e565b905060006128ae3361041d565b905060008054906101000a900473ffffffffffffffffffffffffffffffffffffffff1673ffffffffffffffffffffffffffffffffffffffff163373ffffffffffffffffffffffffffffffffffffffff1614806129075750815b8061290f5750805b61294e576040517f08c379a000000000000000000000000000000000000000000000000000000000815260040161294590615333565b60405180910390fd5b84600073ffffffffffffffffffffffffffffffffffffffff168173ffffffffffffffffffffffffffffffffffffffff1614156129bf576040517f08c379a00000000000000000000000000000000000000000000000000000000081526004016129b690615353565b60405180910390fd5b60006129cc878787613f33565b90508015612a10577f1f366cb51d6c322ee8b739141a2ec9faf2d9da5aa6b97d6584d9144655b0aaef334283604051612a07939291906151c8565b60405180910390a15b50505050505050565b60008054906101000a900473ffffffffffffffffffffffffffffffffffffffff1681565b6000612a483361087e565b905080612a8a576040517f08c379a0000000000000000000000000000000000000000000000000000000008152600401612a81906152d3565b60405180910390fd5b600080612a96846140ed565b915091508115612b3e57600160028281548110612adc577f4e487b7100000000000000000000000000000000000000000000000000000000600052603260045260246000fd5b906000526020600020906002020160010160146101000a81548160ff0219169083151502179055507f1c3377a0c51de9576fa0d69c44a1324cdc1c0c5c19607e3aaea41b0528e1fe508442604051612b3592919061540e565b60405180910390a15b50505050565b600081600073ffffffffffffffffffffffffffffffffffffffff168173ffffffffffffffffffffffffffffffffffffffff161415612bb7576040517f08c379a0000000000000000000000000000000000000000000000000000000008152600401612bae90615353565b60405180910390fd5b600080612bc385611372565b91509150818015612c9c575060026003811115612c09577f4e487b7100000000000000000000000000000000000000000000000000000000600052602160045260246000fd5b60018281548110612c43577f4e487b7100000000000000000000000000000000000000000000000000000000600052603260045260246000fd5b906000526020600020906002020160000160149054906101000a900460ff166003811115612c9a577f4e487b7100000000000000000000000000000000000000000000000000000000600052602160045260246000fd5b145b9350505050919050565b60606001805480602002602001604051908101604052809291908181526020016000905b82821015612e6b57838290600052602060002090600202016040518060600160405290816000820160009054906101000a900473ffffffffffffffffffffffffffffffffffffffff1673ffffffffffffffffffffffffffffffffffffffff1673ffffffffffffffffffffffffffffffffffffffff1681526020016000820160149054906101000a900460ff166003811115612d8e577f4e487b7100000000000000000000000000000000000000000000000000000000600052602160045260246000fd5b6003811115612dc6577f4e487b7100000000000000000000000000000000000000000000000000000000600052602160045260246000fd5b8152602001600182018054612dda90615683565b80601f0160208091040260200160405190810160405280929190818152602001828054612e0690615683565b8015612e535780601f10612e2857610100808354040283529160200191612e53565b820191906000526020600020905b815481529060010190602001808311612e3657829003601f168201915b50505050508152505081526020019060010190612cca565b50505050905090565b6000612e7f3361087e565b90506000612e8c3361041d565b905060008054906101000a900473ffffffffffffffffffffffffffffffffffffffff1673ffffffffffffffffffffffffffffffffffffffff163373ffffffffffffffffffffffffffffffffffffffff161480612ee55750815b80612eed5750805b612f2c576040517f08c379a0000000000000000000000000000000000000000000000000000000008152600401612f2390615333565b60405180910390fd5b6000612f37846109ad565b90508015612f7b577fc2584311840f96f00503c7cd32c4c54dbec1eaa507d4179fd5b74a3c09a798b3334283604051612f72939291906151c8565b60405180910390a15b50505050565b6000612f8c3361087e565b905080612fce576040517f08c379a0000000000000000000000000000000000000000000000000000000008152600401612fc5906152d3565b60405180910390fd5b600080612fda846140ed565b91509150811561308257600060028281548110613020577f4e487b7100000000000000000000000000000000000000000000000000000000600052603260045260246000fd5b906000526020600020906002020160010160146101000a81548160ff0219169083151502179055507f54f15e2d92e47c97daf1628ccf33b3530a52615375f8a4f714b0b98969fc2e74844260405161307992919061540e565b60405180910390a15b50505050565b60008054906101000a900473ffffffffffffffffffffffffffffffffffffffff1673ffffffffffffffffffffffffffffffffffffffff163373ffffffffffffffffffffffffffffffffffffffff1614613116576040517f08c379a000000000000000000000000000000000000000000000000000000000815260040161310d906152f3565b60405180910390fd5b81600073ffffffffffffffffffffffffffffffffffffffff168173ffffffffffffffffffffffffffffffffffffffff161415613187576040517f08c379a000000000000000000000000000000000000000000000000000000000815260040161317e90615353565b60405180910390fd5b600061319584600085613f33565b905080156131d9577f1f366cb51d6c322ee8b739141a2ec9faf2d9da5aa6b97d6584d9144655b0aaef3342836040516131d0939291906151c8565b60405180910390a15b50505050565b60008060005b6001805490508110156132e3576000600381111561322c577f4e487b7100000000000000000000000000000000000000000000000000000000600052602160045260246000fd5b60018281548110613266577f4e487b7100000000000000000000000000000000000000000000000000000000600052603260045260246000fd5b906000526020600020906002020160000160149054906101000a900460ff1660038111156132bd577f4e487b7100000000000000000000000000000000000000000000000000000000600052602160045260246000fd5b14156132d05760018192509250506132ec565b80806132db906156e6565b9150506131e5565b50600080915091505b9091565b60006132fb3361087e565b905060006133083361041d565b905060008054906101000a900473ffffffffffffffffffffffffffffffffffffffff1673ffffffffffffffffffffffffffffffffffffffff163373ffffffffffffffffffffffffffffffffffffffff1614806133615750815b806133695750805b6133a8576040517f08c379a000000000000000000000000000000000000000000000000000000000815260040161339f90615333565b60405180910390fd5b60c88484905011156133ef576040517f08c379a00000000000000000000000000000000000000000000000000000000081526004016133e6906153d3565b60405180910390fd5b6000805b8585905081101561348257600061345687878481811061343c577f4e487b7100000000000000000000000000000000000000000000000000000000600052603260045260246000fd5b90506020020160208101906134519190614b97565b6109ad565b9050801561346e5760018361346b919061554a565b92505b50808061347a906156e6565b9150506133f3565b507fe51b9cc8a1245c78fd2a08c6a54488574e7125c003ecf4c85e4033e07e08eaf43342836040516134b6939291906151ff565b60405180910390a15050505050565b6000600180549050905090565b60006134dd3361087e565b905060006134ea3361041d565b905060008054906101000a900473ffffffffffffffffffffffffffffffffffffffff1673ffffffffffffffffffffffffffffffffffffffff163373ffffffffffffffffffffffffffffffffffffffff1614806135435750815b8061354b5750805b61358a576040517f08c379a000000000000000000000000000000000000000000000000000000000815260040161358190615333565b60405180910390fd5b600080613596856140ed565b915091508115613df9576000600282815481106135dc577f4e487b7100000000000000000000000000000000000000000000000000000000600052603260045260246000fd5b9060005260206000209060020201604051806080016040529081600082015481526020016001820160009054906101000a900473ffffffffffffffffffffffffffffffffffffffff1673ffffffffffffffffffffffffffffffffffffffff1673ffffffffffffffffffffffffffffffffffffffff1681526020016001820160149054906101000a900460ff161515151581526020016001820160159054906101000a900460ff161515151581525050905080604001516136d1576040517f08c379a00000000000000000000000000000000000000000000000000000000081526004016136c890615373565b60405180910390fd5b600060056000888152602001908152602001600020805480602002602001604051908101604052809291908181526020016000905b8282101561394d57838290600052602060002090600602016040518060c00160405290816000820154815260200160018201805461374390615683565b80601f016020809104026020016040519081016040528092919081815260200182805461376f90615683565b80156137bc5780601f10613791576101008083540402835291602001916137bc565b820191906000526020600020905b81548152906001019060200180831161379f57829003601f168201915b505050505081526020016002820180546137d590615683565b80601f016020809104026020016040519081016040528092919081815260200182805461380190615683565b801561384e5780601f106138235761010080835404028352916020019161384e565b820191906000526020600020905b81548152906001019060200180831161383157829003601f168201915b505050505081526020016003820160009054906101000a900460ff1660038111156138a2577f4e487b7100000000000000000000000000000000000000000000000000000000600052602160045260246000fd5b60038111156138da577f4e487b7100000000000000000000000000000000000000000000000000000000600052602160045260246000fd5b8152602001600482015481526020016005820160009054906101000a900473ffffffffffffffffffffffffffffffffffffffff1673ffffffffffffffffffffffffffffffffffffffff1673ffffffffffffffffffffffffffffffffffffffff168152505081526020019060010190613706565b50505050905060005b8151811015613df557600082828151811061399a577f4e487b7100000000000000000000000000000000000000000000000000000000600052603260045260246000fd5b6020026020010151905060006006600083600001518152602001908152602001600020805480602002602001604051908101604052809291908181526020016000905b82821015613b1257838290600052602060002090600302016040518060600160405290816000820160009054906101000a900473ffffffffffffffffffffffffffffffffffffffff1673ffffffffffffffffffffffffffffffffffffffff1673ffffffffffffffffffffffffffffffffffffffff168152602001600182018054613a6690615683565b80601f0160208091040260200160405190810160405280929190818152602001828054613a9290615683565b8015613adf5780601f10613ab457610100808354040283529160200191613adf565b820191906000526020600020905b815481529060010190602001808311613ac257829003601f168201915b505050505081526020016002820160009054906101000a900460ff161515151581525050815260200190600101906139dd565b5050505090506000805b8251811015613d99578160076000858481518110613b63577f4e487b7100000000000000000000000000000000000000000000000000000000600052603260045260246000fd5b60200260200101516000015173ffffffffffffffffffffffffffffffffffffffff1673ffffffffffffffffffffffffffffffffffffffff168152602001908152602001600020805490501115613cbd5760076000848381518110613bf0577f4e487b7100000000000000000000000000000000000000000000000000000000600052603260045260246000fd5b60200260200101516000015173ffffffffffffffffffffffffffffffffffffffff1673ffffffffffffffffffffffffffffffffffffffff168152602001908152602001600020805490509150828181518110613c75577f4e487b7100000000000000000000000000000000000000000000000000000000600052603260045260246000fd5b6020026020010151600001518460a0019073ffffffffffffffffffffffffffffffffffffffff16908173ffffffffffffffffffffffffffffffffffffffff1681525050613d86565b8160076000858481518110613cfb577f4e487b7100000000000000000000000000000000000000000000000000000000600052603260045260246000fd5b60200260200101516000015173ffffffffffffffffffffffffffffffffffffffff1673ffffffffffffffffffffffffffffffffffffffff168152602001908152602001600020805490501415613d855760008460a0019073ffffffffffffffffffffffffffffffffffffffff16908173ffffffffffffffffffffffffffffffffffffffff16815250505b5b8080613d91906156e6565b915050613b1c565b5082858581518110613dd4577f4e487b7100000000000000000000000000000000000000000000000000000000600052603260045260246000fd5b60200260200101819052505050508080613ded906156e6565b915050613956565b5050505b5050505050565b6000613e0b3361087e565b90506000613e183361041d565b90506000613e2533612b44565b90508280613e305750815b80613e385750805b613e77576040517f08c379a0000000000000000000000000000000000000000000000000000000008152600401613e6e90615393565b60405180910390fd5b600080613e83866140ed565b915091508115613f2b57600160028281548110613ec9577f4e487b7100000000000000000000000000000000000000000000000000000000600052603260045260246000fd5b906000526020600020906002020160010160156101000a81548160ff0219169083151502179055507f0de2c806e4e5828c90f97cde098331ae12b1d49a17ffa59f3d1fad3bdfee5e4f8642604051613f2292919061540e565b60405180910390a15b505050505050565b600080613f3f85611372565b509050806140e057600080851415613f5a5760009050613f85565b6001851415613f6c5760019050613f84565b6002851415613f7e5760029050613f83565b600390505b5b5b600160405180606001604052808873ffffffffffffffffffffffffffffffffffffffff168152602001836003811115613fe7577f4e487b7100000000000000000000000000000000000000000000000000000000600052602160045260246000fd5b815260200186815250908060018154018082558091505060019003906000526020600020906002020160009091909190915060008201518160000160006101000a81548173ffffffffffffffffffffffffffffffffffffffff021916908373ffffffffffffffffffffffffffffffffffffffff16021790555060208201518160000160146101000a81548160ff021916908360038111156140b1577f4e487b7100000000000000000000000000000000000000000000000000000000600052602160045260246000fd5b021790555060408201518160010190805190602001906140d29291906145d4565b5050506001925050506140e6565b60009150505b9392505050565b60008060005b600280549050811015614173576002818154811061413a577f4e487b7100000000000000000000000000000000000000000000000000000000600052603260045260246000fd5b90600052602060002090600202016000015484141561416057600181925092505061417c565b808061416b906156e6565b9150506140f3565b50600080915091505b915091565b60008060005b83518110156141fc578381815181106141c9577f4e487b7100000000000000000000000000000000000000000000000000000000600052603260045260246000fd5b6020026020010151600001518514156141e9576001819250925050614205565b80806141f4906156e6565b915050614187565b50600080915091505b9250929050565b60008060005b835181101561430157838181518110614254577f4e487b7100000000000000000000000000000000000000000000000000000000600052603260045260246000fd5b60200260200101516000015173ffffffffffffffffffffffffffffffffffffffff168573ffffffffffffffffffffffffffffffffffffffff161480156142dc57508381815181106142ce577f4e487b7100000000000000000000000000000000000000000000000000000000600052603260045260246000fd5b602002602001015160400151155b156142ee57600181925092505061430a565b80806142f9906156e6565b915050614212565b50600080915091505b9250929050565b60008060005b83518110156143b457838181518110614359577f4e487b7100000000000000000000000000000000000000000000000000000000600052603260045260246000fd5b602002602001015173ffffffffffffffffffffffffffffffffffffffff168573ffffffffffffffffffffffffffffffffffffffff1614156143a15760018192509250506143bd565b80806143ac906156e6565b915050614317565b50600080915091505b9250929050565b60008060006143d285611372565b915091508180156144ab5750836003811115614417577f4e487b7100000000000000000000000000000000000000000000000000000000600052602160045260246000fd5b60018281548110614451577f4e487b7100000000000000000000000000000000000000000000000000000000600052603260045260246000fd5b906000526020600020906002020160000160149054906101000a900460ff1660038111156144a8577f4e487b7100000000000000000000000000000000000000000000000000000000600052602160045260246000fd5b11155b9250505092915050565b8280546144c190615683565b90600052602060002090601f0160209004810192826144e35760008555614531565b82601f106144f45780548555614531565b8280016001018555821561453157600052602060002091601f016020900482015b82811115614530578254825591600101919060010190614515565b5b50905061453e91906148dc565b5090565b50805461454e90615683565b6000825580601f10614560575061457f565b601f01602090049060005260206000209081019061457e91906148dc565b5b50565b8280548282559060005260206000209081019282156145c35760005260206000209182015b828111156145c25782548255916001019190600101906145a7565b5b5090506145d091906148dc565b5090565b8280546145e090615683565b90600052602060002090601f0160209004810192826146025760008555614649565b82601f1061461b57805160ff1916838001178555614649565b82800160010185558215614649579182015b8281111561464857825182559160200191906001019061462d565b5b50905061465691906148dc565b5090565b8280548282559060005260206000209060030281019282156147555760005260206000209160030282015b828111156147545782826000820160009054906101000a900473ffffffffffffffffffffffffffffffffffffffff168160000160006101000a81548173ffffffffffffffffffffffffffffffffffffffff021916908373ffffffffffffffffffffffffffffffffffffffff160217905550600182018160010190805461470a90615683565b6147159291906144b5565b506002820160009054906101000a900460ff168160020160006101000a81548160ff021916908315150217905550505091600301919060030190614685565b5b50905061476291906148f9565b5090565b8280548282559060005260206000209060060281019282156148cb5760005260206000209160060282015b828111156148ca5782826000820154816000015560018201816001019080546147b990615683565b6147c49291906144b5565b5060028201816002019080546147d990615683565b6147e49291906144b5565b506003820160009054906101000a900460ff168160030160006101000a81548160ff02191690836003811115614843577f4e487b7100000000000000000000000000000000000000000000000000000000600052602160045260246000fd5b0217905550600482015481600401556005820160009054906101000a900473ffffffffffffffffffffffffffffffffffffffff168160050160006101000a81548173ffffffffffffffffffffffffffffffffffffffff021916908373ffffffffffffffffffffffffffffffffffffffff160217905550505091600601919060060190614791565b5b5090506148d8919061495b565b5090565b5b808211156148f55760008160009055506001016148dd565b5090565b5b8082111561495757600080820160006101000a81549073ffffffffffffffffffffffffffffffffffffffff021916905560018201600061493a9190614542565b6002820160006101000a81549060ff0219169055506003016148fa565b5090565b5b808211156149d95760008082016000905560018201600061497d9190614542565b60028201600061498d9190614542565b6003820160006101000a81549060ff021916905560048201600090556005820160006101000a81549073ffffffffffffffffffffffffffffffffffffffff02191690555060060161495c565b5090565b60006149f06149eb846154b3565b61548e565b905082815260208101848484011115614a0857600080fd5b614a13848285615641565b509392505050565b600081359050614a2a81615a3f565b92915050565b60008083601f840112614a4257600080fd5b8235905067ffffffffffffffff811115614a5b57600080fd5b602083019150836020820283011115614a7357600080fd5b9250929050565b60008083601f840112614a8c57600080fd5b8235905067ffffffffffffffff811115614aa557600080fd5b602083019150836020820283011115614abd57600080fd5b9250929050565b60008083601f840112614ad657600080fd5b8235905067ffffffffffffffff811115614aef57600080fd5b602083019150836020820283011115614b0757600080fd5b9250929050565b60008083601f840112614b2057600080fd5b8235905067ffffffffffffffff811115614b3957600080fd5b602083019150836001820283011115614b5157600080fd5b9250929050565b600082601f830112614b6957600080fd5b8135614b798482602086016149dd565b91505092915050565b600081359050614b9181615a56565b92915050565b600060208284031215614ba957600080fd5b6000614bb784828501614a1b565b91505092915050565b60008060408385031215614bd357600080fd5b6000614be185828601614a1b565b925050602083013567ffffffffffffffff811115614bfe57600080fd5b614c0a85828601614b58565b9150509250929050565b600080600060608486031215614c2957600080fd5b6000614c3786828701614a1b565b9350506020614c4886828701614b82565b925050604084013567ffffffffffffffff811115614c6557600080fd5b614c7186828701614b58565b9150509250925092565b60008060208385031215614c8e57600080fd5b600083013567ffffffffffffffff811115614ca857600080fd5b614cb485828601614a30565b92509250509250929050565b60008060008060008060608789031215614cd957600080fd5b600087013567ffffffffffffffff811115614cf357600080fd5b614cff89828a01614a30565b9650965050602087013567ffffffffffffffff811115614d1e57600080fd5b614d2a89828a01614ac4565b9450945050604087013567ffffffffffffffff811115614d4957600080fd5b614d5589828a01614a7a565b92509250509295509295509295565b60008060008060008060608789031215614d7d57600080fd5b600087013567ffffffffffffffff811115614d9757600080fd5b614da389828a01614a7a565b9650965050602087013567ffffffffffffffff811115614dc257600080fd5b614dce89828a01614a7a565b9450945050604087013567ffffffffffffffff811115614ded57600080fd5b614df989828a01614ac4565b92509250509295509295509295565b600060208284031215614e1a57600080fd5b6000614e2884828501614b82565b91505092915050565b600080600060608486031215614e4657600080fd5b6000614e5486828701614b82565b9350506020614e6586828701614b82565b9250506040614e7686828701614a1b565b9150509250925092565b60008060008060608587031215614e9657600080fd5b6000614ea487828801614b82565b9450506020614eb587828801614b82565b935050604085013567ffffffffffffffff811115614ed257600080fd5b614ede87828801614b0e565b925092505092959194509250565b6000614ef88383615125565b905092915050565b614f09816155d4565b82525050565b614f18816155d4565b82525050565b6000614f29826154f4565b614f338185615517565b935083602082028501614f45856154e4565b8060005b85811015614f815784840389528151614f628582614eec565b9450614f6d8361550a565b925060208a01995050600181019050614f49565b50829750879550505050505092915050565b614f9c816155e6565b82525050565b614fab8161562f565b82525050565b6000614fbc826154ff565b614fc68185615528565b9350614fd6818560208601615650565b614fdf816157eb565b840191505092915050565b6000614ff7602483615539565b9150615002826157fc565b604082019050919050565b600061501a602183615539565b91506150258261584b565b604082019050919050565b600061503d602e83615539565b91506150488261589a565b604082019050919050565b6000615060603683615539565b915061506b826158e9565b604082019050919050565b6000615083600f83615539565b915061508e82615938565b602082019050919050565b60006150a6601483615539565b91506150b182615961565b602082019050919050565b60006150c9603983615539565b91506150d48261598a565b604082019050919050565b60006150ec601883615539565b91506150f7826159d9565b602082019050919050565b600061510f602083615539565b915061511a82615a02565b602082019050919050565b600060608301600083015161513d6000860182614f00565b5060208301516151506020860182614fa2565b50604083015184820360408601526151688282614fb1565b9150508091505092915050565b61517e81615625565b82525050565b60006020820190506151996000830184614f0f565b92915050565b60006040820190506151b46000830185614f0f565b6151c16020830184615175565b9392505050565b60006060820190506151dd6000830186614f0f565b6151ea6020830185615175565b6151f76040830184614f93565b949350505050565b60006060820190506152146000830186614f0f565b6152216020830185615175565b61522e6040830184615175565b949350505050565b600060208201905081810360008301526152508184614f1e565b905092915050565b600060208201905061526d6000830184614f93565b92915050565b60006060820190506152886000830186614f93565b6152956020830185614f93565b6152a26040830184615175565b949350505050565b60006040820190506152bf6000830185614f93565b6152cc6020830184615175565b9392505050565b600060208201905081810360008301526152ec81614fea565b9050919050565b6000602082019050818103600083015261530c8161500d565b9050919050565b6000602082019050818103600083015261532c81615030565b9050919050565b6000602082019050818103600083015261534c81615053565b9050919050565b6000602082019050818103600083015261536c81615076565b9050919050565b6000602082019050818103600083015261538c81615099565b9050919050565b600060208201905081810360008301526153ac816150bc565b9050919050565b600060208201905081810360008301526153cc816150df565b9050919050565b600060208201905081810360008301526153ec81615102565b9050919050565b60006020820190506154086000830184615175565b92915050565b60006040820190506154236000830185615175565b6154306020830184615175565b9392505050565b6000808335600160200384360303811261545057600080fd5b80840192508235915067ffffffffffffffff82111561546e57600080fd5b60208301925060018202360383131561548657600080fd5b509250929050565b60006154986154a9565b90506154a482826156b5565b919050565b6000604051905090565b600067ffffffffffffffff8211156154ce576154cd6157bc565b5b6154d7826157eb565b9050602081019050919050565b6000819050602082019050919050565b600081519050919050565b600081519050919050565b6000602082019050919050565b600082825260208201905092915050565b600082825260208201905092915050565b600082825260208201905092915050565b600061555582615625565b915061556083615625565b9250827fffffffffffffffffffffffffffffffffffffffffffffffffffffffffffffffff038211156155955761559461572f565b5b828201905092915050565b60006155ab82615625565b91506155b683615625565b9250828210156155c9576155c861572f565b5b828203905092915050565b60006155df82615605565b9050919050565b60008115159050919050565b600081905061560082615a2b565b919050565b600073ffffffffffffffffffffffffffffffffffffffff82169050919050565b6000819050919050565b600061563a826155f2565b9050919050565b82818337600083830152505050565b60005b8381101561566e578082015181840152602081019050615653565b8381111561567d576000848401525b50505050565b6000600282049050600182168061569b57607f821691505b602082108114156156af576156ae61578d565b5b50919050565b6156be826157eb565b810181811067ffffffffffffffff821117156156dd576156dc6157bc565b5b80604052505050565b60006156f182615625565b91507fffffffffffffffffffffffffffffffffffffffffffffffffffffffffffffffff8214156157245761572361572f565b5b600182019050919050565b7f4e487b7100000000000000000000000000000000000000000000000000000000600052601160045260246000fd5b7f4e487b7100000000000000000000000000000000000000000000000000000000600052602160045260246000fd5b7f4e487b7100000000000000000000000000000000000000000000000000000000600052602260045260246000fd5b7f4e487b7100000000000000000000000000000000000000000000000000000000600052604160045260246000fd5b6000601f19601f8301169050919050565b7f4f6e6c792063686169726d616e2063616e2063616c6c20746869732066756e6360008201527f74696f6e00000000000000000000000000000000000000000000000000000000602082015250565b7f4f6e6c79206f776e65722063616e2063616c6c20746869732066756e6374696f60008201527f6e00000000000000000000000000000000000000000000000000000000000000602082015250565b7f4f6e6c79206f776e657220616e642063686169726d616e2063616e2063616c6c60008201527f20746869732066756e6374696f6e000000000000000000000000000000000000602082015250565b7f4f6e6c79206f776e65722c2063686169726d616e20616e642061646d696e732060008201527f63616e2063616c6c20746869732066756e6374696f6e00000000000000000000602082015250565b7f496e76616c696420416464726573730000000000000000000000000000000000600082015250565b7f566f74696e6720686173206e6f7420656e646564000000000000000000000000600082015250565b7f4f6e6c792063686169726d616e2c2061646d696e7320616e642074656163686560008201527f72732063616e2063616c6c20746869732066756e6374696f6e00000000000000602082015250565b7f496e76616c696420696e70757420706172616d65746572730000000000000000600082015250565b7f65786365656473206e756d626572206f6620616c6c6f77656420696e70757473600082015250565b60048110615a3c57615a3b61575e565b5b50565b615a48816155d4565b8114615a5357600080fd5b50565b615a5f81615625565b8114615a6a57600080fd5b5056fea26469706673582212207322ca15a8822d0ed9b78e1b8ea898c173bfe45cc1e0ade055d106d73f7219d664736f6c63430008040033",
  "linkReferences": {},
  "deployedLinkReferences": {}
}