{
  "_format": "hh-sol-artifact-1",
  "contractName": "ZuriPoll",
  "sourceName": "contracts/ZuriPoll.sol",
  "abi": [
    {
      "inputs": [],
      "stateMutability": "nonpayable",
      "type": "constructor"
    },
    {
      "anonymous": false,
      "inputs": [
        {
          "indexed": false,
          "internalType": "bool",
          "name": "isStakeholder",
          "type": "bool"
        },
        {
          "indexed": false,
          "internalType": "bool",
          "name": "chairmanExists",
          "type": "bool"
        },
        {
          "indexed": false,
          "internalType": "uint256",
          "name": "timeChanged",
          "type": "uint256"
        }
      ],
      "name": "ChairmanChanged",
      "type": "event"
    },
    {
      "anonymous": false,
      "inputs": [
        {
          "indexed": false,
          "internalType": "address",
          "name": "candidate",
          "type": "address"
        },
        {
          "indexed": false,
          "internalType": "uint256",
          "name": "timeDeclared",
          "type": "uint256"
        }
      ],
      "name": "DeclaredInterest",
      "type": "event"
    },
    {
      "anonymous": false,
      "inputs": [
        {
          "indexed": false,
          "internalType": "address",
          "name": "createdBy",
          "type": "address"
        },
        {
          "indexed": false,
          "internalType": "uint256",
          "name": "electionId",
          "type": "uint256"
        },
        {
          "indexed": false,
          "internalType": "uint256",
          "name": "timeCreated",
          "type": "uint256"
        }
      ],
      "name": "ElectionCreated",
      "type": "event"
    },
    {
      "anonymous": false,
      "inputs": [
        {
          "indexed": false,
          "internalType": "uint256",
          "name": "electionId",
          "type": "uint256"
        },
        {
          "indexed": false,
          "internalType": "uint256",
          "name": "timeEnded",
          "type": "uint256"
        }
      ],
      "name": "EndElection",
      "type": "event"
    },
    {
      "anonymous": false,
      "inputs": [
        {
          "indexed": false,
          "internalType": "uint256",
          "name": "electionId",
          "type": "uint256"
        },
        {
          "indexed": false,
          "internalType": "uint256",
          "name": "timeEnded",
          "type": "uint256"
        }
      ],
      "name": "ShowResult",
      "type": "event"
    },
    {
      "anonymous": false,
      "inputs": [
        {
          "indexed": false,
          "internalType": "address",
          "name": "addedBy",
          "type": "address"
        },
        {
          "indexed": false,
          "internalType": "uint256",
          "name": "timeAdded",
          "type": "uint256"
        },
        {
          "indexed": false,
          "internalType": "bool",
          "name": "added",
          "type": "bool"
        }
      ],
      "name": "StakeHolderAdded",
      "type": "event"
    },
    {
      "anonymous": false,
      "inputs": [
        {
          "indexed": false,
          "internalType": "address",
          "name": "removedBy",
          "type": "address"
        },
        {
          "indexed": false,
          "internalType": "uint256",
          "name": "timeRemoved",
          "type": "uint256"
        },
        {
          "indexed": false,
          "internalType": "bool",
          "name": "removed",
          "type": "bool"
        }
      ],
      "name": "StakeHolderRemoved",
      "type": "event"
    },
    {
      "anonymous": false,
      "inputs": [
        {
          "indexed": false,
          "internalType": "address",
          "name": "addedBy",
          "type": "address"
        },
        {
          "indexed": false,
          "internalType": "uint256",
          "name": "timeAdded",
          "type": "uint256"
        },
        {
          "indexed": false,
          "internalType": "uint256",
          "name": "length",
          "type": "uint256"
        }
      ],
      "name": "StakeHoldersAdded",
      "type": "event"
    },
    {
      "anonymous": false,
      "inputs": [
        {
          "indexed": false,
          "internalType": "address",
          "name": "removedBy",
          "type": "address"
        },
        {
          "indexed": false,
          "internalType": "uint256",
          "name": "timeRemoved",
          "type": "uint256"
        },
        {
          "indexed": false,
          "internalType": "uint256",
          "name": "length",
          "type": "uint256"
        }
      ],
      "name": "StakeHoldersRemoved",
      "type": "event"
    },
    {
      "anonymous": false,
      "inputs": [
        {
          "indexed": false,
          "internalType": "uint256",
          "name": "electionId",
          "type": "uint256"
        },
        {
          "indexed": false,
          "internalType": "uint256",
          "name": "timeStarted",
          "type": "uint256"
        }
      ],
      "name": "StartElection",
      "type": "event"
    },
    {
      "anonymous": false,
      "inputs": [
        {
          "indexed": false,
          "internalType": "address",
          "name": "voter",
          "type": "address"
        },
        {
          "indexed": false,
          "internalType": "uint256",
          "name": "timeVoted",
          "type": "uint256"
        }
      ],
      "name": "Voted",
      "type": "event"
    },
    {
      "inputs": [
        {
          "internalType": "address",
          "name": "_chairman",
          "type": "address"
        },
        {
          "internalType": "string",
          "name": "_name",
          "type": "string"
        }
      ],
      "name": "addChairman",
      "outputs": [],
      "stateMutability": "nonpayable",
      "type": "function"
    },
    {
      "inputs": [
        {
          "internalType": "address",
          "name": "_stakeholder",
          "type": "address"
        },
        {
          "internalType": "uint256",
          "name": "_role",
          "type": "uint256"
        },
        {
          "internalType": "string",
          "name": "_name",
          "type": "string"
        }
      ],
      "name": "addStakeholder",
      "outputs": [],
      "stateMutability": "nonpayable",
      "type": "function"
    },
    {
      "inputs": [
        {
          "internalType": "address[]",
          "name": "_stakeholders",
          "type": "address[]"
        },
        {
          "internalType": "uint256[]",
          "name": "_roles",
          "type": "uint256[]"
        },
        {
          "internalType": "string[]",
          "name": "_names",
          "type": "string[]"
        }
      ],
      "name": "addStakeholders",
      "outputs": [],
      "stateMutability": "nonpayable",
      "type": "function"
    },
    {
      "inputs": [
        {
          "internalType": "uint256",
          "name": "_id",
          "type": "uint256"
        }
      ],
      "name": "compileResult",
      "outputs": [],
      "stateMutability": "view",
      "type": "function"
    },
    {
      "inputs": [
        {
          "internalType": "string[]",
          "name": "_positions",
          "type": "string[]"
        },
        {
          "internalType": "string[]",
          "name": "_descriptions",
          "type": "string[]"
        },
        {
          "internalType": "uint256[]",
          "name": "_roleLimits",
          "type": "uint256[]"
        }
      ],
      "name": "createsElection",
      "outputs": [],
      "stateMutability": "nonpayable",
      "type": "function"
    },
    {
      "inputs": [
        {
          "internalType": "uint256",
          "name": "_electionId",
          "type": "uint256"
        },
        {
          "internalType": "uint256",
          "name": "_pollId",
          "type": "uint256"
        },
        {
          "internalType": "string",
          "name": "_manifesto",
          "type": "string"
        }
      ],
      "name": "declareInterest",
      "outputs": [],
      "stateMutability": "nonpayable",
      "type": "function"
    },
    {
      "inputs": [
        {
          "internalType": "uint256",
          "name": "_id",
          "type": "uint256"
        }
      ],
      "name": "disableVoting",
      "outputs": [],
      "stateMutability": "nonpayable",
      "type": "function"
    },
    {
      "inputs": [
        {
          "internalType": "uint256",
          "name": "_id",
          "type": "uint256"
        }
      ],
      "name": "enableVoting",
      "outputs": [],
      "stateMutability": "nonpayable",
      "type": "function"
    },
    {
      "inputs": [],
      "name": "getChairman",
      "outputs": [
        {
          "internalType": "bool",
          "name": "",
          "type": "bool"
        },
        {
          "internalType": "uint256",
          "name": "",
          "type": "uint256"
        }
      ],
      "stateMutability": "view",
      "type": "function"
    },
    {
      "inputs": [],
      "name": "getStakeholders",
      "outputs": [
        {
          "components": [
            {
              "internalType": "address",
              "name": "id",
              "type": "address"
            },
            {
              "internalType": "enum ZuriPoll.Role",
              "name": "role",
              "type": "uint8"
            },
            {
              "internalType": "string",
              "name": "name",
              "type": "string"
            }
          ],
          "internalType": "struct ZuriPoll.Stakeholder[]",
          "name": "",
          "type": "tuple[]"
        }
      ],
      "stateMutability": "view",
      "type": "function"
    },
    {
      "inputs": [
        {
          "internalType": "address",
          "name": "_stakeholder",
          "type": "address"
        }
      ],
      "name": "isAdmin",
      "outputs": [
        {
          "internalType": "bool",
          "name": "",
          "type": "bool"
        }
      ],
      "stateMutability": "view",
      "type": "function"
    },
    {
      "inputs": [
        {
          "internalType": "address",
          "name": "_stakeholder",
          "type": "address"
        }
      ],
      "name": "isChairman",
      "outputs": [
        {
          "internalType": "bool",
          "name": "",
          "type": "bool"
        }
      ],
      "stateMutability": "view",
      "type": "function"
    },
    {
      "inputs": [
        {
          "internalType": "address",
          "name": "_stakeholder",
          "type": "address"
        }
      ],
      "name": "isStakeHolder",
      "outputs": [
        {
          "internalType": "bool",
          "name": "",
          "type": "bool"
        },
        {
          "internalType": "uint256",
          "name": "",
          "type": "uint256"
        }
      ],
      "stateMutability": "view",
      "type": "function"
    },
    {
      "inputs": [
        {
          "internalType": "address",
          "name": "_stakeholder",
          "type": "address"
        }
      ],
      "name": "isTeacher",
      "outputs": [
        {
          "internalType": "bool",
          "name": "",
          "type": "bool"
        }
      ],
      "stateMutability": "view",
      "type": "function"
    },
    {
      "inputs": [],
      "name": "owner",
      "outputs": [
        {
          "internalType": "address",
          "name": "",
          "type": "address"
        }
      ],
      "stateMutability": "view",
      "type": "function"
    },
    {
      "inputs": [
        {
          "internalType": "address",
          "name": "_stakeholder",
          "type": "address"
        }
      ],
      "name": "removeStakeHolder",
      "outputs": [
        {
          "internalType": "bool",
          "name": "",
          "type": "bool"
        }
      ],
      "stateMutability": "nonpayable",
      "type": "function"
    },
    {
      "inputs": [
        {
          "internalType": "address",
          "name": "_stakeholder",
          "type": "address"
        }
      ],
      "name": "removeStakeholder",
      "outputs": [],
      "stateMutability": "nonpayable",
      "type": "function"
    },
    {
      "inputs": [
        {
          "internalType": "address[]",
          "name": "_stakeholders",
          "type": "address[]"
        }
      ],
      "name": "removeStakeholders",
      "outputs": [],
      "stateMutability": "nonpayable",
      "type": "function"
    },
    {
      "inputs": [
        {
          "internalType": "uint256",
          "name": "_id",
          "type": "uint256"
        }
      ],
      "name": "showResult",
      "outputs": [],
      "stateMutability": "nonpayable",
      "type": "function"
    },
    {
      "inputs": [],
      "name": "totalStakeHolders",
      "outputs": [
        {
          "internalType": "uint256",
          "name": "",
          "type": "uint256"
        }
      ],
      "stateMutability": "view",
      "type": "function"
    },
    {
      "inputs": [
        {
          "internalType": "address",
          "name": "_chairman",
          "type": "address"
        }
      ],
      "name": "transferChairmanship",
      "outputs": [],
      "stateMutability": "nonpayable",
      "type": "function"
    },
    {
      "inputs": [
        {
          "internalType": "uint256",
          "name": "_electionId",
          "type": "uint256"
        },
        {
          "internalType": "uint256",
          "name": "_pollId",
          "type": "uint256"
        },
        {
          "internalType": "address",
          "name": "_candidate",
          "type": "address"
        }
      ],
      "name": "vote",
      "outputs": [],
      "stateMutability": "nonpayable",
      "type": "function"
    }
  ],
  "bytecode": "0x60806040526000600355600060045534801561001a57600080fd5b50336000806101000a81548173ffffffffffffffffffffffffffffffffffffffff021916908373ffffffffffffffffffffffffffffffffffffffff160217905550615aa2806200006b6000396000f3fe608060405234801561001057600080fd5b50600436106101425760003560e01c8063adf824c6116100b8578063ce947bd21161007c578063ce947bd214610370578063d64515571461038c578063ddea01eb146103ab578063e4c90501146103c7578063e631513b146103e5578063ed6ad2f81461040157610142565b8063adf824c6146102ce578063aec37eb3146102ea578063b69922471461031a578063bcb0c2d714610338578063bd46abba1461035457610142565b8063635121591161010a578063635121591461020f578063690742ce146102405780636d882eaf1461025c578063792882aa1461027857806379fb8671146102945780638da5cb5b146102b057610142565b806324d7806c1461014757806330ba628d14610177578063382872591461019357806345f412b0146101c357806350d91583146101f3575b600080fd5b610161600480360381019061015c9190614b96565b61041d565b60405161016e9190615257565b60405180910390f35b610191600480360381019061018c9190614cbf565b61057f565b005b6101ad60048036038101906101a89190614b96565b61087e565b6040516101ba9190615257565b60405180910390f35b6101dd60048036038101906101d89190614b96565b6109ad565b6040516101ea9190615257565b60405180910390f35b61020d60048036038101906102089190614e30565b610c04565b005b61022960048036038101906102249190614b96565b611372565b6040516102379291906152a9565b60405180910390f35b61025a60048036038101906102559190614e7f565b6114c4565b005b61027660048036038101906102719190614b96565b611b19565b005b610292600480360381019061028d9190614d63565b6121f5565b005b6102ae60048036038101906102a99190614c13565b612895565b005b6102b8612a18565b6040516102c59190615183565b60405180910390f35b6102e860048036038101906102e39190614e07565b612a3c565b005b61030460048036038101906102ff9190614b96565b612b43565b6040516103119190615257565b60405180910390f35b610322612ca5565b60405161032f9190615235565b60405180910390f35b610352600480360381019061034d9190614b96565b612e73565b005b61036e60048036038101906103699190614e07565b612f80565b005b61038a60048036038101906103859190614bbf565b613087565b005b6103946131de565b6040516103a29291906152a9565b60405180910390f35b6103c560048036038101906103c09190614c7a565b6132ef565b005b6103cf6134c4565b6040516103dc91906153f2565b60405180910390f35b6103ff60048036038101906103fa9190614e07565b6134d1565b005b61041b60048036038101906104169190614e07565b613dff565b005b600081600073ffffffffffffffffffffffffffffffffffffffff168173ffffffffffffffffffffffffffffffffffffffff161415610490576040517f08c379a000000000000000000000000000000000000000000000000000000000815260040161048790615352565b60405180910390fd5b60008061049c85611372565b915091508180156105755750600160038111156104e2577f4e487b7100000000000000000000000000000000000000000000000000000000600052602160045260246000fd5b6001828154811061051c577f4e487b7100000000000000000000000000000000000000000000000000000000600052603260045260246000fd5b906000526020600020906002020160000160149054906101000a900460ff166003811115610573577f4e487b7100000000000000000000000000000000000000000000000000000000600052602160045260246000fd5b145b9350505050919050565b600061058a3361087e565b905060006105973361041d565b905060008054906101000a900473ffffffffffffffffffffffffffffffffffffffff1673ffffffffffffffffffffffffffffffffffffffff163373ffffffffffffffffffffffffffffffffffffffff1614806105f05750815b806105f85750805b610637576040517f08c379a000000000000000000000000000000000000000000000000000000000815260040161062e90615332565b60405180910390fd5b85859050888890501461067f576040517f08c379a0000000000000000000000000000000000000000000000000000000008152600401610676906153b2565b60405180910390fd5b60c88888905011158015610697575060c88686905011155b6106d6576040517f08c379a00000000000000000000000000000000000000000000000000000000081526004016106cd906153d2565b60405180910390fd5b6000805b8989905081101561083757600061080b8b8b84818110610723577f4e487b7100000000000000000000000000000000000000000000000000000000600052603260045260246000fd5b90506020020160208101906107389190614b96565b8a8a85818110610771577f4e487b7100000000000000000000000000000000000000000000000000000000600052603260045260246000fd5b905060200201358989868181106107b1577f4e487b7100000000000000000000000000000000000000000000000000000000600052603260045260246000fd5b90506020028101906107c39190615436565b8080601f016020809104026020016040519081016040528093929190818152602001838380828437600081840152601f19601f82011690508083019250505050505050613f32565b90508015610823576001836108209190615549565b92505b50808061082f906156e5565b9150506106da565b507fbac83c528e1cae4c9e8cbfb61e2eb3d3ebc426f6702dc0c6ac32191af52cab9f33428360405161086b939291906151fe565b60405180910390a1505050505050505050565b600081600073ffffffffffffffffffffffffffffffffffffffff168173ffffffffffffffffffffffffffffffffffffffff1614156108f1576040517f08c379a00000000000000000000000000000000000000000000000000000000081526004016108e890615352565b60405180910390fd5b6000806108fc6131de565b915091508180156109a3575060018181548110610942577f4e487b7100000000000000000000000000000000000000000000000000000000600052603260045260246000fd5b906000526020600020906002020160000160009054906101000a900473ffffffffffffffffffffffffffffffffffffffff1673ffffffffffffffffffffffffffffffffffffffff168573ffffffffffffffffffffffffffffffffffffffff16145b9350505050919050565b60008060006109bb84611372565b915091508115610bf85760018080805490506109d7919061559f565b81548110610a0e577f4e487b7100000000000000000000000000000000000000000000000000000000600052603260045260246000fd5b906000526020600020906002020160018281548110610a56577f4e487b7100000000000000000000000000000000000000000000000000000000600052603260045260246000fd5b90600052602060002090600202016000820160009054906101000a900473ffffffffffffffffffffffffffffffffffffffff168160000160006101000a81548173ffffffffffffffffffffffffffffffffffffffff021916908373ffffffffffffffffffffffffffffffffffffffff1602179055506000820160149054906101000a900460ff168160000160146101000a81548160ff02191690836003811115610b29577f4e487b7100000000000000000000000000000000000000000000000000000000600052602160045260246000fd5b02179055506001820181600101908054610b4290615682565b610b4d9291906144b4565b509050506001805480610b89577f4e487b7100000000000000000000000000000000000000000000000000000000600052603160045260246000fd5b6001900381819060005260206000209060020201600080820160006101000a81549073ffffffffffffffffffffffffffffffffffffffff02191690556000820160146101000a81549060ff0219169055600182016000610be99190614541565b50509055600192505050610bff565b6000925050505b919050565b6000610c0f846140ec565b509050801561136c57600080610ea28560056000898152602001908152602001600020805480602002602001604051908101604052809291908181526020016000905b82821015610e9957838290600052602060002090600602016040518060c001604052908160008201548152602001600182018054610c8f90615682565b80601f0160208091040260200160405190810160405280929190818152602001828054610cbb90615682565b8015610d085780601f10610cdd57610100808354040283529160200191610d08565b820191906000526020600020905b815481529060010190602001808311610ceb57829003601f168201915b50505050508152602001600282018054610d2190615682565b80601f0160208091040260200160405190810160405280929190818152602001828054610d4d90615682565b8015610d9a5780601f10610d6f57610100808354040283529160200191610d9a565b820191906000526020600020905b815481529060010190602001808311610d7d57829003601f168201915b505050505081526020016003820160009054906101000a900460ff166003811115610dee577f4e487b7100000000000000000000000000000000000000000000000000000000600052602160045260246000fd5b6003811115610e26577f4e487b7100000000000000000000000000000000000000000000000000000000600052602160045260246000fd5b8152602001600482015481526020016005820160009054906101000a900473ffffffffffffffffffffffffffffffffffffffff1673ffffffffffffffffffffffffffffffffffffffff1673ffffffffffffffffffffffffffffffffffffffff168152505081526020019060010190610c52565b50505050614180565b915091508115611369576000600560008881526020019081526020016000208281548110610ef9577f4e487b7100000000000000000000000000000000000000000000000000000000600052603260045260246000fd5b90600052602060002090600602019050600080611085876006600086600001548152602001908152602001600020805480602002602001604051908101604052809291908181526020016000905b8282101561107c57838290600052602060002090600302016040518060600160405290816000820160009054906101000a900473ffffffffffffffffffffffffffffffffffffffff1673ffffffffffffffffffffffffffffffffffffffff1673ffffffffffffffffffffffffffffffffffffffff168152602001600182018054610fd090615682565b80601f0160208091040260200160405190810160405280929190818152602001828054610ffc90615682565b80156110495780601f1061101e57610100808354040283529160200191611049565b820191906000526020600020905b81548152906001019060200180831161102c57829003601f168201915b505050505081526020016002820160009054906101000a900460ff16151515158152505081526020019060010190610f47565b5050505061420b565b915091508115611365576000600660008560000154815260200190815260200160002082815481106110e0577f4e487b7100000000000000000000000000000000000000000000000000000000600052603260045260246000fd5b9060005260206000209060030201905060006111e333600760008560000160009054906101000a900473ffffffffffffffffffffffffffffffffffffffff1673ffffffffffffffffffffffffffffffffffffffff1673ffffffffffffffffffffffffffffffffffffffff1681526020019081526020016000208054806020026020016040519081016040528092919081815260200182805480156111d957602002820191906000526020600020905b8160009054906101000a900473ffffffffffffffffffffffffffffffffffffffff1673ffffffffffffffffffffffffffffffffffffffff168152602001906001019080831161118f575b5050505050614310565b50905080611362576000600760008460000160009054906101000a900473ffffffffffffffffffffffffffffffffffffffff1673ffffffffffffffffffffffffffffffffffffffff1673ffffffffffffffffffffffffffffffffffffffff168152602001908152602001600020905080339080600181540180825580915050600190039060005260206000200160009091909190916101000a81548173ffffffffffffffffffffffffffffffffffffffff021916908373ffffffffffffffffffffffffffffffffffffffff16021790555080600760008560000160009054906101000a900473ffffffffffffffffffffffffffffffffffffffff1673ffffffffffffffffffffffffffffffffffffffff1673ffffffffffffffffffffffffffffffffffffffff168152602001908152602001600020908054611326929190614581565b507f4d99b957a2bc29a30ebd96a7be8e68fe50a3c701db28a91436490b7d53870ca4334260405161135892919061519e565b60405180910390a1505b50505b5050505b50505b50505050565b60008082600073ffffffffffffffffffffffffffffffffffffffff168173ffffffffffffffffffffffffffffffffffffffff1614156113e6576040517f08c379a00000000000000000000000000000000000000000000000000000000081526004016113dd90615352565b60405180910390fd5b60005b6001805490508110156114b55760018181548110611430577f4e487b7100000000000000000000000000000000000000000000000000000000600052603260045260246000fd5b906000526020600020906002020160000160009054906101000a900473ffffffffffffffffffffffffffffffffffffffff1673ffffffffffffffffffffffffffffffffffffffff168573ffffffffffffffffffffffffffffffffffffffff1614156114a25760018193509350506114be565b80806114ad906156e5565b9150506113e9565b50600080925092505b50915091565b60006114cf856140ec565b5090508015611b125760006005600087815260200190815260200160002090506000806117678784805480602002602001604051908101604052809291908181526020016000905b8282101561175e57838290600052602060002090600602016040518060c00160405290816000820154815260200160018201805461155490615682565b80601f016020809104026020016040519081016040528092919081815260200182805461158090615682565b80156115cd5780601f106115a2576101008083540402835291602001916115cd565b820191906000526020600020905b8154815290600101906020018083116115b057829003601f168201915b505050505081526020016002820180546115e690615682565b80601f016020809104026020016040519081016040528092919081815260200182805461161290615682565b801561165f5780601f106116345761010080835404028352916020019161165f565b820191906000526020600020905b81548152906001019060200180831161164257829003601f168201915b505050505081526020016003820160009054906101000a900460ff1660038111156116b3577f4e487b7100000000000000000000000000000000000000000000000000000000600052602160045260246000fd5b60038111156116eb577f4e487b7100000000000000000000000000000000000000000000000000000000600052602160045260246000fd5b8152602001600482015481526020016005820160009054906101000a900473ffffffffffffffffffffffffffffffffffffffff1673ffffffffffffffffffffffffffffffffffffffff1673ffffffffffffffffffffffffffffffffffffffff168152505081526020019060010190611517565b50505050614180565b915091508115611b0e5760008382815481106117ac577f4e487b7100000000000000000000000000000000000000000000000000000000600052603260045260246000fd5b906000526020600020906006020190506117d7338260030160009054906101000a900460ff166143c3565b15611b0c576000611957336006600085600001548152602001908152602001600020805480602002602001604051908101604052809291908181526020016000905b8282101561194e57838290600052602060002090600302016040518060600160405290816000820160009054906101000a900473ffffffffffffffffffffffffffffffffffffffff1673ffffffffffffffffffffffffffffffffffffffff1673ffffffffffffffffffffffffffffffffffffffff1681526020016001820180546118a290615682565b80601f01602080910402602001604051908101604052809291908181526020018280546118ce90615682565b801561191b5780601f106118f05761010080835404028352916020019161191b565b820191906000526020600020905b8154815290600101906020018083116118fe57829003601f168201915b505050505081526020016002820160009054906101000a900460ff16151515158152505081526020019060010190611819565b5050505061420b565b50905080611b0a57600060405180606001604052803373ffffffffffffffffffffffffffffffffffffffff1681526020018a8a8080601f016020809104026020016040519081016040528093929190818152602001838380828437600081840152601f19601f8201169050808301925050505050505081526020016000151581525090506000600660008560000154815260200190815260200160002090508082908060018154018082558091505060019003906000526020600020906003020160009091909190915060008201518160000160006101000a81548173ffffffffffffffffffffffffffffffffffffffff021916908373ffffffffffffffffffffffffffffffffffffffff1602179055506020820151816001019080519060200190611a849291906145d3565b5060408201518160020160006101000a81548160ff0219169083151502179055505050806006600086600001548152602001908152602001600020908054611acd929190614659565b507fffe51d05398626348be882c4048db654c2889ec253bcf44f0d2dcfffcbde6f473342604051611aff92919061519e565b60405180910390a150505b505b505b5050505b5050505050565b6000611b243361087e565b905060008054906101000a900473ffffffffffffffffffffffffffffffffffffffff1673ffffffffffffffffffffffffffffffffffffffff163373ffffffffffffffffffffffffffffffffffffffff161480611b7d5750805b611bbc576040517f08c379a0000000000000000000000000000000000000000000000000000000008152600401611bb390615312565b60405180910390fd5b81600073ffffffffffffffffffffffffffffffffffffffff168173ffffffffffffffffffffffffffffffffffffffff161415611c2d576040517f08c379a0000000000000000000000000000000000000000000000000000000008152600401611c2490615352565b60405180910390fd5b600080611c3985611372565b91509150600080611c486131de565b91509150838015611c565750815b8015611d2b575060026003811115611c97577f4e487b7100000000000000000000000000000000000000000000000000000000600052602160045260246000fd5b60018281548110611cd1577f4e487b7100000000000000000000000000000000000000000000000000000000600052603260045260246000fd5b906000526020600020906002020160000160149054906101000a900460ff166003811115611d28577f4e487b7100000000000000000000000000000000000000000000000000000000600052602160045260246000fd5b14155b8015611dff5750600380811115611d6b577f4e487b7100000000000000000000000000000000000000000000000000000000600052602160045260246000fd5b60018281548110611da5577f4e487b7100000000000000000000000000000000000000000000000000000000600052603260045260246000fd5b906000526020600020906002020160000160149054906101000a900460ff166003811115611dfc577f4e487b7100000000000000000000000000000000000000000000000000000000600052602160045260246000fd5b14155b156121ec57600060018481548110611e40577f4e487b7100000000000000000000000000000000000000000000000000000000600052603260045260246000fd5b9060005260206000209060020201905060008160000160146101000a81548160ff02191690836003811115611e9e577f4e487b7100000000000000000000000000000000000000000000000000000000600052602160045260246000fd5b0217905550600060018381548110611edf577f4e487b7100000000000000000000000000000000000000000000000000000000600052603260045260246000fd5b9060005260206000209060020201905060018160000160146101000a81548160ff02191690836003811115611f3d577f4e487b7100000000000000000000000000000000000000000000000000000000600052602160045260246000fd5b02179055508160018681548110611f7d577f4e487b7100000000000000000000000000000000000000000000000000000000600052603260045260246000fd5b90600052602060002090600202016000820160009054906101000a900473ffffffffffffffffffffffffffffffffffffffff168160000160006101000a81548173ffffffffffffffffffffffffffffffffffffffff021916908373ffffffffffffffffffffffffffffffffffffffff1602179055506000820160149054906101000a900460ff168160000160146101000a81548160ff02191690836003811115612050577f4e487b7100000000000000000000000000000000000000000000000000000000600052602160045260246000fd5b0217905550600182018160010190805461206990615682565b6120749291906144b4565b5090505080600184815481106120b3577f4e487b7100000000000000000000000000000000000000000000000000000000600052603260045260246000fd5b90600052602060002090600202016000820160009054906101000a900473ffffffffffffffffffffffffffffffffffffffff168160000160006101000a81548173ffffffffffffffffffffffffffffffffffffffff021916908373ffffffffffffffffffffffffffffffffffffffff1602179055506000820160149054906101000a900460ff168160000160146101000a81548160ff02191690836003811115612186577f4e487b7100000000000000000000000000000000000000000000000000000000600052602160045260246000fd5b0217905550600182018160010190805461219f90615682565b6121aa9291906144b4565b509050507f9bb673a781cc5554a0a36cf22e9e98dd655f503a053eac18d7f89c047f17800f8685426040516121e193929190615272565b60405180910390a150505b50505050505050565b60006122003361087e565b9050600061220d3361041d565b9050600061221a33612b43565b905082806122255750815b8061222d5750805b61226c576040517f08c379a000000000000000000000000000000000000000000000000000000000815260040161226390615392565b60405180910390fd5b8686905089899050146122b4576040517f08c379a00000000000000000000000000000000000000000000000000000000081526004016122ab906153b2565b60405180910390fd5b8484905089899050146122fc576040517f08c379a00000000000000000000000000000000000000000000000000000000081526004016122f3906153b2565b60405180910390fd5b6014898990501115612343576040517f08c379a000000000000000000000000000000000000000000000000000000000815260040161233a906153d2565b60405180910390fd5b6000600560006003548152602001908152602001600020905060005b8a8a90508110156126f857600060018888848181106123a7577f4e487b7100000000000000000000000000000000000000000000000000000000600052603260045260246000fd5b9050602002013514156123bd5760019050612414565b60028888848181106123f8577f4e487b7100000000000000000000000000000000000000000000000000000000600052603260045260246000fd5b90506020020135141561240e5760029050612413565b600390505b5b60006040518060c0016040528060045481526020018e8e86818110612462577f4e487b7100000000000000000000000000000000000000000000000000000000600052603260045260246000fd5b90506020028101906124749190615436565b8080601f016020809104026020016040519081016040528093929190818152602001838380828437600081840152601f19601f8201169050808301925050505050505081526020018c8c868181106124f5577f4e487b7100000000000000000000000000000000000000000000000000000000600052603260045260246000fd5b90506020028101906125079190615436565b8080601f016020809104026020016040519081016040528093929190818152602001838380828437600081840152601f19601f820116905080830192505050505050508152602001836003811115612588577f4e487b7100000000000000000000000000000000000000000000000000000000600052602160045260246000fd5b815260200160008152602001600073ffffffffffffffffffffffffffffffffffffffff168152509050838190806001815401808255809150506001900390600052602060002090600602016000909190919091506000820151816000015560208201518160010190805190602001906126029291906145d3565b50604082015181600201908051906020019061261f9291906145d3565b5060608201518160030160006101000a81548160ff02191690836003811115612671577f4e487b7100000000000000000000000000000000000000000000000000000000600052602160045260246000fd5b02179055506080820151816004015560a08201518160050160006101000a81548173ffffffffffffffffffffffffffffffffffffffff021916908373ffffffffffffffffffffffffffffffffffffffff16021790555050506001600460008282546126dc9190615549565b92505081905550505080806126f0906156e5565b91505061235f565b5060006127066003546140ec565b50905080612888576002604051806080016040528060035481526020013373ffffffffffffffffffffffffffffffffffffffff1681526020016000151581526020016000151581525090806001815401808255809150506001900390600052602060002090600202016000909190919091506000820151816000015560208201518160010160006101000a81548173ffffffffffffffffffffffffffffffffffffffff021916908373ffffffffffffffffffffffffffffffffffffffff16021790555060408201518160010160146101000a81548160ff02191690831515021790555060608201518160010160156101000a81548160ff02191690831515021790555050508160056000600354815260200190815260200160002090805461282f929190614765565b507fe4a4773a04354f567f797c204cf2b998204ac2658f9c3ce4b935888217046f6e3360035442604051612865939291906151fe565b60405180910390a16001600360008282546128809190615549565b925050819055505b5050505050505050505050565b60006128a03361087e565b905060006128ad3361041d565b905060008054906101000a900473ffffffffffffffffffffffffffffffffffffffff1673ffffffffffffffffffffffffffffffffffffffff163373ffffffffffffffffffffffffffffffffffffffff1614806129065750815b8061290e5750805b61294d576040517f08c379a000000000000000000000000000000000000000000000000000000000815260040161294490615332565b60405180910390fd5b84600073ffffffffffffffffffffffffffffffffffffffff168173ffffffffffffffffffffffffffffffffffffffff1614156129be576040517f08c379a00000000000000000000000000000000000000000000000000000000081526004016129b590615352565b60405180910390fd5b60006129cb878787613f32565b90508015612a0f577f1f366cb51d6c322ee8b739141a2ec9faf2d9da5aa6b97d6584d9144655b0aaef334283604051612a06939291906151c7565b60405180910390a15b50505050505050565b60008054906101000a900473ffffffffffffffffffffffffffffffffffffffff1681565b6000612a473361087e565b905080612a89576040517f08c379a0000000000000000000000000000000000000000000000000000000008152600401612a80906152d2565b60405180910390fd5b600080612a95846140ec565b915091508115612b3d57600160028281548110612adb577f4e487b7100000000000000000000000000000000000000000000000000000000600052603260045260246000fd5b906000526020600020906002020160010160146101000a81548160ff0219169083151502179055507f1c3377a0c51de9576fa0d69c44a1324cdc1c0c5c19607e3aaea41b0528e1fe508442604051612b3492919061540d565b60405180910390a15b50505050565b600081600073ffffffffffffffffffffffffffffffffffffffff168173ffffffffffffffffffffffffffffffffffffffff161415612bb6576040517f08c379a0000000000000000000000000000000000000000000000000000000008152600401612bad90615352565b60405180910390fd5b600080612bc285611372565b91509150818015612c9b575060026003811115612c08577f4e487b7100000000000000000000000000000000000000000000000000000000600052602160045260246000fd5b60018281548110612c42577f4e487b7100000000000000000000000000000000000000000000000000000000600052603260045260246000fd5b906000526020600020906002020160000160149054906101000a900460ff166003811115612c99577f4e487b7100000000000000000000000000000000000000000000000000000000600052602160045260246000fd5b145b9350505050919050565b60606001805480602002602001604051908101604052809291908181526020016000905b82821015612e6a57838290600052602060002090600202016040518060600160405290816000820160009054906101000a900473ffffffffffffffffffffffffffffffffffffffff1673ffffffffffffffffffffffffffffffffffffffff1673ffffffffffffffffffffffffffffffffffffffff1681526020016000820160149054906101000a900460ff166003811115612d8d577f4e487b7100000000000000000000000000000000000000000000000000000000600052602160045260246000fd5b6003811115612dc5577f4e487b7100000000000000000000000000000000000000000000000000000000600052602160045260246000fd5b8152602001600182018054612dd990615682565b80601f0160208091040260200160405190810160405280929190818152602001828054612e0590615682565b8015612e525780601f10612e2757610100808354040283529160200191612e52565b820191906000526020600020905b815481529060010190602001808311612e3557829003601f168201915b50505050508152505081526020019060010190612cc9565b50505050905090565b6000612e7e3361087e565b90506000612e8b3361041d565b905060008054906101000a900473ffffffffffffffffffffffffffffffffffffffff1673ffffffffffffffffffffffffffffffffffffffff163373ffffffffffffffffffffffffffffffffffffffff161480612ee45750815b80612eec5750805b612f2b576040517f08c379a0000000000000000000000000000000000000000000000000000000008152600401612f2290615332565b60405180910390fd5b6000612f36846109ad565b90508015612f7a577fc2584311840f96f00503c7cd32c4c54dbec1eaa507d4179fd5b74a3c09a798b3334283604051612f71939291906151c7565b60405180910390a15b50505050565b6000612f8b3361087e565b905080612fcd576040517f08c379a0000000000000000000000000000000000000000000000000000000008152600401612fc4906152d2565b60405180910390fd5b600080612fd9846140ec565b9150915081156130815760006002828154811061301f577f4e487b7100000000000000000000000000000000000000000000000000000000600052603260045260246000fd5b906000526020600020906002020160010160146101000a81548160ff0219169083151502179055507f54f15e2d92e47c97daf1628ccf33b3530a52615375f8a4f714b0b98969fc2e74844260405161307892919061540d565b60405180910390a15b50505050565b60008054906101000a900473ffffffffffffffffffffffffffffffffffffffff1673ffffffffffffffffffffffffffffffffffffffff163373ffffffffffffffffffffffffffffffffffffffff1614613115576040517f08c379a000000000000000000000000000000000000000000000000000000000815260040161310c906152f2565b60405180910390fd5b81600073ffffffffffffffffffffffffffffffffffffffff168173ffffffffffffffffffffffffffffffffffffffff161415613186576040517f08c379a000000000000000000000000000000000000000000000000000000000815260040161317d90615352565b60405180910390fd5b600061319484600085613f32565b905080156131d8577f1f366cb51d6c322ee8b739141a2ec9faf2d9da5aa6b97d6584d9144655b0aaef3342836040516131cf939291906151c7565b60405180910390a15b50505050565b60008060005b6001805490508110156132e2576000600381111561322b577f4e487b7100000000000000000000000000000000000000000000000000000000600052602160045260246000fd5b60018281548110613265577f4e487b7100000000000000000000000000000000000000000000000000000000600052603260045260246000fd5b906000526020600020906002020160000160149054906101000a900460ff1660038111156132bc577f4e487b7100000000000000000000000000000000000000000000000000000000600052602160045260246000fd5b14156132cf5760018192509250506132eb565b80806132da906156e5565b9150506131e4565b50600080915091505b9091565b60006132fa3361087e565b905060006133073361041d565b905060008054906101000a900473ffffffffffffffffffffffffffffffffffffffff1673ffffffffffffffffffffffffffffffffffffffff163373ffffffffffffffffffffffffffffffffffffffff1614806133605750815b806133685750805b6133a7576040517f08c379a000000000000000000000000000000000000000000000000000000000815260040161339e90615332565b60405180910390fd5b60c88484905011156133ee576040517f08c379a00000000000000000000000000000000000000000000000000000000081526004016133e5906153d2565b60405180910390fd5b6000805b8585905081101561348157600061345587878481811061343b577f4e487b7100000000000000000000000000000000000000000000000000000000600052603260045260246000fd5b90506020020160208101906134509190614b96565b6109ad565b9050801561346d5760018361346a9190615549565b92505b508080613479906156e5565b9150506133f2565b507fe51b9cc8a1245c78fd2a08c6a54488574e7125c003ecf4c85e4033e07e08eaf43342836040516134b5939291906151fe565b60405180910390a15050505050565b6000600180549050905090565b60006134dc3361087e565b905060006134e93361041d565b905060008054906101000a900473ffffffffffffffffffffffffffffffffffffffff1673ffffffffffffffffffffffffffffffffffffffff163373ffffffffffffffffffffffffffffffffffffffff1614806135425750815b8061354a5750805b613589576040517f08c379a000000000000000000000000000000000000000000000000000000000815260040161358090615332565b60405180910390fd5b600080613595856140ec565b915091508115613df8576000600282815481106135db577f4e487b7100000000000000000000000000000000000000000000000000000000600052603260045260246000fd5b9060005260206000209060020201604051806080016040529081600082015481526020016001820160009054906101000a900473ffffffffffffffffffffffffffffffffffffffff1673ffffffffffffffffffffffffffffffffffffffff1673ffffffffffffffffffffffffffffffffffffffff1681526020016001820160149054906101000a900460ff161515151581526020016001820160159054906101000a900460ff161515151581525050905080604001516136d0576040517f08c379a00000000000000000000000000000000000000000000000000000000081526004016136c790615372565b60405180910390fd5b600060056000888152602001908152602001600020805480602002602001604051908101604052809291908181526020016000905b8282101561394c57838290600052602060002090600602016040518060c00160405290816000820154815260200160018201805461374290615682565b80601f016020809104026020016040519081016040528092919081815260200182805461376e90615682565b80156137bb5780601f10613790576101008083540402835291602001916137bb565b820191906000526020600020905b81548152906001019060200180831161379e57829003601f168201915b505050505081526020016002820180546137d490615682565b80601f016020809104026020016040519081016040528092919081815260200182805461380090615682565b801561384d5780601f106138225761010080835404028352916020019161384d565b820191906000526020600020905b81548152906001019060200180831161383057829003601f168201915b505050505081526020016003820160009054906101000a900460ff1660038111156138a1577f4e487b7100000000000000000000000000000000000000000000000000000000600052602160045260246000fd5b60038111156138d9577f4e487b7100000000000000000000000000000000000000000000000000000000600052602160045260246000fd5b8152602001600482015481526020016005820160009054906101000a900473ffffffffffffffffffffffffffffffffffffffff1673ffffffffffffffffffffffffffffffffffffffff1673ffffffffffffffffffffffffffffffffffffffff168152505081526020019060010190613705565b50505050905060005b8151811015613df4576000828281518110613999577f4e487b7100000000000000000000000000000000000000000000000000000000600052603260045260246000fd5b6020026020010151905060006006600083600001518152602001908152602001600020805480602002602001604051908101604052809291908181526020016000905b82821015613b1157838290600052602060002090600302016040518060600160405290816000820160009054906101000a900473ffffffffffffffffffffffffffffffffffffffff1673ffffffffffffffffffffffffffffffffffffffff1673ffffffffffffffffffffffffffffffffffffffff168152602001600182018054613a6590615682565b80601f0160208091040260200160405190810160405280929190818152602001828054613a9190615682565b8015613ade5780601f10613ab357610100808354040283529160200191613ade565b820191906000526020600020905b815481529060010190602001808311613ac157829003601f168201915b505050505081526020016002820160009054906101000a900460ff161515151581525050815260200190600101906139dc565b5050505090506000805b8251811015613d98578160076000858481518110613b62577f4e487b7100000000000000000000000000000000000000000000000000000000600052603260045260246000fd5b60200260200101516000015173ffffffffffffffffffffffffffffffffffffffff1673ffffffffffffffffffffffffffffffffffffffff168152602001908152602001600020805490501115613cbc5760076000848381518110613bef577f4e487b7100000000000000000000000000000000000000000000000000000000600052603260045260246000fd5b60200260200101516000015173ffffffffffffffffffffffffffffffffffffffff1673ffffffffffffffffffffffffffffffffffffffff168152602001908152602001600020805490509150828181518110613c74577f4e487b7100000000000000000000000000000000000000000000000000000000600052603260045260246000fd5b6020026020010151600001518460a0019073ffffffffffffffffffffffffffffffffffffffff16908173ffffffffffffffffffffffffffffffffffffffff1681525050613d85565b8160076000858481518110613cfa577f4e487b7100000000000000000000000000000000000000000000000000000000600052603260045260246000fd5b60200260200101516000015173ffffffffffffffffffffffffffffffffffffffff1673ffffffffffffffffffffffffffffffffffffffff168152602001908152602001600020805490501415613d845760008460a0019073ffffffffffffffffffffffffffffffffffffffff16908173ffffffffffffffffffffffffffffffffffffffff16815250505b5b8080613d90906156e5565b915050613b1b565b5082858581518110613dd3577f4e487b7100000000000000000000000000000000000000000000000000000000600052603260045260246000fd5b60200260200101819052505050508080613dec906156e5565b915050613955565b5050505b5050505050565b6000613e0a3361087e565b90506000613e173361041d565b90506000613e2433612b43565b90508280613e2f5750815b80613e375750805b613e76576040517f08c379a0000000000000000000000000000000000000000000000000000000008152600401613e6d90615392565b60405180910390fd5b600080613e82866140ec565b915091508115613f2a57600160028281548110613ec8577f4e487b7100000000000000000000000000000000000000000000000000000000600052603260045260246000fd5b906000526020600020906002020160010160156101000a81548160ff0219169083151502179055507f0de2c806e4e5828c90f97cde098331ae12b1d49a17ffa59f3d1fad3bdfee5e4f8642604051613f2192919061540d565b60405180910390a15b505050505050565b600080613f3e85611372565b509050806140df57600080851415613f595760009050613f84565b6001851415613f6b5760019050613f83565b6002851415613f7d5760029050613f82565b600390505b5b5b600160405180606001604052808873ffffffffffffffffffffffffffffffffffffffff168152602001836003811115613fe6577f4e487b7100000000000000000000000000000000000000000000000000000000600052602160045260246000fd5b815260200186815250908060018154018082558091505060019003906000526020600020906002020160009091909190915060008201518160000160006101000a81548173ffffffffffffffffffffffffffffffffffffffff021916908373ffffffffffffffffffffffffffffffffffffffff16021790555060208201518160000160146101000a81548160ff021916908360038111156140b0577f4e487b7100000000000000000000000000000000000000000000000000000000600052602160045260246000fd5b021790555060408201518160010190805190602001906140d19291906145d3565b5050506001925050506140e5565b60009150505b9392505050565b60008060005b6002805490508110156141725760028181548110614139577f4e487b7100000000000000000000000000000000000000000000000000000000600052603260045260246000fd5b90600052602060002090600202016000015484141561415f57600181925092505061417b565b808061416a906156e5565b9150506140f2565b50600080915091505b915091565b60008060005b83518110156141fb578381815181106141c8577f4e487b7100000000000000000000000000000000000000000000000000000000600052603260045260246000fd5b6020026020010151600001518514156141e8576001819250925050614204565b80806141f3906156e5565b915050614186565b50600080915091505b9250929050565b60008060005b835181101561430057838181518110614253577f4e487b7100000000000000000000000000000000000000000000000000000000600052603260045260246000fd5b60200260200101516000015173ffffffffffffffffffffffffffffffffffffffff168573ffffffffffffffffffffffffffffffffffffffff161480156142db57508381815181106142cd577f4e487b7100000000000000000000000000000000000000000000000000000000600052603260045260246000fd5b602002602001015160400151155b156142ed576001819250925050614309565b80806142f8906156e5565b915050614211565b50600080915091505b9250929050565b60008060005b83518110156143b357838181518110614358577f4e487b7100000000000000000000000000000000000000000000000000000000600052603260045260246000fd5b602002602001015173ffffffffffffffffffffffffffffffffffffffff168573ffffffffffffffffffffffffffffffffffffffff1614156143a05760018192509250506143bc565b80806143ab906156e5565b915050614316565b50600080915091505b9250929050565b60008060006143d185611372565b915091508180156144aa5750836003811115614416577f4e487b7100000000000000000000000000000000000000000000000000000000600052602160045260246000fd5b60018281548110614450577f4e487b7100000000000000000000000000000000000000000000000000000000600052603260045260246000fd5b906000526020600020906002020160000160149054906101000a900460ff1660038111156144a7577f4e487b7100000000000000000000000000000000000000000000000000000000600052602160045260246000fd5b11155b9250505092915050565b8280546144c090615682565b90600052602060002090601f0160209004810192826144e25760008555614530565b82601f106144f35780548555614530565b8280016001018555821561453057600052602060002091601f016020900482015b8281111561452f578254825591600101919060010190614514565b5b50905061453d91906148db565b5090565b50805461454d90615682565b6000825580601f1061455f575061457e565b601f01602090049060005260206000209081019061457d91906148db565b5b50565b8280548282559060005260206000209081019282156145c25760005260206000209182015b828111156145c15782548255916001019190600101906145a6565b5b5090506145cf91906148db565b5090565b8280546145df90615682565b90600052602060002090601f0160209004810192826146015760008555614648565b82601f1061461a57805160ff1916838001178555614648565b82800160010185558215614648579182015b8281111561464757825182559160200191906001019061462c565b5b50905061465591906148db565b5090565b8280548282559060005260206000209060030281019282156147545760005260206000209160030282015b828111156147535782826000820160009054906101000a900473ffffffffffffffffffffffffffffffffffffffff168160000160006101000a81548173ffffffffffffffffffffffffffffffffffffffff021916908373ffffffffffffffffffffffffffffffffffffffff160217905550600182018160010190805461470990615682565b6147149291906144b4565b506002820160009054906101000a900460ff168160020160006101000a81548160ff021916908315150217905550505091600301919060030190614684565b5b50905061476191906148f8565b5090565b8280548282559060005260206000209060060281019282156148ca5760005260206000209160060282015b828111156148c95782826000820154816000015560018201816001019080546147b890615682565b6147c39291906144b4565b5060028201816002019080546147d890615682565b6147e39291906144b4565b506003820160009054906101000a900460ff168160030160006101000a81548160ff02191690836003811115614842577f4e487b7100000000000000000000000000000000000000000000000000000000600052602160045260246000fd5b0217905550600482015481600401556005820160009054906101000a900473ffffffffffffffffffffffffffffffffffffffff168160050160006101000a81548173ffffffffffffffffffffffffffffffffffffffff021916908373ffffffffffffffffffffffffffffffffffffffff160217905550505091600601919060060190614790565b5b5090506148d7919061495a565b5090565b5b808211156148f45760008160009055506001016148dc565b5090565b5b8082111561495657600080820160006101000a81549073ffffffffffffffffffffffffffffffffffffffff02191690556001820160006149399190614541565b6002820160006101000a81549060ff0219169055506003016148f9565b5090565b5b808211156149d85760008082016000905560018201600061497c9190614541565b60028201600061498c9190614541565b6003820160006101000a81549060ff021916905560048201600090556005820160006101000a81549073ffffffffffffffffffffffffffffffffffffffff02191690555060060161495b565b5090565b60006149ef6149ea846154b2565b61548d565b905082815260208101848484011115614a0757600080fd5b614a12848285615640565b509392505050565b600081359050614a2981615a3e565b92915050565b60008083601f840112614a4157600080fd5b8235905067ffffffffffffffff811115614a5a57600080fd5b602083019150836020820283011115614a7257600080fd5b9250929050565b60008083601f840112614a8b57600080fd5b8235905067ffffffffffffffff811115614aa457600080fd5b602083019150836020820283011115614abc57600080fd5b9250929050565b60008083601f840112614ad557600080fd5b8235905067ffffffffffffffff811115614aee57600080fd5b602083019150836020820283011115614b0657600080fd5b9250929050565b60008083601f840112614b1f57600080fd5b8235905067ffffffffffffffff811115614b3857600080fd5b602083019150836001820283011115614b5057600080fd5b9250929050565b600082601f830112614b6857600080fd5b8135614b788482602086016149dc565b91505092915050565b600081359050614b9081615a55565b92915050565b600060208284031215614ba857600080fd5b6000614bb684828501614a1a565b91505092915050565b60008060408385031215614bd257600080fd5b6000614be085828601614a1a565b925050602083013567ffffffffffffffff811115614bfd57600080fd5b614c0985828601614b57565b9150509250929050565b600080600060608486031215614c2857600080fd5b6000614c3686828701614a1a565b9350506020614c4786828701614b81565b925050604084013567ffffffffffffffff811115614c6457600080fd5b614c7086828701614b57565b9150509250925092565b60008060208385031215614c8d57600080fd5b600083013567ffffffffffffffff811115614ca757600080fd5b614cb385828601614a2f565b92509250509250929050565b60008060008060008060608789031215614cd857600080fd5b600087013567ffffffffffffffff811115614cf257600080fd5b614cfe89828a01614a2f565b9650965050602087013567ffffffffffffffff811115614d1d57600080fd5b614d2989828a01614ac3565b9450945050604087013567ffffffffffffffff811115614d4857600080fd5b614d5489828a01614a79565b92509250509295509295509295565b60008060008060008060608789031215614d7c57600080fd5b600087013567ffffffffffffffff811115614d9657600080fd5b614da289828a01614a79565b9650965050602087013567ffffffffffffffff811115614dc157600080fd5b614dcd89828a01614a79565b9450945050604087013567ffffffffffffffff811115614dec57600080fd5b614df889828a01614ac3565b92509250509295509295509295565b600060208284031215614e1957600080fd5b6000614e2784828501614b81565b91505092915050565b600080600060608486031215614e4557600080fd5b6000614e5386828701614b81565b9350506020614e6486828701614b81565b9250506040614e7586828701614a1a565b9150509250925092565b60008060008060608587031215614e9557600080fd5b6000614ea387828801614b81565b9450506020614eb487828801614b81565b935050604085013567ffffffffffffffff811115614ed157600080fd5b614edd87828801614b0d565b925092505092959194509250565b6000614ef78383615124565b905092915050565b614f08816155d3565b82525050565b614f17816155d3565b82525050565b6000614f28826154f3565b614f328185615516565b935083602082028501614f44856154e3565b8060005b85811015614f805784840389528151614f618582614eeb565b9450614f6c83615509565b925060208a01995050600181019050614f48565b50829750879550505050505092915050565b614f9b816155e5565b82525050565b614faa8161562e565b82525050565b6000614fbb826154fe565b614fc58185615527565b9350614fd581856020860161564f565b614fde816157ea565b840191505092915050565b6000614ff6602483615538565b9150615001826157fb565b604082019050919050565b6000615019602183615538565b91506150248261584a565b604082019050919050565b600061503c602e83615538565b915061504782615899565b604082019050919050565b600061505f603683615538565b915061506a826158e8565b604082019050919050565b6000615082600f83615538565b915061508d82615937565b602082019050919050565b60006150a5601483615538565b91506150b082615960565b602082019050919050565b60006150c8603983615538565b91506150d382615989565b604082019050919050565b60006150eb601883615538565b91506150f6826159d8565b602082019050919050565b600061510e602083615538565b915061511982615a01565b602082019050919050565b600060608301600083015161513c6000860182614eff565b50602083015161514f6020860182614fa1565b50604083015184820360408601526151678282614fb0565b9150508091505092915050565b61517d81615624565b82525050565b60006020820190506151986000830184614f0e565b92915050565b60006040820190506151b36000830185614f0e565b6151c06020830184615174565b9392505050565b60006060820190506151dc6000830186614f0e565b6151e96020830185615174565b6151f66040830184614f92565b949350505050565b60006060820190506152136000830186614f0e565b6152206020830185615174565b61522d6040830184615174565b949350505050565b6000602082019050818103600083015261524f8184614f1d565b905092915050565b600060208201905061526c6000830184614f92565b92915050565b60006060820190506152876000830186614f92565b6152946020830185614f92565b6152a16040830184615174565b949350505050565b60006040820190506152be6000830185614f92565b6152cb6020830184615174565b9392505050565b600060208201905081810360008301526152eb81614fe9565b9050919050565b6000602082019050818103600083015261530b8161500c565b9050919050565b6000602082019050818103600083015261532b8161502f565b9050919050565b6000602082019050818103600083015261534b81615052565b9050919050565b6000602082019050818103600083015261536b81615075565b9050919050565b6000602082019050818103600083015261538b81615098565b9050919050565b600060208201905081810360008301526153ab816150bb565b9050919050565b600060208201905081810360008301526153cb816150de565b9050919050565b600060208201905081810360008301526153eb81615101565b9050919050565b60006020820190506154076000830184615174565b92915050565b60006040820190506154226000830185615174565b61542f6020830184615174565b9392505050565b6000808335600160200384360303811261544f57600080fd5b80840192508235915067ffffffffffffffff82111561546d57600080fd5b60208301925060018202360383131561548557600080fd5b509250929050565b60006154976154a8565b90506154a382826156b4565b919050565b6000604051905090565b600067ffffffffffffffff8211156154cd576154cc6157bb565b5b6154d6826157ea565b9050602081019050919050565b6000819050602082019050919050565b600081519050919050565b600081519050919050565b6000602082019050919050565b600082825260208201905092915050565b600082825260208201905092915050565b600082825260208201905092915050565b600061555482615624565b915061555f83615624565b9250827fffffffffffffffffffffffffffffffffffffffffffffffffffffffffffffffff038211156155945761559361572e565b5b828201905092915050565b60006155aa82615624565b91506155b583615624565b9250828210156155c8576155c761572e565b5b828203905092915050565b60006155de82615604565b9050919050565b60008115159050919050565b60008190506155ff82615a2a565b919050565b600073ffffffffffffffffffffffffffffffffffffffff82169050919050565b6000819050919050565b6000615639826155f1565b9050919050565b82818337600083830152505050565b60005b8381101561566d578082015181840152602081019050615652565b8381111561567c576000848401525b50505050565b6000600282049050600182168061569a57607f821691505b602082108114156156ae576156ad61578c565b5b50919050565b6156bd826157ea565b810181811067ffffffffffffffff821117156156dc576156db6157bb565b5b80604052505050565b60006156f082615624565b91507fffffffffffffffffffffffffffffffffffffffffffffffffffffffffffffffff8214156157235761572261572e565b5b600182019050919050565b7f4e487b7100000000000000000000000000000000000000000000000000000000600052601160045260246000fd5b7f4e487b7100000000000000000000000000000000000000000000000000000000600052602160045260246000fd5b7f4e487b7100000000000000000000000000000000000000000000000000000000600052602260045260246000fd5b7f4e487b7100000000000000000000000000000000000000000000000000000000600052604160045260246000fd5b6000601f19601f8301169050919050565b7f4f6e6c792063686169726d616e2063616e2063616c6c20746869732066756e6360008201527f74696f6e00000000000000000000000000000000000000000000000000000000602082015250565b7f4f6e6c79206f776e65722063616e2063616c6c20746869732066756e6374696f60008201527f6e00000000000000000000000000000000000000000000000000000000000000602082015250565b7f4f6e6c79206f776e657220616e642063686169726d616e2063616e2063616c6c60008201527f20746869732066756e6374696f6e000000000000000000000000000000000000602082015250565b7f4f6e6c79206f776e65722c2063686169726d616e20616e642061646d696e732060008201527f63616e2063616c6c20746869732066756e6374696f6e00000000000000000000602082015250565b7f496e76616c696420416464726573730000000000000000000000000000000000600082015250565b7f566f74696e6720686173206e6f7420656e646564000000000000000000000000600082015250565b7f4f6e6c792063686169726d616e2c2061646d696e7320616e642074656163686560008201527f72732063616e2063616c6c20746869732066756e6374696f6e00000000000000602082015250565b7f496e76616c696420696e70757420706172616d65746572730000000000000000600082015250565b7f65786365656473206e756d626572206f6620616c6c6f77656420696e70757473600082015250565b60048110615a3b57615a3a61575d565b5b50565b615a47816155d3565b8114615a5257600080fd5b50565b615a5e81615624565b8114615a6957600080fd5b5056fea2646970667358221220e9ebdce8a3768aeb188e19608bd41abc3aee2fdabfcb1585fb98c4058beeb0c864736f6c63430008040033",
  "linkReferences": {},
  "deployedLinkReferences": {}
}