{
  "_format": "hh-sol-artifact-1",
  "contractName": "ZuriPollToken",
  "sourceName": "contracts/ZuriPollToken.sol",
  "abi": [
    {
      "inputs": [
        {
          "internalType": "address",
          "name": "_owner",
          "type": "address"
        }
      ],
      "stateMutability": "nonpayable",
      "type": "constructor"
    },
    {
      "anonymous": false,
      "inputs": [
        {
          "indexed": true,
          "internalType": "address",
          "name": "owner",
          "type": "address"
        },
        {
          "indexed": true,
          "internalType": "address",
          "name": "spender",
          "type": "address"
        },
        {
          "indexed": false,
          "internalType": "uint256",
          "name": "value",
          "type": "uint256"
        }
      ],
      "name": "Approval",
      "type": "event"
    },
    {
      "anonymous": false,
      "inputs": [
        {
          "indexed": true,
          "internalType": "address",
          "name": "from",
          "type": "address"
        },
        {
          "indexed": true,
          "internalType": "address",
          "name": "to",
          "type": "address"
        },
        {
          "indexed": false,
          "internalType": "uint256",
          "name": "value",
          "type": "uint256"
        }
      ],
      "name": "Transfer",
      "type": "event"
    },
    {
      "inputs": [
        {
          "internalType": "address",
          "name": "owner",
          "type": "address"
        },
        {
          "internalType": "address",
          "name": "spender",
          "type": "address"
        }
      ],
      "name": "allowance",
      "outputs": [
        {
          "internalType": "uint256",
          "name": "",
          "type": "uint256"
        }
      ],
      "stateMutability": "view",
      "type": "function"
    },
    {
      "inputs": [
        {
          "internalType": "address",
          "name": "spender",
          "type": "address"
        },
        {
          "internalType": "uint256",
          "name": "amount",
          "type": "uint256"
        }
      ],
      "name": "approve",
      "outputs": [
        {
          "internalType": "bool",
          "name": "",
          "type": "bool"
        }
      ],
      "stateMutability": "nonpayable",
      "type": "function"
    },
    {
      "inputs": [
        {
          "internalType": "address",
          "name": "account",
          "type": "address"
        }
      ],
      "name": "balanceOf",
      "outputs": [
        {
          "internalType": "uint256",
          "name": "",
          "type": "uint256"
        }
      ],
      "stateMutability": "view",
      "type": "function"
    },
    {
      "inputs": [],
      "name": "buyToken",
      "outputs": [],
      "stateMutability": "payable",
      "type": "function"
    },
    {
      "inputs": [
        {
          "internalType": "uint256",
          "name": "rate",
          "type": "uint256"
        }
      ],
      "name": "changeTokensPerEther",
      "outputs": [],
      "stateMutability": "nonpayable",
      "type": "function"
    },
    {
      "inputs": [],
      "name": "decimals",
      "outputs": [
        {
          "internalType": "uint8",
          "name": "",
          "type": "uint8"
        }
      ],
      "stateMutability": "view",
      "type": "function"
    },
    {
      "inputs": [
        {
          "internalType": "address",
          "name": "spender",
          "type": "address"
        },
        {
          "internalType": "uint256",
          "name": "subtractedValue",
          "type": "uint256"
        }
      ],
      "name": "decreaseAllowance",
      "outputs": [
        {
          "internalType": "bool",
          "name": "",
          "type": "bool"
        }
      ],
      "stateMutability": "nonpayable",
      "type": "function"
    },
    {
      "inputs": [
        {
          "internalType": "address",
          "name": "spender",
          "type": "address"
        },
        {
          "internalType": "uint256",
          "name": "addedValue",
          "type": "uint256"
        }
      ],
      "name": "increaseAllowance",
      "outputs": [
        {
          "internalType": "bool",
          "name": "",
          "type": "bool"
        }
      ],
      "stateMutability": "nonpayable",
      "type": "function"
    },
    {
      "inputs": [],
      "name": "name",
      "outputs": [
        {
          "internalType": "string",
          "name": "",
          "type": "string"
        }
      ],
      "stateMutability": "view",
      "type": "function"
    },
    {
      "inputs": [],
      "name": "owner",
      "outputs": [
        {
          "internalType": "address",
          "name": "",
          "type": "address"
        }
      ],
      "stateMutability": "view",
      "type": "function"
    },
    {
      "inputs": [],
      "name": "symbol",
      "outputs": [
        {
          "internalType": "string",
          "name": "",
          "type": "string"
        }
      ],
      "stateMutability": "view",
      "type": "function"
    },
    {
      "inputs": [],
      "name": "tokensPerEther",
      "outputs": [
        {
          "internalType": "uint256",
          "name": "",
          "type": "uint256"
        }
      ],
      "stateMutability": "view",
      "type": "function"
    },
    {
      "inputs": [],
      "name": "totalSupply",
      "outputs": [
        {
          "internalType": "uint256",
          "name": "",
          "type": "uint256"
        }
      ],
      "stateMutability": "view",
      "type": "function"
    },
    {
      "inputs": [
        {
          "internalType": "address",
          "name": "to",
          "type": "address"
        },
        {
          "internalType": "uint256",
          "name": "amount",
          "type": "uint256"
        }
      ],
      "name": "transfer",
      "outputs": [
        {
          "internalType": "bool",
          "name": "",
          "type": "bool"
        }
      ],
      "stateMutability": "nonpayable",
      "type": "function"
    },
    {
      "inputs": [
        {
          "internalType": "address",
          "name": "from",
          "type": "address"
        },
        {
          "internalType": "address",
          "name": "to",
          "type": "address"
        },
        {
          "internalType": "uint256",
          "name": "amount",
          "type": "uint256"
        }
      ],
      "name": "transferFrom",
      "outputs": [
        {
          "internalType": "bool",
          "name": "",
          "type": "bool"
        }
      ],
      "stateMutability": "nonpayable",
      "type": "function"
    }
  ],
  "bytecode": "0x60806040526103e86006553480156200001757600080fd5b5060405162001e1f38038062001e1f83398181016040528101906200003d9190620003f3565b6040518060400160405280600d81526020017f5a757269506f6c6c546f6b656e000000000000000000000000000000000000008152506040518060400160405280600381526020017f5a505400000000000000000000000000000000000000000000000000000000008152508160039080519060200190620000c19291906200032c565b508060049080519060200190620000da9291906200032c565b50505080600560006101000a81548173ffffffffffffffffffffffffffffffffffffffff021916908373ffffffffffffffffffffffffffffffffffffffff16021790555062000165600560009054906101000a900473ffffffffffffffffffffffffffffffffffffffff1662000159620f42406200016c60201b60201c565b620001a060201b60201c565b506200082c565b60006200017e6200031960201b60201c565b600a6200018c91906200055f565b826200019991906200069c565b9050919050565b600073ffffffffffffffffffffffffffffffffffffffff168273ffffffffffffffffffffffffffffffffffffffff16141562000213576040517f08c379a00000000000000000000000000000000000000000000000000000000081526004016200020a9062000457565b60405180910390fd5b62000227600083836200032260201b60201c565b80600260008282546200023b9190620004a7565b92505081905550806000808473ffffffffffffffffffffffffffffffffffffffff1673ffffffffffffffffffffffffffffffffffffffff1681526020019081526020016000206000828254620002929190620004a7565b925050819055508173ffffffffffffffffffffffffffffffffffffffff16600073ffffffffffffffffffffffffffffffffffffffff167fddf252ad1be2c89b69c2b068fc378daa952ba7f163c4a11628f55a4df523b3ef83604051620002f9919062000479565b60405180910390a362000315600083836200032760201b60201c565b5050565b60006012905090565b505050565b505050565b8280546200033a9062000748565b90600052602060002090601f0160209004810192826200035e5760008555620003aa565b82601f106200037957805160ff1916838001178555620003aa565b82800160010185558215620003aa579182015b82811115620003a95782518255916020019190600101906200038c565b5b509050620003b99190620003bd565b5090565b5b80821115620003d8576000816000905550600101620003be565b5090565b600081519050620003ed8162000812565b92915050565b6000602082840312156200040657600080fd5b60006200041684828501620003dc565b91505092915050565b60006200042e601f8362000496565b91506200043b82620007e9565b602082019050919050565b620004518162000731565b82525050565b6000602082019050818103600083015262000472816200041f565b9050919050565b600060208201905062000490600083018462000446565b92915050565b600082825260208201905092915050565b6000620004b48262000731565b9150620004c18362000731565b9250827fffffffffffffffffffffffffffffffffffffffffffffffffffffffffffffffff03821115620004f957620004f86200077e565b5b828201905092915050565b6000808291508390505b600185111562000556578086048111156200052e576200052d6200077e565b5b60018516156200053e5780820291505b80810290506200054e85620007dc565b94506200050e565b94509492505050565b60006200056c8262000731565b915062000579836200073b565b9250620005a87fffffffffffffffffffffffffffffffffffffffffffffffffffffffffffffffff8484620005b0565b905092915050565b600082620005c2576001905062000695565b81620005d2576000905062000695565b8160018114620005eb5760028114620005f6576200062c565b600191505062000695565b60ff8411156200060b576200060a6200077e565b5b8360020a9150848211156200062557620006246200077e565b5b5062000695565b5060208310610133831016604e8410600b8410161715620006665782820a90508381111562000660576200065f6200077e565b5b62000695565b62000675848484600162000504565b925090508184048111156200068f576200068e6200077e565b5b81810290505b9392505050565b6000620006a98262000731565b9150620006b68362000731565b9250817fffffffffffffffffffffffffffffffffffffffffffffffffffffffffffffffff0483118215151615620006f257620006f16200077e565b5b828202905092915050565b60006200070a8262000711565b9050919050565b600073ffffffffffffffffffffffffffffffffffffffff82169050919050565b6000819050919050565b600060ff82169050919050565b600060028204905060018216806200076157607f821691505b60208210811415620007785762000777620007ad565b5b50919050565b7f4e487b7100000000000000000000000000000000000000000000000000000000600052601160045260246000fd5b7f4e487b7100000000000000000000000000000000000000000000000000000000600052602260045260246000fd5b60008160011c9050919050565b7f45524332303a206d696e7420746f20746865207a65726f206164647265737300600082015250565b6200081d81620006fd565b81146200082957600080fd5b50565b6115e3806200083c6000396000f3fe6080604052600436106100e85760003560e01c806370a082311161008a578063a482171911610059578063a48217191461031e578063a9059cbb14610328578063dd62ed3e14610365578063f856d605146103a2576100e8565b806370a082311461024e5780638da5cb5b1461028b57806395d89b41146102b6578063a457c2d7146102e1576100e8565b806323b872dd116100c657806323b872dd146101805780632c08eb0b146101bd578063313ce567146101e65780633950935114610211576100e8565b806306fdde03146100ed578063095ea7b31461011857806318160ddd14610155575b600080fd5b3480156100f957600080fd5b506101026103cd565b60405161010f919061104f565b60405180910390f35b34801561012457600080fd5b5061013f600480360381019061013a9190610e4a565b61045f565b60405161014c9190611034565b60405180910390f35b34801561016157600080fd5b5061016a610482565b6040516101779190611151565b60405180910390f35b34801561018c57600080fd5b506101a760048036038101906101a29190610dfb565b61048c565b6040516101b49190611034565b60405180910390f35b3480156101c957600080fd5b506101e460048036038101906101df9190610e86565b6104bb565b005b3480156101f257600080fd5b506101fb6104c5565b604051610208919061116c565b60405180910390f35b34801561021d57600080fd5b5061023860048036038101906102339190610e4a565b6104ce565b6040516102459190611034565b60405180910390f35b34801561025a57600080fd5b5061027560048036038101906102709190610d96565b610578565b6040516102829190611151565b60405180910390f35b34801561029757600080fd5b506102a06105c0565b6040516102ad9190611019565b60405180910390f35b3480156102c257600080fd5b506102cb6105e6565b6040516102d8919061104f565b60405180910390f35b3480156102ed57600080fd5b5061030860048036038101906103039190610e4a565b610678565b6040516103159190611034565b60405180910390f35b610326610762565b005b34801561033457600080fd5b5061034f600480360381019061034a9190610e4a565b6107d2565b60405161035c9190611034565b60405180910390f35b34801561037157600080fd5b5061038c60048036038101906103879190610dbf565b6107f5565b6040516103999190611151565b60405180910390f35b3480156103ae57600080fd5b506103b761087c565b6040516103c49190611151565b60405180910390f35b6060600380546103dc906112db565b80601f0160208091040260200160405190810160405280929190818152602001828054610408906112db565b80156104555780601f1061042a57610100808354040283529160200191610455565b820191906000526020600020905b81548152906001019060200180831161043857829003601f168201915b5050505050905090565b60008061046a610882565b905061047781858561088a565b600191505092915050565b6000600254905090565b600080610497610882565b90506104a4858285610a55565b6104af858585610ae1565b60019150509392505050565b8060068190555050565b60006012905090565b6000806104d9610882565b905061056d818585600160008673ffffffffffffffffffffffffffffffffffffffff1673ffffffffffffffffffffffffffffffffffffffff16815260200190815260200160002060008973ffffffffffffffffffffffffffffffffffffffff1673ffffffffffffffffffffffffffffffffffffffff1681526020019081526020016000205461056891906111a3565b61088a565b600191505092915050565b60008060008373ffffffffffffffffffffffffffffffffffffffff1673ffffffffffffffffffffffffffffffffffffffff168152602001908152602001600020549050919050565b600560009054906101000a900473ffffffffffffffffffffffffffffffffffffffff1681565b6060600480546105f5906112db565b80601f0160208091040260200160405190810160405280929190818152602001828054610621906112db565b801561066e5780601f106106435761010080835404028352916020019161066e565b820191906000526020600020905b81548152906001019060200180831161065157829003601f168201915b5050505050905090565b600080610683610882565b90506000600160008373ffffffffffffffffffffffffffffffffffffffff1673ffffffffffffffffffffffffffffffffffffffff16815260200190815260200160002060008673ffffffffffffffffffffffffffffffffffffffff1673ffffffffffffffffffffffffffffffffffffffff16815260200190815260200160002054905083811015610749576040517f08c379a000000000000000000000000000000000000000000000000000000000815260040161074090611131565b60405180910390fd5b610756828686840361088a565b60019250505092915050565b60006006543461077291906111f9565b90506107a1600560009054906101000a900473ffffffffffffffffffffffffffffffffffffffff16338361088a565b6107ce600560009054906101000a900473ffffffffffffffffffffffffffffffffffffffff16338361048c565b5050565b6000806107dd610882565b90506107ea818585610ae1565b600191505092915050565b6000600160008473ffffffffffffffffffffffffffffffffffffffff1673ffffffffffffffffffffffffffffffffffffffff16815260200190815260200160002060008373ffffffffffffffffffffffffffffffffffffffff1673ffffffffffffffffffffffffffffffffffffffff16815260200190815260200160002054905092915050565b60065481565b600033905090565b600073ffffffffffffffffffffffffffffffffffffffff168373ffffffffffffffffffffffffffffffffffffffff1614156108fa576040517f08c379a00000000000000000000000000000000000000000000000000000000081526004016108f190611111565b60405180910390fd5b600073ffffffffffffffffffffffffffffffffffffffff168273ffffffffffffffffffffffffffffffffffffffff16141561096a576040517f08c379a000000000000000000000000000000000000000000000000000000000815260040161096190611091565b60405180910390fd5b80600160008573ffffffffffffffffffffffffffffffffffffffff1673ffffffffffffffffffffffffffffffffffffffff16815260200190815260200160002060008473ffffffffffffffffffffffffffffffffffffffff1673ffffffffffffffffffffffffffffffffffffffff168152602001908152602001600020819055508173ffffffffffffffffffffffffffffffffffffffff168373ffffffffffffffffffffffffffffffffffffffff167f8c5be1e5ebec7d5bd14f71427d1e84f3dd0314c0f7b2291e5b200ac8c7c3b92583604051610a489190611151565b60405180910390a3505050565b6000610a6184846107f5565b90507fffffffffffffffffffffffffffffffffffffffffffffffffffffffffffffffff8114610adb5781811015610acd576040517f08c379a0000000000000000000000000000000000000000000000000000000008152600401610ac4906110b1565b60405180910390fd5b610ada848484840361088a565b5b50505050565b600073ffffffffffffffffffffffffffffffffffffffff168373ffffffffffffffffffffffffffffffffffffffff161415610b51576040517f08c379a0000000000000000000000000000000000000000000000000000000008152600401610b48906110f1565b60405180910390fd5b600073ffffffffffffffffffffffffffffffffffffffff168273ffffffffffffffffffffffffffffffffffffffff161415610bc1576040517f08c379a0000000000000000000000000000000000000000000000000000000008152600401610bb890611071565b60405180910390fd5b610bcc838383610d62565b60008060008573ffffffffffffffffffffffffffffffffffffffff1673ffffffffffffffffffffffffffffffffffffffff16815260200190815260200160002054905081811015610c52576040517f08c379a0000000000000000000000000000000000000000000000000000000008152600401610c49906110d1565b60405180910390fd5b8181036000808673ffffffffffffffffffffffffffffffffffffffff1673ffffffffffffffffffffffffffffffffffffffff16815260200190815260200160002081905550816000808573ffffffffffffffffffffffffffffffffffffffff1673ffffffffffffffffffffffffffffffffffffffff1681526020019081526020016000206000828254610ce591906111a3565b925050819055508273ffffffffffffffffffffffffffffffffffffffff168473ffffffffffffffffffffffffffffffffffffffff167fddf252ad1be2c89b69c2b068fc378daa952ba7f163c4a11628f55a4df523b3ef84604051610d499190611151565b60405180910390a3610d5c848484610d67565b50505050565b505050565b505050565b600081359050610d7b8161157f565b92915050565b600081359050610d9081611596565b92915050565b600060208284031215610da857600080fd5b6000610db684828501610d6c565b91505092915050565b60008060408385031215610dd257600080fd5b6000610de085828601610d6c565b9250506020610df185828601610d6c565b9150509250929050565b600080600060608486031215610e1057600080fd5b6000610e1e86828701610d6c565b9350506020610e2f86828701610d6c565b9250506040610e4086828701610d81565b9150509250925092565b60008060408385031215610e5d57600080fd5b6000610e6b85828601610d6c565b9250506020610e7c85828601610d81565b9150509250929050565b600060208284031215610e9857600080fd5b6000610ea684828501610d81565b91505092915050565b610eb881611253565b82525050565b610ec781611265565b82525050565b6000610ed882611187565b610ee28185611192565b9350610ef28185602086016112a8565b610efb8161136b565b840191505092915050565b6000610f13602383611192565b9150610f1e8261137c565b604082019050919050565b6000610f36602283611192565b9150610f41826113cb565b604082019050919050565b6000610f59601d83611192565b9150610f648261141a565b602082019050919050565b6000610f7c602683611192565b9150610f8782611443565b604082019050919050565b6000610f9f602583611192565b9150610faa82611492565b604082019050919050565b6000610fc2602483611192565b9150610fcd826114e1565b604082019050919050565b6000610fe5602583611192565b9150610ff082611530565b604082019050919050565b61100481611291565b82525050565b6110138161129b565b82525050565b600060208201905061102e6000830184610eaf565b92915050565b60006020820190506110496000830184610ebe565b92915050565b600060208201905081810360008301526110698184610ecd565b905092915050565b6000602082019050818103600083015261108a81610f06565b9050919050565b600060208201905081810360008301526110aa81610f29565b9050919050565b600060208201905081810360008301526110ca81610f4c565b9050919050565b600060208201905081810360008301526110ea81610f6f565b9050919050565b6000602082019050818103600083015261110a81610f92565b9050919050565b6000602082019050818103600083015261112a81610fb5565b9050919050565b6000602082019050818103600083015261114a81610fd8565b9050919050565b60006020820190506111666000830184610ffb565b92915050565b6000602082019050611181600083018461100a565b92915050565b600081519050919050565b600082825260208201905092915050565b60006111ae82611291565b91506111b983611291565b9250827fffffffffffffffffffffffffffffffffffffffffffffffffffffffffffffffff038211156111ee576111ed61130d565b5b828201905092915050565b600061120482611291565b915061120f83611291565b9250817fffffffffffffffffffffffffffffffffffffffffffffffffffffffffffffffff04831182151516156112485761124761130d565b5b828202905092915050565b600061125e82611271565b9050919050565b60008115159050919050565b600073ffffffffffffffffffffffffffffffffffffffff82169050919050565b6000819050919050565b600060ff82169050919050565b60005b838110156112c65780820151818401526020810190506112ab565b838111156112d5576000848401525b50505050565b600060028204905060018216806112f357607f821691505b602082108114156113075761130661133c565b5b50919050565b7f4e487b7100000000000000000000000000000000000000000000000000000000600052601160045260246000fd5b7f4e487b7100000000000000000000000000000000000000000000000000000000600052602260045260246000fd5b6000601f19601f8301169050919050565b7f45524332303a207472616e7366657220746f20746865207a65726f206164647260008201527f6573730000000000000000000000000000000000000000000000000000000000602082015250565b7f45524332303a20617070726f766520746f20746865207a65726f20616464726560008201527f7373000000000000000000000000000000000000000000000000000000000000602082015250565b7f45524332303a20696e73756666696369656e7420616c6c6f77616e6365000000600082015250565b7f45524332303a207472616e7366657220616d6f756e742065786365656473206260008201527f616c616e63650000000000000000000000000000000000000000000000000000602082015250565b7f45524332303a207472616e736665722066726f6d20746865207a65726f20616460008201527f6472657373000000000000000000000000000000000000000000000000000000602082015250565b7f45524332303a20617070726f76652066726f6d20746865207a65726f2061646460008201527f7265737300000000000000000000000000000000000000000000000000000000602082015250565b7f45524332303a2064656372656173656420616c6c6f77616e63652062656c6f7760008201527f207a65726f000000000000000000000000000000000000000000000000000000602082015250565b61158881611253565b811461159357600080fd5b50565b61159f81611291565b81146115aa57600080fd5b5056fea264697066735822122085d06e89a5324e42e1e6bce5a8352572ca3452221497b6b34efca81d075d46be64736f6c63430008040033",
  "linkReferences": {},
  "deployedLinkReferences": {}
}